:0200000460009A
:10000000464346420004015600000000010303007D
:1000100000000000000000000000000000000000E0
:1000200000000000000000000000000000000000D0
:1000300000000000000000000000000000000000C0
:1000400000000000000406000000000000000000A6
:100050000000800000000000000000000000000020
:100060000000000000000000000000000000000090
:100070000000000000000000000000000000000080
:10008000EB04180A063204260000000000000000FD
:100090000000000000000000000000000000000060
:1000A0000000000000000000000000000000000050
:1000B0000000000000000000000000000000000040
:1000C0000000000000000000000000000000000030
:1000D0000000000000000000000000000000000020
:1000E0000000000000000000000000000000000010
:1000F0000000000000000000000000000000000000
:1001000000000000000000000000000000000000EF
:1001100000000000000000000000000000000000DF
:1001200000000000000000000000000000000000CF
:1001300000000000000000000000000000000000BF
:1001400000000000000000000000000000000000AF
:10015000000000000000000000000000000000009F
:10016000000000000000000000000000000000008F
:10017000000000000000000000000000000000007F
:10018000000000000000000000000000000000006F
:10019000000000000000000000000000000000005F
:1001A000000000000000000000000000000000004F
:1001B000000000000000000000000000000000003F
:1001C000000100000010000000000000000000001E
:1001D000000001000000000000000000000000001E
:1001E000000000000000000000000000000000000F
:1001F00000000000000000000000000000000000FF
:10020000FFFFFFFFFFFFFFFFFFFFFFFFFFFFFFFFFE
:10021000FFFFFFFFFFFFFFFFFFFFFFFFFFFFFFFFEE
:10100000D10020410020006000000000000000002E
:1010100020100060001000600000000000000000D0
:10102000000000600000800000000000FFFFFFFFE4
:10103000FFFFFFFFFFFFFFFFFFFFFFFFFFFFFFFFC0
:10104000FFFFFFFFFFFFFFFFFFFFFFFFFFFFFFFFB0
:10105000FFFFFFFFFFFFFFFFFFFFFFFFFFFFFFFFA0
:10106000FFFFFFFFFFFFFFFFFFFFFFFFFFFFFFFF90
:10200000000002201D230060A12300607DA300606A
:10201000A5230060A7230060A92300600000000042
:10202000000000000000000000000000AB23006082
:10203000AD23006000000000AF230060B12300600A
:102040009D9E0060A59E0060AD9E0060B59E0060F4
:10205000BD9E0060C59E0060CD9E0060D59E006064
:10206000DD9E0060E59E0060ED9E0060F59E0060D4
:10207000FD9E0060059F00600D9F0060159F006041
:102080001D9F0060259F00602D9F0060359F0060B0
:102090003D9F0060459F00604D9F0060559F006020
:1020A0005D9F0060659F00606D9F0060759F006090
:1020B0007D9F0060859F00608D9F0060959F006000
:1020C0009D9F0060A59F0060AD9F0060B59F006070
:1020D000BD9F0060C59F0060CD9F0060D59F0060E0
:1020E000DD9F0060E59F0060ED9F0060F59F006050
:1020F000FD9F006005A000600DA0006015A00060BD
:102100001DA0006025A000602DA0006035A000602B
:102110003DA0006045A000604DA0006055A000609B
:102120005DA0006065A000606DA0006075A000600B
:102130007DA0006085A000608DA0006095A000607B
:102140009DA00060A5A00060ADA00060B5A00060EB
:10215000BDA00060C5A00060CDA00060D5A000605B
:10216000DDA00060E5A00060EDA00060F5A00060CB
:10217000FDA0006005A100600DA1006015A1006038
:102180001DA1006025A100602DA1006035A10060A7
:102190003DA1006045A100604DA1006055A1006017
:1021A0005DA1006065A100606DA1006075A1006087
:1021B0007DA1006085A100608DA1006095A10060F7
:1021C0009DA10060A5A10060ADA10060B5A1006067
:1021D000BDA10060C5A10060CDA10060D5A10060D7
:1021E000DDA10060E5A10060EDA10060F5A1006047
:1021F000FDA1006005A200600DA2006015A20060B4
:1022000091680060CD6800601DA2006025A200609A
:102210002DA2006035A200603DA2006045A20060D2
:102220004DA2006055A200605DA2006065A2006042
:102230006DA2006075A200607DA2006085A20060B2
:102240008DA2006095A200609DA20060A5A2006022
:10225000ADA20060B5A20060BDA20060C5A2006092
:10226000CDA20060D5A20060DDA20060E5A2006002
:10227000EDA20060F5A20060FDA2006005A3006071
:102280000DA3006015A300601DA3006025A30060DE
:102290002DA3006035A300603DA3006045A300604E
:1022A0004DA3006055A300605DA3006065A30060BE
:1022B0006DA3006075A3006068B600600000002098
:1022C0006401000068B6006000000000000000002B
:1022D00068B60060000020200000000068B60060C2
:1022E000000000800000000068B600600000E0818F
:1022F0000000000000080020801100000000000025
:10230000000000000000202000000000000000800D
:10231000000000000000E0810000000072B6104BD9
:1023200083F3088803F0DCFA0E4B07E003F10C049A
:102330009A685968186800F01BF823460A4A9342C5
:10234000F4D306E01C46596854F8080B00F01FF857
:102350002346064A9342F5D362B608F097FDFEE79E
:1023600000000220B8220060F42200601C230060FC
:10237000002393420AD210B450F8044B41F8044BA6
:1023800004339342F8D35DF8044B70477047002341
:1023900003E0002240F8042B04338B42F9D370474A
:1023A000FEE7FEE7FEE7FEE7FEE7FEE7FEE7FEE705
:1023B000FEE7FEE780B582B000AF7860796802483A
:1023C00005F04EFC00BEFDE704B3006080B485B0AC
:1023D00000AFF860B9601346FB80FB68002B0ED09D
:1023E000BB68002B0BD0FB8843F22352934207D0EB
:1023F000FB88002B04D1054B01221A7000E000BFBE
:102400001437BD465DF8047B704700BF7C1900207F
:1024100080B584B000AF786043F22153FB81012284
:1024200079680F4808F070FA0346FB81FB89002B9E
:1024300002D00123FB810DE000BF0A4B1B78DBB209
:1024400083F00103DBB2002BF7D1064B00221A7098
:102450000023FB81FB8918461037BD4680BD00BFB5
:10246000A41500207C19002080B588B000AF7860EA
:10247000396000237B617B68002BFCD03B68002B1C
:10248000FCD005F0CFFAF860374BD3F8CC20364BB0
:10249000D3F8D0309A4216D001237B61324BD3F867
:1024A000CC20314BD3F8C8301A442F4BD3F8D0305E
:1024B000D31A2D4AD2F8C820B3FBF2F101FB02F285
:1024C0009B1ABB6101E00023BB61274BD3F8C820F6
:1024D000BB69D31A013BBB61BA693B689A4205D21A
:1024E000F86805F0B0FA4FF0FF3338E000233B61A5
:1024F0001EE03B697A681A441B4BD3F8CC30591C58
:102500001948C0F8CC101178174A13440A4683F8CA
:10251000D420154BD3F8CC20134BD3F8C8309A42B3
:1025200003D3114B0022C3F8CC203B6901333B613C
:102530003B683A699A42DCDB0023FB617B69002B34
:1025400003D1094805F08FFAF861F86805F07BFAC5
:10255000FB69002B01D13B6801E04FF0FF331846C7
:102560002037BD4680BD00BF780E002080B588B002
:1025700000AF7860396043F22153FB823B68BB6156
:102580007B68002BFCD03B68002B01D1002368E066
:10259000364B1B68002B01D1002362E005F042FAA4
:1025A0003861334BD3F8CC20314BD3F8D0309A423A
:1025B00014D02F4BD3F8CC202D4BD3F8C8301A446D
:1025C0002B4BD3F8D030D31A294AD2F8C820B3FB0A
:1025D000F2F101FB02F29B1AFB6101E00023FB61B7
:1025E000234BD3F8C820FB69D31A013BFB61FB697D
:1025F000002B21D0FA69BB699A4206D21C4BD3F852
:10260000C830013BBA699A4216D3FA69BB699A424B
:1026100001D9BB69FB613A68BB69D31A7A68134474
:10262000F9691846FFF720FFF860FB68002B03DD0F
:10263000FB68BA69D31ABB61386905F004FABB6953
:10264000002B06D000F0DEF80346FB82FB8A002B4D
:1026500003D1BB69002BA1D100E000BF3A68BB6980
:10266000D31A18462037BD4680BD00BFD0150020C4
:10267000780E002080B584B000AF78607B68002BB6
:10268000FCD00C4B1B68002B02D14FF0FF330CE049
:102690007868FFF7BDFE0346002B02D10123FB60E3
:1026A00002E04FF0FF33FB60FB6818461037BD4671
:1026B00080BD00BFD015002080B58AB000AFB960E2
:1026C0007B600346FB731346BB730023FB84FB7BD9
:1026D0003B74BB7B3B77404B7B614FF48063BB61BA
:1026E0000023FB83BB7B012B03D143F22153FB84EB
:1026F00017E0BB7B022B03D107F110033B6210E014
:10270000BB7B032B03D143F22153FB8409E0BB7B4A
:10271000042B03D143F22153FB8402E043F2215303
:10272000FB84FB8C43F22152934250D04FF4EB6276
:1027300000212A4808F0B3FB284B4FF40072C3F87D
:10274000C820264B264A1A60244B1B6807F1140246
:102750001146184603F062FC0346FB84FB8C002BF9
:10276000FCD1204B1B781D4B1B681F49184603F0FA
:10277000B9FC0346FB84FB8C002BFCD1174A1B4998
:10278000194803F027FD154B1B681949184603F03B
:10279000A9FC0346FB84FB8C002BFCD10F4A154996
:1027A000134803F017FD0D4B1B681349184603F03F
:1027B000D1FC0346FB84FB8C002BFCD1074A0F495C
:1027C0000D4803F027FD054B1B680D4A1360FB8C79
:1027D00018462837BD4680BD4C110020780E0020D9
:1027E0007C0E00207C1900204C1500202B7B006003
:1027F00078150020A57B0060A4150020CD23006083
:10280000D015002080B400AF00BF074BD3F8CC2018
:10281000054BD3F8D0309A42F7D100231846BD4675
:102820005DF8047B704700BF780E002080B5A4B02F
:1028300000AF786039600023C7F888300023C7F8FC
:102840008C300023BB6007F10C037C22002118466A
:1028500008F025FB0E4B1B68002B12D007F1080275
:102860000C4B3968786805F0F2FBC7F88800D7F898
:10287000882007F1080311461846FFF777FEC7F8CE
:102880008C00D7F88C3018469037BD4680BD00BF0D
:10289000D0150020FB7B006080B48DB000AF0346F4
:1028A000FB7100237B620023BB62314A07F11403F2
:1028B00007CA83E807002E4A07F1080307CA83E81E
:1028C0000700FB79012B01D800234BE0FB79022B99
:1028D00002D0FB79032B03D1FB79023BFB7112E0A1
:1028E000FB79062B02D0FB79072B03D1FB79063B42
:1028F000FB7108E0FB790A2B02D0FB790B2B02D18C
:10290000FB790A3BFB710023FB6218E0FB6A9B002A
:1029100030333B4453F81C3C002B0DD0BA6A531C97
:10292000BB62FB6A9B0030333B4453F81C1C930092
:1029300030333B4443F8281CFB6A0133FB62FB6ADB
:10294000022BE3D9FB79BA6A9A4201D2002309E04B
:10295000FB799B0030333B4453F8283C3B623B6A95
:102960007B627B6A18463437BD465DF8047B70474E
:1029700018B3006080B586B000AF0346B9607A60D6
:10298000FB73FB7B1846FFF787FF78617B69002BA1
:1029900001D101234AE02749FB7B9A1E13465B00C5
:1029A00013445B010B4403F5DA734FF4C0121A6051
:1029B0007B691B6B43F480427B691A637B691B6BE9
:1029C00043F400427B691A637B6900221A60FB7B37
:1029D0000A2B08D0FB7B0B2B05D0FB7B062B02D0F0
:1029E000FB7B072B07D17B694FF400225A637B697D
:1029F0004FF480125A637B68002B16D07B691A69EA
:102A00000D4B13407A68127802F00F017A68527801
:102A1000120402F4702211437A689278120202F4CE
:102A200070620A431A437B691A61002318461837FB
:102A3000BD4680BD00800D40F0F0F0FF80B588B04D
:102A400000AF78600B46FB701346BB70FB785A00F2
:102A5000BB781344BB610023BB600023FB607A6832
:102A6000BB6904339B0013445B6823F01F03FB61C5
:102A7000A2E0BB68002B0CD1FB699B687B617A6983
:102A8000524B1340FA69928BC2F30B0292B213437A
:102A9000BB60FB695B68DBB25BB2002B03DA4FF013
:102AA000FF33FB600DE0FB69DB69C3F312331A46A9
:102AB000FB695B68C3F30E439BB2D21AFB681344F5
:102AC000FB607A68BB6904339B0013445A687968D9
:102AD000BB690C339B000B445B689A421CD17A683B
:102AE000BB6904339B00134400225A607A68BB69B7
:102AF0000C339B00134400225A607B689A68BB69C0
:102B00009B01134401229A607B689A68BB699B0110
:102B100013440022DA600DE07A68BB6904339B003D
:102B200013445B681B6819467A68BB6904339B00D1
:102B300013445960FB695B68C3F3C033DBB2002BFD
:102B400009D17A68BB6904339B0013445B6823F0A6
:102B50001F03002B14D1BB78DB01DAB2FB781343DF
:102B6000DBB23B7400237B747B681B6807F10802AF
:102B70001146184606F031FD0023BB600023FB60C0
:102B8000FB6900225A607B681B691A46FB691A6060
:102B90007B68FA691A617B6893F854300133DAB2C2
:102BA0007B6883F854207A68BB6904339B00134424
:102BB0005B6823F01F03FB61FB69002B7FF459AFB7
:102BC00000BF00BF2037BD4680BD00BF00F0FFFF43
:102BD00080B58CB000AF78607B685B68D3F8AC31AF
:102BE0007B627B6A002B50D0002387F82B3048E0B3
:102BF00097F82B307A6A22FA03F303F00103002BD3
:102C00003AD07B689A6897F82B305B00DBB29B0167
:102C1000134430333B623B6AFB61FB691B78DB0981
:102C200087F82A3097F82A2097F82B3019467868C9
:102C3000FFF704FF97F82A3083F00103DAB297F820
:102C40002B3019467868FFF7F9FE97F82B303B7464
:102C5000FB69BB600823FB6001237B7497F82B3072
:102C60001946786805F001FE7B681B6807F10802C9
:102C70001146184606F0B1FC97F82B30013387F85F
:102C80002B3097F82B30032BB2D97B685B68D3F8D5
:102C9000BC317B627B685B687A6AC3F8BC217B6A63
:102CA000002B00F0A681002387F829309CE197F8DB
:102CB00029307A6A22FA03F303F00103002B00F0B3
:102CC0008E8197F829300F2B08D997F82930103BBF
:102CD00087F82B30012387F82A3006E097F829304F
:102CE00087F82B30002387F82A3097F82B30032BF6
:102CF00000F2728197F82B305B00DAB297F82A3035
:102D00001344FB760023BB600023FB6097F82B3055
:102D1000002B23D197F82A30012B1FD17B689A68AA
:102D2000FB7E9B01134493F8383003F00203DBB2BF
:102D3000002B13D07B689A68FB7E9B0113441B68B1
:102D4000C3F34073DBB2002B08D17B689A68FB7E2B
:102D50009B011A44136843F000531360FB7E7A68AA
:102D600004339B0013445B6823F01F03FB622EE1D6
:102D7000002387F82830FB7E7A6804339B001344D5
:102D80005B6823F01F03FB6222E0FB6A5B68DBB237
:102D90005BB2002B06DBFB6A5B68C3F3C033DBB2BC
:102DA000002B10D0FB6A5B68DBB25BB2002B13DB3D
:102DB000FB6A5B68C3F3C033DBB2002B0CD001238A
:102DC00087F8283008E0FB6A1B6823F01F03FB62CA
:102DD000FB6A002BD9D100E000BF97F82830002B08
:102DE00003D1FB6A002B40F0F980FB7E7A68043344
:102DF0009B0013445B6823F01F03FB62E3E0FB6A64
:102E00005B68DBB25BB2002B00DAE0E0BB68002B52
:102E10000AD1FB6A9A68794B1340FA6A928BC2F323
:102E20000B0292B21343BB60FB6ADB69C3F312333C
:102E30001A46FB6A5B68C3F30E439BB2D21AFB6867
:102E40001344FB60FB7E7A6804339B0013445A688A
:102E5000FB7E79680C339B000B445B689A421CD163
:102E6000FB7E7A6804339B00134400225A60FB7E89
:102E70007A680C339B00134400225A607B689A687E
:102E8000FB7E9B01134401229A607B689A68FB7E5B
:102E90009B0113440022DA600DE0FB7E7A68043364
:102EA0009B0013445B681A68FB7E11467A68043302
:102EB0009B0013445960FB6A5B68C3F3C033DBB209
:102EC000002B09D1FB7E7A6804339B0013445B68B6
:102ED00023F01F03002B16D197F82A30DB01DAB25A
:102EE00097F82B301343DBB23B7400237B747B6871
:102EF0001B6807F108021146184606F06EFB002316
:102F0000BB600023FB60FB6A00225A607B681B6980
:102F10001A46FB6A1A607B68FA6A1A617B6893F842
:102F200054300133DAB27B6883F85420FB7E7A6830
:102F300004339B0013445B6823F01F03FB62FB6AAE
:102F4000002B40D0FB6A5B68DBB25BB2002B3ADA45
:102F500097F82B2097F82A301B011344012202FA1C
:102F600003F37B617B685B687A69C3F8B0217B6897
:102F70005B68D3F8B8217B691340002B23D100BFD5
:102F80007B685B68D3F8B0217B691340002BF7D1D5
:102F90007B685B68D3F8B8217B691340002B12D1A2
:102FA0007B689A68FB7E9B011344FA6A9A607B688F
:102FB0009A68FB7E9B0113440022DA607B685B68A1
:102FC0007A69C3F8B021FB6A002B7FF418AFFB6A63
:102FD000002B7FF4CDAE02E000BF00E000BF97F809
:102FE0002930013387F8293097F829301F2B7FF6D5
:102FF0005EAE00BF3037BD4680BD00BF00F0FFFFB2
:1030000080B592B000AFF8607A603B600B46FB720F
:10301000FB7A5B0003F01E03FA7AD209D2B21343A3
:10302000BB62FB7A03F00F02FB7ADB0803F01003AC
:103030001343012202FA03F37B627B6A3B640023A1
:10304000BB633A6843F6FF7313449B0B7B63002317
:1030500087F83330012387F832300023FB620023E6
:103060003B61FB68002B01D103239FE1FB689A6859
:10307000BB6A9B01134493F8383003F00103DBB2C1
:10308000002B01D1012391E1FB6893F85630002B0E
:1030900001D001238AE17B6B002B01D101237B63EB
:1030A00007F11003184607F091FDFB6893F85430C0
:1030B0001A467B6B934205D93B69184607F093FD8E
:1030C000022373E13B68B3F5804F03D94FF480438B
:1030D000FB6301E03B68FB633A68FB6BD31A3B6020
:1030E000FB681B693B623B6A1B681A46FB681A61F6
:1030F000FB6893F85430013BDAB2FB6883F8542044
:10310000BB6B002B01D13B6A7B643B6A01221A60D6
:103110003B6A00225A607A68BB6B13441A463B6ACA
:103120009A603B6A9B6803F58052A24B13403A6A4F
:10313000D3603B6ADB6803F580523B6A1A613B6AE5
:103140001B6903F580523B6A5A613B6A5B6903F570
:1031500080523B6A9A61FB6BC3F30E0399B23A6AE1
:10316000536861F31E435360FB6BC3F312013A6A69
:10317000D36961F31E33D3613B6A9B68C3F30B03CE
:1031800099B23A6A938B61F30B0393833A6AD37FC4
:103190006FF3C713D3773B68002B04D13A6A5368A7
:1031A00043F4004353603A6A5368802161F3070394
:1031B0005360BA6BFB6B1344BB63FA68BB6A0C3396
:1031C0009B0013445B68002B0FD0FA68BB6A0C337A
:1031D0009B0013445B683A6A1A60FA68BB6A0C3356
:1031E0009B0013443A6A5A6010E0FA68BB6A0433E1
:1031F0009B0013443A6A5A60FA68BB6A0C339B001E
:1032000013443A6A5A60012387F833303B68002B35
:103210007FF458AFFB7A03F00F03002B43D1FB7A06
:10322000DB09DBB2012B3ED1FB7A03F00F03DBB2EB
:103230005B00FB77FB689A68FB7F9B01134430338C
:10324000BB61BB697B61FB689A68BB6A9B011344E5
:1032500093F8383003F00203DBB2002B23D0FB6B72
:10326000002B20D07B69DB881A46FB6B93421AD275
:10327000FB689A68BB6A9B0113441B68C3F30A434B
:103280009BB21A46FB6BB3FBF2F101FB02F29B1AF5
:10329000002B08D1FB689A68BB6A9B011A4413682B
:1032A0006FF35D73136097F83330002B35D1FB68F3
:1032B0005B68D3F8B0217B6A1340002B1FD03B69B9
:1032C000184607F090FC002370E0FB685B68D3F8B9
:1032D0004021FB685B6842F48042C3F84021FB68F0
:1032E0005B68D3F8B8313B64FB685B68D3F8403166
:1032F00003F48043002B02D0002387F8323097F884
:103300003230002BE1D1FB685B68D3F84021FB68C9
:103310005B6822F48042C3F8402197F83330002BD9
:1033200004D13A6C7B6A1340002B3AD1FB689A684F
:10333000BB6A9B0113447A6C9A60FB689A68BB6A0B
:103340009B0113440022DA60BFF34F8F00BFFB687C
:103350005B687A6AC3F8B02119E0FB6A0133FB624B
:10336000FB6A154A934205D13B69184607F03BFCBE
:1033700001231BE0FB685B68D3F8BC217B6A134028
:10338000002B0DD1FB685B687A6AC3F8B021FB683B
:103390005B68D3F8B8217B6A1340002BDDD000E0D6
:1033A00000BF3B69184607F01EFC0023184648374B
:1033B000BD4680BD00F0FFFF8096980080B485B0C8
:1033C00000AF78600023FB7315E0FB7B0F4AD35CF2
:1033D000002B0DD1FB7B0D4A0121D1547B68FA7B78
:1033E0001A70FB7B5C2202FB03F3094A134406E0DC
:1033F000FB7B0133FB73FB7B002BE6D000231846DD
:103400001437BD465DF8047B704700BF30160020BE
:10341000D415002080B58AB000AF0346B9607A6049
:10342000FB7300237B623F4A07F1180392E8030015
:1034300083E80300FB7B012B03D9FB7B023B012BC1
:1034400001D9062369E007F117031846FFF7B6FF15
:1034500078627B6A002B01D103235EE0FB7D5B0277
:10346000314A1A447B6ADA60FB7DDB022F4A13443F
:103470003B627B6A3A6A9A607B6AFA7B83F85720E0
:10348000FB7B023B9B0028333B4453F8103C1A461D
:103490007B6A5A607B6A5B68D3F840217B6A5B6811
:1034A00042F00202C3F8402100BF7B6A5B68D3F898
:1034B000403103F00203002BF7D17B6A5B68D3F83D
:1034C0002431DBB203F01F03DAB27B6A83F85520A4
:1034D0007B6A93F85530032B01D801231DE07B6AEA
:1034E000BA681A607B6A5B68D3F8A8217B6A5B685C
:1034F00022F00302C3F8A8217B6A5B68D3F8A821F5
:103500007B6A5B6842F00202C3F8A821786A04F083
:10351000F4FE7B687A6A1A60002318462837BD4695
:1035200080BD00BF24B30060000C00200008002014
:1035300080B485B000AF78607B68BB607B68002B8F
:1035400001D103232FE00023FB730FE0FB7B5C2200
:1035500002FB03F3174A1344BA689A4203D1FB7B78
:10356000154A0021D154FB7B0133FB73FB7B002BFD
:10357000ECD0BB685B680022C3F84821BB685B687D
:10358000D3F84021BB685B6822F00102C3F84021F8
:10359000BB685B68D3F84021BB685B6842F00202FD
:1035A000C3F84021002318461437BD465DF8047B5C
:1035B000704700BFD41500203016002080B58CB0B5
:1035C00000AF78600B46FB707B687B62FB7803F092
:1035D0000F02FB78DB0803F010031343012202FA09
:1035E00003F33B62FB785B00DBB203F01E03DAB24D
:1035F000FB78DB09DBB21343FB77002387F82B3022
:103600000023FB607B68002B01D10323EAE007F174
:103610000C03184607F0DAFA00233B614FF0FF3342
:103620007B61FB7F7A6A04339B0013445B6823F061
:103630001F03FB6209E0FA6AD37F43F08003D3776C
:10364000FB6A1B6823F01F03FB62FB6A002BF2D1AD
:10365000FB7F7A6A04339B0013445B6823F01F03EB
:10366000FB6291E0FB6ADB7F23F07F03DBB2002B80
:1036700000F08F80FB6A5B68DBB25BB2002B1ADA6A
:103680007B6A5B68D3F8B4117B6A5B683A6A0A4369
:10369000C3F8B42100BF7B6A5B68D3F8B4213B6AEE
:1036A0001340002BF7D17B6A5B68D3F8B8213B6AE3
:1036B0001340002BE4D13B69002B0AD1FB6A9A68C6
:1036C0004A4B1340FA6A928BC2F30B0292B2134335
:1036D0003B61FB7F7A6A04339B0013445A68FB7F8B
:1036E000796A0C339B000B445B689A420ED1FB7FD6
:1036F0007A6A04339B00134400225A60FB7F7A6A83
:103700000C339B00134400225A600DE0FB7F7A6A61
:1037100004339B0013445B681A68FB7F11467A6A86
:1037200004339B0013445960FB6A5B68C3F3C033E6
:10373000DBB2002B09D1FB7F7A6A04339B00134470
:103740005B6823F01F03002B02D1012387F82B3085
:10375000FB6A00225A607B6A1B691A46FB6A1A6080
:103760007B6AFA6A1A617B6A93F854300133DAB2E1
:103770007B6A83F85420FB7F7A6A04339B001344EE
:103780005B6823F01F03FB62FB6A002B7FF46AAFC8
:1037900000E000BFFB6A002B0DD17B6A9A68FB7FBB
:1037A0009B01134401229A607B6A9A68FB7F9B010C
:1037B00013440022DA60FB68184607F014FA97F801
:1037C0002B30002B0DD0FB783B7600237B767B6A79
:1037D0001B6807F110021146184605F0FEFE002393
:1037E0003B61002318463037BD4680BD00F0FFFF27
:1037F00080B58AB000AFF8600B467A60FB72FB6858
:103800003B62012387F82730FB68002B01D103239B
:1038100036E1FB7A142B00F2208101A252F823F04A
:103820007538006091380060AD380060C5380060C0
:10383000E538006005390060253900603F390060D7
:10384000F13900605B3A00605B3A00605B3A00600F
:103850005B3A00605B3A0060F93900603F3A006013
:103860005B3A00605B3A00605B3A00605B3A006084
:10387000CD3900603B6A5B68D3F840213B6A5B68E6
:1038800042F00102C3F84021002387F82730F5E019
:103890003B6A5B68D3F840213B6A5B6822F0010217
:1038A000C3F84021002387F82730E7E07B68002B2E
:1038B00000F0D5807968386A04F0B8FD034687F8CF
:1038C0002730CCE07B68002B00F0CB807B68FB616D
:1038D000FB691B781946386A04F0AAFE034687F88C
:1038E0002730BEE07B68002B00F0BD807B68FB6169
:1038F000FB691B781946386A04F015FF034687F800
:103900002730B0E07B68002B00F0AF807B68FB6164
:10391000FB691B781946386A04F04AFF034687F8AA
:103920002730A2E07B68002B00F0A1807B683B6120
:103930003B6901221A80002387F8273097E07B68D3
:10394000002B00F096807B68BB61BB691B7803F09D
:103950000F03FB75BB691B78DB09BB75FB7D032B74
:1039600000F28780FB7D002B18D03B6A5A68FB7DF4
:10397000013B70339B0013445B68BA7D002A02D080
:103980004FF4803200E001221340002B14BF0123CA
:103990000023DBB29AB2BB695A8013E03B6A5B68D2
:1039A000D3F8C031BA7D002A02D04FF4803200E053
:1039B00001221340002B14BF01230023DBB29AB273
:1039C000BB695A80002387F8273052E07B68002BC0
:1039D00051D07B68FB61FB691B785A063B6A5B68C8
:1039E00042F08072C3F85421002387F8273042E068
:1039F000002387F8273041E0002387F8263013E0C2
:103A000097F8263063F07F03DBB21946386A04F07A
:103A10000FFE97F826301946386A04F009FE97F829
:103A20002630013387F8263097F82630032BE7D964
:103A3000386A04F062FC002387F827301EE07B68B8
:103A4000002B1AD07B68FB613B6A93F85820FB6916
:103A50001A70002387F827300FE000BF0EE000BF88
:103A60000CE000BF0AE000BF08E000BF06E000BFB6
:103A700004E000BF02E000BF00E000BF97F827307D
:103A800018462837BD4680BD90B5A7B002AFF86094
:103A9000B9607A600023BB6700237B67052387F842
:103AA0008F30002387F87330BB685B68B3F1FF3F4A
:103AB00002D07B68002B02D197F88F30D0E17B6871
:103AC000C7F88830D7F888309B68C7F88430D7F8B3
:103AD0008430C7F8803007F173031A460621F8686E
:103AE00000F08CFABB681B7A002B00F04081BB68A9
:103AF0005B68082B03D1BB681B68002B02D197F8C9
:103B00008F30ADE1BB681B68C7F88430D7F88430CC
:103B1000FB67FB6F5A88D7F880305A80FB6F9A8812
:103B2000D7F880309A80FB6FDA88D7F88030DA8057
:103B3000FB6F5A78D7F880305A70FB6F1A78D7F835
:103B400080301A70D7F880301B7803F01C03002BEC
:103B50000DD0002301930023009300230522D7F802
:103B60008010F86805F05BFB97F88F3078E1D7F8A4
:103B700080301B7803F06003002B23D1D7F880300E
:103B80005B780C2B00F2D880D7F880305B781A462F
:103B9000B54B53F82230002B00F0CE80D7F88030A0
:103BA0005B781A46B04B53F8224007F1740307F1D3
:103BB0007802D7F88010D7F88800A047034687F826
:103BC0008F30B9E0D7F88030DB88002B71D0D7F880
:103BD00080301B785BB2002B6BDBD7F88030DB8842
:103BE000002B21D0D7F880301B7803F06003202B06
:103BF0001AD100237B66012387F86C30D7F8803018
:103C00003B66D7F88030DB88BB6607F160031A4655
:103C10000121F86801F0DAF9034687F88F30BB6EAE
:103C20007B677B6EBB6725E0D7F88030DB88002B95
:103C300020D0D7F880301B7803F06003402B19D1D7
:103C400000237B65012387F85C30D7F880303B6523
:103C5000D7F88030DB88BB6507F150031A46132183
:103C6000F86806F0CAF8034687F88F30BB6D7B67AB
:103C70007B6DBB6797F88F30002B16D1D7F880305B
:103C8000DB881A467B6F9A4203D2D7F88030DB88F4
:103C90007B67BA6F7B6F0021F86805F0BBFD0346B8
:103CA00087F88F3097F88F30DAE0052387F88F3068
:103CB00042E0D7F880301B7803F06003202B1AD144
:103CC00000237B64012387F84C30D7F880303B64B5
:103CD000D7F88030DB88BB6407F140031A46012126
:103CE000F86801F073F9034687F88F30BB6C7B6787
:103CF0007B6CBB6720E0D7F880301B7803F0600353
:103D0000402B19D100237B63012387F83C30D7F87F
:103D100080303B63D7F88030DB88BB6307F130032A
:103D20001A461321F86806F068F8034687F88F30C2
:103D3000BB6B7B677B6BBB677B6F002B05D0BB6F5F
:103D4000002B02D1052387F88F3097F88F2007F1D9
:103D50007403019307F1780300930023D7F88010D0
:103D6000F86805F05CFA034687F88F3076E097F83C
:103D70007330032B18D1D7F880305B78052B6DD1C9
:103D8000D7F880305B781A46374B53F8224007F15A
:103D9000740307F17802D7F88010D7F88800A0479D
:103DA000034687F88F3059E0BB685B68002B55D01D
:103DB000D7F88030DB88002B50D0D7F880301B78C4
:103DC0005BB2002B4ADBD7F880301B7803F060032E
:103DD000202B16D1BB681B687B62002387F82C3030
:103DE000D7F880303B62BB685B68BB6207F1200399
:103DF0001A460121F86801F0E9F8034687F88F3088
:103E00001BE0D7F880301B7803F06003402B14D1FF
:103E1000BB681B687B6100233B77D7F880303B6130
:103E2000BB685B68BB6107F110031A461321F86891
:103E300005F0E3FF034687F88F3097F88F2007F1EE
:103E40007403019307F1780300930123D7F88010DE
:103E5000F86805F0E4F9034687F88F3097F88F305B
:103E600018469437BD4690BD2CB3006080B588B02D
:103E700000AF786039601B4BFB603B683B610123FE
:103E80003B770023FB7600237B778023BB764023A0
:103E90003B8307F10C0207F118031946786805F017
:103EA000CFFC0346FB77FB7F002B01D0FB7F15E0A7
:103EB0000023BB7607F10C0207F118031946786856
:103EC00005F0BEFC0346FB77FB7F002B05D080216D
:103ED000786805F014FDFB7F00E0002318462037CA
:103EE000BD4680BD893A006080B584B000AF03460E
:103EF0003960FB710023BB6007F10803184606F028
:103F000065FE0023FB601FE02C49FA6813461B0185
:103F10009B1ADB000B4408331B68002B11D0274988
:103F2000FA6813461B019B1ADB000B4475331B78A0
:103F3000FA799A4205D1BB68184606F054FE01236F
:103F400037E0FB680133FB60FB68002BDCD000230B
:103F5000FB6026E01949FA6813461B019B1ADB0037
:103F60000B4408331B68002B18D11449FA68134618
:103F70001B019B1ADB000B447533FA791A70FA683F
:103F800013461B019B1ADB000C4A1A443B681A605B
:103F9000BB68184606F027FE00230AE0FB680133E1
:103FA000FB60FB68002BD5D0BB68184606F01BFEF3
:103FB000022318461037BD4680BD00BF000E00200A
:103FC00080B485B000AF03463960FB710623FB73F4
:103FD000FB79BB73BB7B022B02D0BB7B032B04D1D1
:103FE0003B68054A1A600023FB73FB7B18461437B5
:103FF000BD465DF8047B704760B3006080B586B055
:1040000000AFF8600B467A60FB720123FB757B689A
:10401000002B01D1042353E0FB7A023B062B4DD841
:1040200001A252F823F000BF4540006055400060F7
:104030008D4000609D4000606540006079400060F8
:10404000AD4000607A680F21F86805F0D5F90346A5
:10405000FB7534E07A681021F86805F0CDF9034665
:10406000FB752CE07B683B610023FB75FB6893F8D4
:1040700076203B691A7022E07B683B610023FB7568
:10408000FB6893F874203B691A7018E07A6806217F
:10409000F86805F0B1F90346FB7510E07A6807216E
:1040A000F86805F0A9F90346FB7508E07A6809216C
:1040B000F86805F0A1F90346FB7500E000BFFB7D41
:1040C00018461837BD4680BD80B586B000AFF86091
:1040D0000B467A60FB720123FB75FB7A033B0B2BCB
:1040E00074D801A252F823F019410060CD4100605C
:1040F000CD410060294100603F410060CD4100603A
:10410000CD410060AD410060BD4100608D41006067
:10411000CD4100609D4100607A681121F86805F08A
:104120006BF90346FB7556E07B68002B50D00023EB
:10413000FB757B681A78FB6883F8762048E0FB689B
:1041400093F87630032B17D07B68002B42D00023E6
:10415000FB757B681A78FB6883F87420FB68032280
:1041600083F87620FB6874331A461421F86805F04A
:1041700043F90346FB752DE0FB6874331A460821AA
:10418000F86805F039F90346FB7523E07A680A21DF
:10419000F86805F031F90346FB751CE07A680B21DD
:1041A000F86805F029F90346FB7514E07A680C21DC
:1041B000F86805F021F90346FB750CE07A680D21DB
:1041C000F86805F019F90346FB7504E000BF02E04A
:1041D00000BF00E000BFFB7D18461837BD4680BD1C
:1041E00080B485B000AF78600023FB6017E0114910
:1041F000FA6813469B0013441B010B441B68002BF9
:104200000AD1FA6813469B0013441B01094A1A4459
:104210007B681A60002306E0FB680133FB60FB68E3
:10422000002BE4D0022318461437BD465DF8047B0A
:10423000704700BF3416002080B58EB000AF7860A4
:1042400000237B63012387F833307B68002B02D186
:1042500097F83330C1E10023BB617B6893F84C30A1
:10426000002B08D07B6893F84C207B685B689B68C8
:104270005B799A4202D997F83330AEE17B685B688C
:104280009B681A687B6893F84C3019466FF060435E
:104290000B44DB0013447B620023FB624DE07B6A2E
:1042A0005968FA6A13465B0013449B000B441B7861
:1042B000022B3FD10023BB6222E07B6A5968FA6A75
:1042C00013465B0013449B000B445A68BB6A1B01F6
:1042D00013441A787B6893F84E309A420DD17B6A6A
:1042E0005968FA6A13465B0013449B000B445A68F2
:1042F000BB6A1B0113447B630FE0BB6A0133BB62E3
:104300007B6A5968FA6A13465B0013449B000B44AE
:104310001B7A1A46BB6A9342CFD37B6A5968FA6A02
:1043200013465B0013449B000B44DA787B6883F8E8
:104330004D2008E0FB6A0133FB627B6A1B781A465A
:10434000FB6A9342ABD37B6B002B02D197F83330DF
:1043500043E17B687A6B9A600023FB6261E0002393
:104360003B757B6B9968FA6A13465B0013445B00EC
:104370000B441B797B757B6B9968FA6A13465B006B
:1043800013445B000B441B78BB747B6B9968FA6A1F
:1043900013465B0013445B000B445B883B827B6BE2
:1043A0009968FA6A13465B0013445B000B445B7820
:1043B000FB74BB7CDB09DBB2012B1AD1FB7C032B2A
:1043C00017D1BB7C03F00F03DAB27B6883F8492076
:1043D0007B68002283F84A207B686FF001021A6430
:1043E0007B68002283F848207B6800225A647D4B5A
:1043F000BB617B68FB617B681B6807F1180207F1F2
:104400001001184605F01CFA034687F8333097F878
:104410003330002B02D097F83330DEE0FB6A0133F3
:10442000FB627B6B1B791A46FB6A934297D300238E
:10443000FB6242E07B6A5968FA6A13465B001344E8
:104440009B000B441B780A2B34D10023BB6223E072
:104450007B6A5968FA6A13465B0013449B000B445D
:104460005A68BB6A1B0113441A787B6893F84E3074
:104470009A420ED17B6A5968FA6A13465B0013446C
:104480009B000B445A68BB6A1B0113447B6300BF4B
:1044900019E0BB6A0133BB627B6A5968FA6A13464A
:1044A0005B0013449B000B441B7A1A46BB6A934281
:1044B000CED308E0FB6A0133FB627B6A1B781A46A5
:1044C000FB6A9342B6D37B687A6BDA600023FB62A7
:1044D0007AE000233B737B6B9968FA6A13465B00B2
:1044E00013445B000B441B797B737B6B9968FA6AFE
:1044F00013465B0013445B000B441B78BB727B6B61
:104500009968FA6A13465B0013445B000B445B88AE
:104510003B817B6B9968FA6A13465B0013445B002E
:104520000B445B78FB72BB7ADB09DBB2012B1BD13E
:10453000FB7A022B18D1BB7A03F00F03DAB27B6847
:1045400083F821207B68002283F822207B686FF0AB
:1045500001029A617B68002283F820207B68002298
:10456000DA61214BBB611EE0BB7A5BB2002B1ADB28
:10457000FB7A022B17D1BB7A03F00F03DAB27B6808
:1045800083F835207B68002283F836207B686FF043
:104590000102DA627B68002283F834207B68002203
:1045A0001A63124BBB617B68FB617B681B6807F178
:1045B000180207F10801184605F042F9034687F88A
:1045C0003330FB6A0133FB627B6B1B791A46FB6A53
:1045D0009342FFF47EAF97F8333018463837BD4624
:1045E00080BD00BF3D9A0060919A0060E59A00602E
:1045F00080B598B000AFF860B9607A60012387F8A1
:104600005F30BB6887F857307B68002B02D0FB68AF
:10461000002B01D1032375E3FB683B6597F8573006
:10462000013B052B00F25F8301A252F823F000BF8B
:104630001D4A00604946006059460060A946006076
:1046400013470060F54700603B6D002283F84C2063
:10465000002387F85F3053E37B68FB643B6D5B6846
:10466000002B00F04283FB6C1A783B6D93F84C30C2
:104670009A4203D1002387F85F3041E3386D05F09B
:104680005BFA034687F85F30FB6C1A783B6D83F862
:104690004C203B6D002283F84E20386DFFF7CCFD97
:1046A000034687F85F302BE33B6D5B68002B00F01F
:1046B0001E837B681B88A7F84A30B7F84A3087F812
:1046C00049303B6D93F84D20B7F84A301B0A9BB236
:1046D000DBB29A4240F00D833B6D93F84E3097F871
:1046E00049209A4203D1002387F85F3008E3386DF0
:1046F00005F022FA034687F85F303B6D97F84920B2
:1047000083F84E20386DFFF797FD034687F85F303A
:10471000F6E23B6D5B68002B00F0ED823B6D9B6821
:10472000002B00F0E8823B6DDB68002B00F0E38299
:104730007B68FB640023BB651FE0FB6C19783B6D55
:104740009B689868BA6D13465B0013445B00034492
:104750001B7899420ED13B6D012283F848203B6DB6
:104760001A68FB6C1B781946104605F01EF90346C3
:1047700087F85F30BB6D0133BB653B6D9B681B7970
:104780001A46BB6D9342D8D30023BB652AE0FB6C6D
:1047900019783B6DDB689868BA6D13465B0013446B
:1047A0005B0003441B78994219D1FB6C1B78DB0931
:1047B000DBB2012B04D13B6D012283F8202003E002
:1047C0003B6D012283F834203B6D1A68FB6C1B782B
:1047D0001946104605F0E9F8034687F85F30BB6DCF
:1047E0000133BB653B6DDB681B791A46BB6D934299
:1047F000CDD385E23B6D5B68002B00F07C823B6D86
:104800009B68002B00F077823B6DDB68002B00F08B
:1048100072827B68FB640023BB6559E0FB6C1978EE
:104820003B6D9B689868BA6D13465B0013445B0050
:1048300003441B78994248D13B6D1A68FB6C1B7886
:104840001946104605F0C9F8034687F85F30FB6C3F
:104850001B78DB09DBB2012B37D13B6D93F8483075
:10486000002B32D03B6D002283F848203B6D1B6C3F
:1048700013F1020F29D03B6D18683B6D93F8491076
:104880003B6D1A6C3B6D5B6C04F0ABFF034687F825
:104890005F3097F85F30002B10D03B6D1B6CBB6214
:1048A0003B6D5B6CFB62002387F830303B6D1B680F
:1048B00007F12801FA68184605F0EAF83B6D6FF039
:1048C00001021A643B6D00225A64BB6D0133BB6563
:1048D0003B6D9B681B791A46BB6D93429ED30023A8
:1048E000BB6592E0FB6C19783B6DDB689868BA6D2C
:1048F00013465B0013445B0003441B78994240F06D
:1049000081803B6D1A68FB6C1B781946104605F0D8
:1049100064F8034687F85F30FB6C1B78DB09DBB279
:10492000012B38D13B6D93F82030002B6AD03B6DC2
:10493000002283F820203B6D9B6913F1020F61D0A8
:104940003B6D18683B6D93F821103B6D9A693B6D88
:10495000DB6904F046FF034687F85F3097F85F3065
:10496000002B10D03B6D9B69FB613B6DDB693B62AB
:10497000002387F824303B6D1B6807F11C01FA689F
:10498000184605F085F83B6D6FF001029A613B6DAA
:104990000022DA6136E03B6D93F83430002B31D0E1
:1049A0003B6D002283F834203B6DDB6A13F1020F6C
:1049B00028D03B6D18683B6D93F835103B6DDA6A73
:1049C0003B6D1B6B04F026FF034687F85F3097F8BA
:1049D0005F30002B0FD03B6DDB6A3B613B6D1B6B87
:1049E0007B6100233B763B6D1B6807F11001FA6881
:1049F000184605F077F83B6D6FF00102DA623B6D07
:104A000000221A63BB6D0133BB653B6DDB681B790C
:104A10001A46BB6D9342FFF465AF71E17B687B641E
:104A20007B6C1B681B7803F01F03012B40F0658132
:104A30007B6C1B689B88DBB23A6D92F84D209342E9
:104A400040F05D81052387F85F307B6C04337B6326
:104A50007B6C0833BB637B6C1B689B88BB877B6C60
:104A60001B685B88FB877B6C1B7B87F840307B6C0B
:104A70001B685B78232B00F2228101A252F823F0FD
:104A8000114B0060434B0060754B0060A74B00600A
:104A9000D94B0060BF4C0060BF4C0060BF4C006051
:104AA000BF4C0060BF4C0060BF4C0060BF4C00605A
:104AB000BF4C0060BF4C0060BF4C0060BF4C00604A
:104AC000BF4C0060BF4C0060BF4C0060BF4C00603A
:104AD000BF4C0060BF4C0060BF4C0060BF4C00602A
:104AE000BF4C0060BF4C0060BF4C0060BF4C00601A
:104AF000BF4C0060BF4C0060BF4C0060BF4C00600A
:104B0000354C0060074C0060634C0060914C0060C5
:104B10007B6C1B681B785BB2002BC0F2D2807B6C75
:104B20001B68DB88002B00F0CC803B6D5B681B684A
:104B300007F134020421386D9847034687F85F3047
:104B4000BFE07B6C1B681B785BB2002B80F2BB80E4
:104B50007B6C1B68DB88002B00F0B5803B6D5B68CD
:104B60001B6807F134020521386D9847034687F822
:104B70005F30A8E07B6C1B681B785BB2002BC0F237
:104B8000A4807B6C1B68DB88002B00F09E803B6D53
:104B90005B681B6807F134020621386D98470346AD
:104BA00087F85F3091E07B6C1B681B785BB2002B51
:104BB00080F28D807B6C1B68DB88002B00F0878087
:104BC0003B6D5B681B6807F134020721386D98471D
:104BD000034687F85F307AE07B6C1B681B785BB21A
:104BE000002B76DB7B6C1B68DB88002B71D13B6D67
:104BF0005B681B6807F134020821386D984703464B
:104C000087F85F3065E07B6C1B681B785BB2002B1C
:104C100061DA7B6C1B68DB88002B5CD03B6D5B68CA
:104C20001B6807F134020921386D9847034687F85D
:104C30005F3050E07B6C1B681B785BB2002B4CDB59
:104C40007B6C1B68DB88002B47D03B6D5B681B6867
:104C500007F134020A21386D9847034687F85F3020
:104C60003BE07B6C1B681B785BB2002B37DB7B6CFB
:104C70001B68DB88002B32D13B6D5B681B6807F13A
:104C800034020B21386D9847034687F85F3026E0E1
:104C90007B6C1B681B785BB2002B22DB7B6C1B6878
:104CA000DB88002B1DD13B6D5B681B6807F134026C
:104CB0000C21386D9847034687F85F3011E000BF3C
:104CC0001EE000BF1CE000BF1AE000BF18E000BFFC
:104CD00016E000BF14E000BF12E000BF10E000BF0C
:104CE0000EE000BF0CE000BF0AE000BF08E000BF1C
:104CF00006E000BF04E000BF02E000BF00E000BF2C
:104D000097F85F3018466037BD4680BD80B584B0E7
:104D100000AF03463960FB710023BB6007F1080355
:104D2000184605F053FF0023FB6018E0284AFB6893
:104D30001B0113441B68002B0ED0254AFB681B0186
:104D400013440E331B78FA799A4205D1BB68184692
:104D500005F049FF012337E0FB680133FB60FB6886
:104D6000002BE3D00023FB6026E0194AFB681B01FF
:104D700013441B68002B1CD1154AFB681B0113440C
:104D80000E33FA791A70FB68DB00124A1A44104994
:104D9000FB681B010B4408331A60FB681B010C4ABB
:104DA0001A443B681A60BB68184605F01CFF0023D4
:104DB0000AE0FB680133FB60FB68002BD5D0BB68C1
:104DC000184605F010FF022318461037BD4680BD77
:104DD000841600209416002080B584B000AF0346EE
:104DE000FB710023FB600023BB6007F1080318463A
:104DF00005F0ECFE2CE01C4AFB681B0113441B6809
:104E0000002B22D0184AFB681B0113440E331B7879
:104E1000FA799A4219D1144AFB681B011344002203
:104E20001A60114AFB681B011344043300221A6004
:104E30000D4AFB681B0113440E3300221A70BB6835
:104E4000184605F0D0FE00230AE0FB680133FB6042
:104E5000FB68002BCFD0BB68184605F0C4FE0423C6
:104E600018461037BD4680BD8416002080B584B03A
:104E700000AF03463960FB710023FB600023BB6079
:104E800007F10803184605F0A1FE1EE0154AFB686D
:104E90001B0113441B68002B14D0124AFB681B0132
:104EA00013440E331B78FA799A420BD1FB681B012D
:104EB0000C4A1A443B681A60BB68184605F093FE1A
:104EC00000230AE0FB680133FB60FB68002BDDD0A8
:104ED000BB68184605F087FE042318461037BD4608
:104EE00080BD00BF8416002080B584B000AF78601C
:104EF00039600023FB600023BB6007F108031846FC
:104F000005F064FE16E0114AFB681B0113441B68A0
:104F10007A689A420BD1FB681B010C4A1A443B6821
:104F20001A60BB68184605F05EFE00230AE0FB68C5
:104F30000133FB60FB68002BE5D0BB68184605F029
:104F400052FE042318461037BD4680BD841600204B
:104F500080B584B000AF03463960FB710023FB606D
:104F60000023BB6007F10803184605F02FFE1FE081
:104F7000154AFB681B0113441B68002B15D0124A0D
:104F8000FB681B0113440E331B78FA799A420CD14B
:104F90000D4AFB681B0113441A683B681A60BB6822
:104FA000184605F020FE00230AE0FB680133FB6091
:104FB000FB68002BDCD0BB68184605F014FE042308
:104FC00018461037BD4680BD8416002090B587B0C6
:104FD00000AFF8600B467A60FB7201237B757B683B
:104FE000002B01D1042358E007F110031946F8689B
:104FF000FFF77AFF03463B753B7D002B01D004236E
:105000004BE00023BB7541E00023FB7536E0FB7DE0
:10501000244A1B0113440C3319783B695B681868F8
:10502000BA7D13465B0013449B0003449B681B79C5
:10503000994220D1FB7D1B4A1B01134408331C6895
:105040003B695B681968BA7D13465B0013449B009B
:105050000B445B68F97A7A681846A04703463B75AB
:105060003B7D052B01D1052317E03B7D002B09D1AA
:1050700000237B7506E0FB7D0133FB75FB7D002B78
:10508000C5D000E000BFBB7D0133BB753B695B68E9
:105090001B7ABA7D9A42B7D37B7D18461C37BD4632
:1050A00090BD00BF78B3006090B587B000AF0346F5
:1050B000B9607A60FB737B68002B06D0BB68002B5D
:1050C00003D0BB685B68002B01D1042370E007F1BB
:1050D0001002FB7B11461846FFF718FE03467B754E
:1050E0007B7D002B01D07B7D62E03B69BA685A6012
:1050F0003B691A46FB7B3049184604F08EFA03469A
:105100007B757B7D002B0AD03B691B68184604F039
:1051100047FBFB7B1846FFF75FFE7B7D48E00023E3
:10512000BB753AE00023FB7531E03B695B681968A9
:10513000BA7D13465B0013449B000B449B681A79AD
:10514000FB7D1E491B010B440C331B789A421BD17B
:10515000FB7D1A4A1B0113441C683B695B68196894
:10516000BA7D13465B0013449B00C8183B695B681B
:105170001968BA7D13465B0013449B000B441A1D4B
:10518000FB7B01461846A047FB7D0133FB75FB7D89
:10519000012BCAD9BB7D0133BB753B695B681B7AA8
:1051A000BA7D9A42BED33B691A687B681A607B7DE0
:1051B00018461C37BD4690BDFB9D006078B300606B
:1051C00080B483B000AF78600B4A7B6843F0010382
:1051D00053600A4B5B6A094A43F480335362BFF35E
:1051E0004F8F00BFBFF36F8F00BF00BF0C37BD46AE
:1051F0005DF8047B704700BF90ED00E000ED00E03B
:1052000080B400AFBFF35F8F00BF084B5B6A074AF3
:1052100023F480335362064B5B68054A23F0010395
:10522000536000BFBD465DF8047B704700ED00E0B1
:1052300090ED00E080B586B000AFBFF34F8F00BFA8
:10524000BFF36F8F00BF684B5B69674A23F400337D
:105250005361654B0022C3F85022BFF34F8F00BF4C
:10526000BFF36F8F00BF00BF5F4B0022C3F88420E5
:10527000BFF34F8F00BF5C4B5B695B4A23F4803305
:105280005361BFF34F8F00BF574A3B1DC2F87032C6
:10529000554A3B46C2F87032534A07F10803C2F838
:1052A0007032BFF34F8F00BFBFF36F8F00BF4E4B05
:1052B000D3F88030BB60BB685B0BC3F30E037B602D
:1052C000BB68DB08C3F309033B607B685A0143F604
:1052D000E07313403A68920743491343C1F87432AC
:1052E0003B685A1E3A60002BEFD17B685A1E7A60E9
:1052F000002BE5D1BFF34F8F00BFBFF36F8F00BF0F
:1053000000BFFFF77DFF394B394ADA60374B394A26
:105310001A610420FFF754FF334B5B6903F48033B9
:10532000002B38D1304B0022C3F88420BFF34F8FBD
:1053300000BF2D4BD3F880307B617B695B0BC3F3DF
:105340000E033B617B69DB08C3F30903FB603B6928
:105350005A0143F6E0731340FA6892072249134357
:10536000C1F86032FB685A1EFA60002BEFD13B692E
:105370005A1E3A61002BE5D1BFF34F8F00BF1A4B85
:105380005B69194A43F480335361BFF34F8F00BF09
:10539000BFF36F8F00E000BF134B5B6903F4003372
:1053A000002B1BD1BFF34F8F00BFBFF36F8F00BF28
:1053B0000D4B0022C3F85022BFF34F8F00BFBFF345
:1053C0006F8F00BF084B5B69074A43F4003353619A
:1053D000BFF34F8F00BFBFF36F8F00E000BF00BF70
:1053E0001837BD4680BD00BF00ED00E090ED00E045
:1053F000170000803100070380B582B000AF0D4A6E
:105400003B1D1268114619800233120C1A700A49AA
:10541000002000F0D5F80849002000F093F83B1D6B
:105420001A4606490220FDF7A5FA00BF0837BD4617
:1054300080BD00BF98B3006000389C1C00366E0130
:1054400080B582B000AF01F0A1FBFFF7F3FE05F0DD
:1054500017FDFFF7D1FF0023022200210220FDF7F4
:105460002BF9064802F0FCFB02F01EFC0346FB7120
:10547000FB79184602F00AFCF6E700BF9CB3006017
:1054800080B582B000AF0346FB71FB7983F0010366
:10549000DBB2002B02D11348FCF78CFF124B4FF00C
:1054A0008042C3F8582100BF0F4BD3F8703203F489
:1054B0008033002BF8D00C4B4FF48032C3F85421CA
:1054C00000BF094BD3F8503103F40043002BF8D050
:1054D000054B4FF48032C3F8582100BF0837BD4652
:1054E00080BD00BFACB3006000800D4080B483B0CD
:1054F00000AF0346FB71FB79002B04D1074B102250
:10550000C3F8742203E0054B1022C3F8782200BFD1
:105510000C37BD465DF8047B704700BF00800D402E
:1055200080B400AF064BD3F87032054A43F0010354
:10553000C2F8703200BFBD465DF8047B704700BF03
:1055400000800D4080B485B000AF03463960FB7128
:10555000164BD3F88030154A43F00303C2F880306D
:10556000134BD3F84031124A43F00203C2F84031E2
:105570000023FB6003E000BFFB680133FB60FB68B6
:105580000C4A9342F7D90C4BD3F820310B4A1A40FE
:10559000094941F201731343C1F820310123184630
:1055A0001437BD465DF8047B704700BF00C00F4054
:1055B00000002E407F1A060000800D40FEE0FFFF35
:1055C00080B582B000AF03463960FB71144B1B6994
:1055D00003F40053002B06D0114B1B69104A43F013
:1055E0004003136102E00F4800F0A2F80E4B1B6B62
:1055F0000D4A23F0004313630B4B1B6B0A4A23F045
:1056000080431363084B00221A60074B1B6B064A4A
:1056100043F4C6131363012318460837BD4680BD03
:1056200000800D40D0B3006000900D4080B483B086
:1056300000AF7860154B1B6823F4E0327B681B7960
:105640009B039BB21343114A43F4803313600F4B07
:105650001A680F4B13407A68126802F07F021343F6
:105660000A4A43F40053136000BF084B1B68002B29
:10567000FBDA064B1B68054A23F48033136000BF36
:105680000C37BD465DF8047B704700BF00800D40BD
:1056900080CFFFFF80B483B000AF7860224B1B6BDC
:1056A00023F4E0327B681B7B9B039BB213431E4AAF
:1056B00043F4803313631C4B1A6B1C4B13407A6802
:1056C000127802F001021343174A43F400531363A4
:1056D0007B685B68144A23F0404313657B689B68D2
:1056E000114A23F0404313667B685B8AC3F30E02C2
:1056F0007B681B7CDB039BB21A437B68DB891B0442
:10570000094913430B6400BF074B1B6B002BFBDAEB
:10571000054B1B6B044A23F48033136300BF0C3723
:10572000BD465DF8047B704700800D40FECFFFFF53
:1057300080B483B000AF7860154B1B6923F4E0326E
:105740007B685B789B039BB21343114A43F480331D
:1057500013610F4B1A690F4B13407A68127852008D
:1057600002F0020213430A4A43F44153136100BF9B
:10577000074B1B69002BFBDA054B1B69044A23F41A
:105780008033136100BF0C37BD465DF8047B704762
:1057900000800D40BDCFFFFF80B400AF034B00225F
:1057A0001A6200BFBD465DF8047B704700800D4063
:1057B00080B400AF044B4FF480521A6700BFBD465F
:1057C0005DF8047B704700BF00800D4080B400AFDF
:1057D000044B4FF48052C3F8E02000BFBD465DF893
:1057E000047B704700800D4080B485B000AF034655
:1057F0000A46FB711346BB71FB79FB60124BD3F871
:105800000021FB68DB00BF2101FA03F3DB431340F7
:10581000BB60FB68DB0080229A400B49BB681343E6
:10582000C1F80031BB7903F03F02FB68DB009A400E
:105830000549BB681343C1F8003100BF1437BD46AA
:105840005DF8047B704700BF00800D402DE9B04F2C
:1058500084B000AF786039607968002936D0796803
:10586000002088468146396800200A46034602FB2C
:1058700009F008FB03F10144A8FB02454B191D4642
:10588000154A4FF000032046294605F038FC024631
:105890000B46C7E90223D7E90223012B02D30F48A5
:1058A000FCF788FDD7E902014FF003024FF0000337
:1058B00005F025FC02460B4612EB020A43EB030BF4
:1058C000C7E902ABBB68184604F06EFD00BF103795
:1058D000BD46BDE8B08F00BF40420F00D4B30060AA
:1058E00080B500AF484BD3F88830474A43F4700383
:1058F000C2F88830444B454A9A60454B1B899BB29D
:10590000434A23F001039BB21381424B1B899BB294
:10591000404A23F001039BB213813D4B1B889BB28D
:1059200003F00403002B07D0394B1B889BB2384A85
:1059300023F004039BB21380364B1B889BB203F009
:105940000403002B07D0334B1B889BB2314A23F052
:1059500004039BB21380304B1B6803F40053002BED
:1059600003D02D4B2D4A5A6007E02B4B4CF22052AE
:105970005A60294B4DF628125A60274B4FF6FF729A
:105980009A60254B1B6823F0A003234A43F02003B1
:105990001360234B1B6803F00103002B05D0204B41
:1059A0001B681F4A23F001031360174B5B6903F464
:1059B0000033B3F5003F22D0134B5B6903F400338F
:1059C000002B1BD1BFF34F8F00BFBFF36F8F00BF02
:1059D0000D4B0022C3F85022BFF34F8F00BFBFF31F
:1059E0006F8F00BF084B5B69074A43F40033536174
:1059F000BFF34F8F00BFBFF36F8F00E000BF04F015
:105A0000E3FC00BF80BD00BF00ED00E000200060AF
:105A100000800B4000000D4000C00B4020C528D97D
:105A200010E000E080B483B000AF786039603B687C
:105A3000054A1A603B6812225A60002318460C3748
:105A4000BD465DF8047B70476000002080B483B0E1
:105A500000AF786039603B681B7A002B07D13B6848
:105A6000064A1A603B6843225A60002300E005237F
:105A700018460C37BD465DF8047B70477400002063
:105A800080B485B000AF786039603B689B7A002BAA
:105A900008D12A4B1A683B681A60284B5A683B6841
:105AA0005A6044E00023FB730323BB7317E03B6899
:105AB0001989224B9868FA7B13465B0013449B00BC
:105AC00003441B89994207D13B689B7A022B0AD871
:105AD0003B689B7ABB7306E0FB7B0133FB73FB7B6C
:105AE000002BE4D000E000BFBB7B032B01D10523DA
:105AF0001EE0124B9968FA7B13465B0013449B002F
:105B00000B441A68BB7B9B0013441A683B681A60FD
:105B10000A4B9968FA7B13465B0013449B000B44C5
:105B20005A68BB7B9B0013441A683B685A60002389
:105B300018461437BD465DF8047B704734010020D9
:105B400080B487B000AF78600B46FB707F4B7B6101
:105B50007F4BBB607DE07B695B78052B73D1FB7865
:105B6000022B38D17B699B785BB2002B0FDA7B6903
:105B70009B7803F00F03012B09D17B6907229A71EF
:105B80007B6900225A717B6910221A715BE07B6984
:105B90009B785BB2002B0CDA7B699B7803F00F03D8
:105BA000022B06D17B6902225A717B6900221A718D
:105BB00049E07B699B785BB2002B44DB7B699B7877
:105BC00003F00F03032B3ED17B6902225A717B69DC
:105BD00000221A7137E07B699B785BB2002B0FDAE9
:105BE0007B699B7803F00F03012B09D17B690822A5
:105BF0009A717B6900225A717B6910221A7122E026
:105C00007B699B785BB2002B0CDA7B699B7803F095
:105C10000F03022B06D17B6900225A717B69402257
:105C20001A7110E07B699B785BB2002B0BDB7B6900
:105C30009B7803F00F03032B05D17B6900225A7177
:105C40007B6940221A717B691B781A467B69134471
:105C50007B617A69BB689A42FFF47DAF00233B61A8
:105C60001AE0FB78022B0AD13A493A6913465B00E5
:105C700013445B000B44023310221A8009E03549BB
:105C80003A6913465B0013445B000B440233102255
:105C90001A803B6901333B613B69002BE1DD002346
:105CA000FB6048E0FB78022B22D12B49FA681346AF
:105CB0005B0013445B000B441B785BB2002B0BDAD8
:105CC0002549FA6813465B0013445B000B4402331A
:105CD0004FF400721A802BE01F49FA6813465B00EC
:105CE00013445B000B4402334FF400721A801FE030
:105CF0001949FA6813465B0013445B000B441B7898
:105D00005BB2002B0ADA1449FA6813465B001344AD
:105D10005B000B44023340221A8009E00E49FA6806
:105D200013465B0013445B000B44023340221A808D
:105D3000FB680133FB60FB68012BB3DD00231846D1
:105D40001C37BD465DF8047B704700BF740000201F
:105D5000B6000020040000200C00002080B588B0B0
:105D600000AFF860B9607A60FB700023BB8300234A
:105D7000FB77FB68002BFCD0BB68002BFCD07B685A
:105D8000002BFCD0FB68BB61BB699B697B617B69B5
:105D9000002BFCD000BFBB695B6A2F4A9342FAD14B
:105DA000FB78012B03D1BB69DB69002BF8D004F031
:105DB00012FB3861BB699B68002B05D0386904F081
:105DC0001BFB43F2225342E0BB69BA689A60BB698D
:105DD0007A68DA60BB6900221A61BB69FA781A75C1
:105DE0007B696433184604F0ABFF0346002B01D1F6
:105DF0000123FB777B696433B969184604F01EFB05
:105E0000386904F0F9FAFB7F002B09D0786904F0B7
:105E10002EFB0346BB83BB8B002B01D0BB8B16E054
:105E2000FB78002B12D10BE004F0F6FA0346002BAE
:105E300003D0786904F065FB02E0012004F03FFD27
:105E4000BB69DA68BB691B699A42EDD80023184622
:105E50002037BD4680BD00BF5457BBAA80B58AB06D
:105E600000AFF860B9607A60FB70FB68002BFCD073
:105E7000BB68002BFCD07B68002BFCD0FB687B62EE
:105E80007B6A9B693B623B6A002BFCD000BF7B6A4C
:105E90005B6A614A9342FAD1FB78012B03D17B6A9A
:105EA000DB69002BF8D004F096FAF8617B6A9B68F6
:105EB000002B05D0F86904F09FFA43F22253A6E0C4
:105EC0007B6ABA689A607B6A7A68DA607B6A0022C9
:105ED0001A617B6AFA781A753B6ADA6D3B6A9B6DC8
:105EE0001A443B6A1B6ED31ABB613B6A9A6DBB694D
:105EF000B3FBF2F101FB02F29B1ABB617B6A002249
:105F00001A611DE03B6A5A6D3B6A1B6E1A447B6A3C
:105F10001B69B9680B4412781A703B6A1B6E5A1CD5
:105F20003B6A1A663B6A1A6E3B6A9B6D9A4202D3C1
:105F30003B6A00221A667B6A1B695A1C7B6A1A61DB
:105F40007B6A1A697968BB698B4228BF0B469A4203
:105F5000D8D33B6ADA6D3B6A9B6D1A443B6A1B6E71
:105F6000D31ABB613B6A9A6DBB69B3FBF2F101FBCB
:105F700002F29B1ABB613B6A9A6DBB69D31A013B63
:105F8000BB61BB690022F968386A04F09BFA3B6B7D
:105F9000002B0AD07B6A1A693B6B1A607B6A00226D
:105FA0009A60F86904F028FA30E07B6A1A697B6A23
:105FB000DB689A421AD37B6A00229A60F86904F07F
:105FC0001BFAFB78012B14D17B6ADB69002B10D004
:105FD000BB683B617B6A1B697B617B6ADB697A6AB0
:105FE000106A07F110010022984702E0F86904F0F6
:105FF00003FAFB78002B09D102E0012004F069FCD0
:106000007B6ADA687B6A1B699A42F6D800231846D5
:106010002837BD4680BD00BF4452AABB80B584B0BE
:1060200000AF7860396043F22153FB813B68002B5D
:10603000FCD07B68002BFCD000BF7B68BB6000BF3E
:106040003B681B68002BFBD000BF3B685B68002BE4
:10605000FBD0C4220021B86804F021FF3B685A89B4
:10606000BB681A803B681A7ABB689A703B681A68EA
:10607000BB685A653B685A68BB689A653B681B7A7F
:10608000022B23D1BB6803F10C023B68DB68194685
:10609000104600F065FC0346FB81FB89002B17D1FD
:1060A000BB680C33BA680D49184604F022FD03465C
:1060B000FB81FB89002B0BD1BB680C33BA68084904
:1060C000184604F02EFD0346FB8101E000BF00E00E
:1060D00000BFFB8918461037BD4680BD03A600608F
:1060E0007BA6006080B586B000AF786039607B68C1
:1060F000002BFCD03B68002BFCD000BF7B687B6191
:106100003B683B6104F067F9F8607B699B685A1C47
:106110007B699A60F86804F06FF97B691B8848F620
:106120004172934204D13B697A699A6100230BE082
:106130002C220021386804F0B2FE3B697A699A612A
:106140003B69034A5A62002318461837BD4680BD92
:106150005457BBAA80B586B000AF78603960002381
:10616000FB827B68002BFCD03B68002BFCD000BF7F
:106170007B683B613B68FB603B691B8848F641726A
:10618000934204D1FB683A699A6100231CE004F051
:1061900022F9B8603B695B68002B03D043F22253BD
:1061A000FB820DE03B69FA685A602C2200213868B6
:1061B00004F075FEFB683A699A61FB68044A5A620A
:1061C000B86804F019F9FB8A18461837BD4680BD37
:1061D0004452AABB80B487B000AFF860B9607A605F
:1061E000FB68002BFCD0FB687B6100BF7B695B6AAE
:1061F000074A9342FAD17B697A681A627B69BA6866
:10620000DA61002318461C37BD465DF8047B7047F1
:106210005457BBAA80B487B000AFF860B9607A6009
:10622000FB68002BFCD0FB687B6100BF7B695B6A6D
:10623000074A9342FAD17B697A681A627B69BA6825
:10624000DA61002318461C37BD465DF8047B7047B1
:106250004452AABB80B483B000AF0346FB80B7F9B9
:106260000630002B0BDBFB8803F01F020749B7F950
:1062700006305B09012000FA02F241F8232000BF3A
:106280000C37BD465DF8047B704700BF00E100E0BD
:1062900080B483B000AF03463960FB80B7F90630A5
:1062A000002B0ADB3B68DAB20C49B7F90630120161
:1062B000D2B20B4483F800230AE03B68DAB2084903
:1062C000FB8803F00F03043B1201D2B20B441A7691
:1062D00000BF0C37BD465DF8047B704700E100E06D
:1062E00000ED00E080B58EB000AFF860B9607A6074
:1062F0009A4BFB62052387F83730994B1B68F96886
:10630000184604F068FBB862BB6A002B01D1052374
:10631000D7E17B687B627B683B62BB68DBB2013B99
:106320000B2B00F2C18101A252F823F05D630060E3
:10633000E763006041640060A9660060A9660060D0
:1063400091640060E3640060A966006025650060F8
:106350003D65006075650060A9660060BB6A93F8E2
:106360002C30DBB2012B40F0A1813B6A5B68002B33
:1063700015D03B6A5B687B4A5288B3FBF2F101FBA4
:1063800002F29B1A002B0AD1002300220221F86896
:1063900003F0A5FC034687F8373000BF86E1BB6AEF
:1063A00000221A77BB6ADB68002B00F07F81002394
:1063B000BB86BB6A5B693B61BB6A9B697B610023EF
:1063C00087F837303B6A5B68B3F1FF3F02D143F295
:1063D0002453BB86BB6ADB68BA6A1069BA8E07F1C0
:1063E0001001984762E1BB6A002283F82820BB6A4B
:1063F00093F82E30DBB2012B40F05A8100237B86CC
:10640000BB6A1B6A002B00F053813B6A1B683B612F
:106410003B6A5B687B61002387F837307B69B3F1A7
:10642000FF3F04D100237B6143F224537B86BB6A88
:106430001B6ABA6A506A7A8E07F11001984737E1F1
:10644000FB68002283F84F20BB6A93F82E30DBB242
:10645000002B19D0BB6A5B7FDBB2002B14D0BB6A68
:1064600000225A77BB6A01221A77BB6A9868BB6A16
:106470005A69BB6A9B69022103F031FC0346002B79
:1064800002D0BB6A00221A77002387F8373016E162
:106490007B6A5B89012B0FD17B6A1B7B012B07D1A8
:1064A0007B6A1B68304A1A607B6A5B6802221A604A
:1064B000002387F83730FDE07B6A5B89022B40F0D0
:1064C000F9807B6A1B7B012B07D17B6A1B68274AFB
:1064D0001A607B6A5B6802221A60002387F83730F3
:1064E000E8E07B6A5B89012B0BD17B6A1B681E4A43
:1064F0001A607B6A5B6802221A60002387F83730D3
:10650000DAE07B6A5B89022B40F0D6807B6A1B68ED
:10651000164A1A607B6A5B6802221A60002387F8B9
:106520003730C9E07B6A1B68114A1A607B6A5B6876
:1065300007221A60002387F83730C0E07B6A1B7B94
:10654000012B07D17B6A1B68094A1A607B6A5B686A
:1065500007221A60002387F83730B0E0B016002019
:10656000A41600200C000020A8160020AC16002065
:1065700044010020002387F837307B6A5B89DAB258
:10658000524B9A73FB6A9B7B03F00203002B07D0EC
:10659000FB6A1B8A43F002039AB2FB6A1A8206E086
:1065A000FB6A1B8A23F002039AB2FB6A1A82FB6A17
:1065B0009B7B03F00103002B07D0FB6A1B8A43F08F
:1065C00001039AB2FB6A1A8206E0FB6A1B8A23F077
:1065D00001039AB2FB6A1A82FB6A9B7B03F00103F8
:1065E000002B14BF01230023DAB2FB6A9A72FB6A04
:1065F000A1221A70FB6A20225A70FB6A00229A704C
:10660000FB6A0022DA70FB6A00221A71FB6A002220
:106610005A71FB6A02229A71FB6A0022DA717B6A64
:106620001B89DAB2FB6A1A71FB6A0833FB61FB6AE9
:106630001B8ADAB2FB691A70FB6A1B8A1B0A9AB2C0
:10664000FB690133D2B21A700A23BB61FB6893F86D
:106650004F30002B0CD1FA6ABB690121F86803F0B6
:106660003EFB034687F83730FB68012283F84F2052
:10667000FB6A9B7B03F00103002B0AD0BB6A93F8F3
:106680002C30DBB2012B19D1BB6A012283F82E20FA
:1066900014E0BB6A93F82C30DBB2012B0ED1BB6A3D
:1066A000002283F82E2009E000BF08E000BF06E0CA
:1066B00000BF04E000BF02E000BF00E000BF97F8A9
:1066C000373018463837BD4680BD00BFB0160020B1
:1066D00080B58AB000AFF860B9607A60052387F8AA
:1066E00027307B683B627B68FB61664B1B68F968FF
:1066F000184604F056F9B861BB69002B01D1052397
:10670000BBE0BB68DBB2013B152B00F2A78001A206
:1067100052F823F06D6700605D6800605D6800609E
:106720005D6800605D6800605D6800605D680060D5
:106730005D680060AF670060E56700601B6800602F
:1067400031680060476800605D6800605D680060F7
:106750005D6800605D6800605D6800605D680060A5
:106760005D6800605D6800605D680060BB69002274
:1067700083F82C20BB69002283F82E20002387F8A1
:106780002730BB6993F83220BB692D331946104678
:1067900003F062FB03467B757B7D002B60D1BB69F8
:1067A00093F82D301946F868FFF7CAF958E07B686E
:1067B000002B57D0BB69012283F82C20FB691A7883
:1067C000BB6983F82F20FB691B78012B4AD12E4B24
:1067D0005B881A462D49B86900F00EF9002387F846
:1067E00027303FE0BB6993F82C30DBB2002B3BD065
:1067F0003B6A1B881B0A9BB2FB753B6A1B88BB75F7
:10680000FB7D012B30D8FB7DBA691344BA7D83F838
:106810003020002387F8273026E07B68002B25D026
:106820007968F868FFF7FEF8034687F827301DE01F
:106830007B68002B1CD07968F868FFF707F90346DE
:1068400087F8273014E07B68002B13D07968F8684C
:10685000FFF716F9034687F827300BE000BF0AE080
:1068600000BF08E000BF06E000BF04E000BF02E098
:1068700000BF00E000BF97F8273018462837BD4614
:1068800080BD00BFA41600200C000020C41600200C
:1068900080B582B000AF0C4B1B687B600CE07B685E
:1068A00093F83230032B04D17B685B68184602F002
:1068B000EBF87B681B687B607B68002BEFD100BF27
:1068C00000BF0837BD4680BDA416002080B582B049
:1068D00000AF0D4B1B687B600CE07B6893F8323097
:1068E000022B04D17B685B68184602F0CDF87B6808
:1068F0001B687B607B68002BEFD1BFF34F8F00BF1D
:1069000000BF0837BD4680BDA416002080B584B006
:1069100000AF7860114B1B68FB607B6893F83230E6
:10692000023B5B0010333B4433F9043CDAB27B6832
:1069300083F833207B6893F833301BB20321184669
:10694000FFF7A6FC7B6893F833301BB2184603F0C0
:10695000EEFF00BF1037BD4680BD00BF00B4006031
:1069600080B586B000AF786039603B68002BFCD002
:106970007B68002BFCD000BF3B687B617B683B6180
:106980003B69002283F82D207B691A783B6983F8E4
:1069900032203B6993F832003B6904331A461349AD
:1069A000FEF782FB0346FB73FB7B002B02D043F216
:1069B000215316E00D4B1B685A683B699A60396990
:1069C0000B4804F022F83869FFF7A0FF094941F2AB
:1069D0008830FEF73BFF3B695B68184602F0D2FE49
:1069E000002318461837BD4680BD00BF580100205F
:1069F000A41600200046C32380B588B000AFF8601D
:106A0000B9607A60FB68002BFCD0FB687B617B6916
:106A100093F82C30DBB2002B02D143F2215341E03A
:106A200003F09EFF38617B6993F82830DBB2002BBE
:106A300005D0386903F0A5FF43F2225332E07B69A9
:106A4000012283F82820386903F09BFF174B5B88ED
:106A50001A467B68934206D27B69002283F828207D
:106A600043F221531EE0BB68002B05D1104BFB61A4
:106A70000E4B5B88BB6103E0BB68FB617B68BB615D
:106A80007B699868BB69FA69032103F07AF90346C8
:106A9000002B06D07B69002283F8282043F2215383
:106AA00000E0002318462037BD4680BD0C000020C2
:106AB000C416002080B584B000AF78607B68FB60AE
:106AC0007B68002B02D10748FBF774FCFB680022AF
:106AD0005A70FB6800221A70002318461037BD4612
:106AE00080BD00BF04B4006080B584B000AF7860A2
:106AF0007B68002B02D10748FBF75CFC7B68FB60DE
:106B000002220021F86804F0CAF900231846103761
:106B1000BD4680BD30B4006080B483B000AF786003
:106B20000B4A7B6843F0010353600A4B5B6A094AD6
:106B300043F480335362BFF34F8F00BFBFF36F8FB7
:106B400000BF00BF0C37BD465DF8047B704700BF37
:106B500090ED00E000ED00E080B400AFBFF35F8F88
:106B600000BF084B5B6A074A23F480335362064B2D
:106B70005B68054A23F00103536000BFBD465DF822
:106B8000047B704700ED00E090ED00E080B58AB036
:106B900000AFA14B7B62A14A7B6AD31A3B62002300
:106BA0003B619F4B5B6903F40033B3F5003F16D1A3
:106BB000BFF34F8F00BFBFF36F8F00BF984B5B6970
:106BC000974A23F400335361954B0022C3F85022B7
:106BD000BFF34F8F00BFBFF36F8F00BF00BF904B5D
:106BE0005B6903F48033B3F5803F4DD18C4B0022B9
:106BF000C3F88420BFF34F8F00BF894B5B69884A7D
:106C000023F480335361BFF34F8F00BF844A07F1F1
:106C10000803C2F87032824A3B1DC2F87032804AC3
:106C200007F10C03C2F87032BFF34F8F00BFBFF300
:106C30006F8F00BF7A4BD3F88030FB60FB685B0B33
:106C4000C3F30E03BB60FB68DB08C3F309037B607F
:106C5000BB685A0143F6E07313407A6892077049A3
:106C60001343C1F874327B685A1E7A60002BEFD14F
:106C7000BB685A1EBA60002BE5D1BFF34F8F00BF2F
:106C8000BFF36F8F00BF00BFFFF766FF654B102299
:106C9000DA60644B644A1A61624B644ADA60614BA1
:106CA000634A1A615F4B634ADA605E4B604A1A615D
:106CB0005C4B614ADA605B4B604A1A61594B1422A3
:106CC000DA60584B5E4A1A61564B1522DA60554B12
:106CD0005C4A1A61534B5C4ADA60524B594A1A615A
:106CE000504B5A4ADA604F4B594A1A614D4B594A38
:106CF000DA604C4B584A1A614A4B584ADA60494BA1
:106D0000574A1A6102E03B6901333B613B693A6AC9
:106D100022FA03F3012BF6D83B69002B2DD07B6AB6
:106D20003A6AB3FBF2F2396A01FB02F29B1A002BBA
:106D300002D04C48FBF73EFB3B69012202FA03F309
:106D40001A463B6A934202D04748FBF733FB3B6944
:106D5000042B02D84548FBF72DFB7B6A23F01F0369
:106D6000304A43F01A03D3603B69013B5B0003F0F8
:106D70003E022C493E4B13430B612A4B3D4ADA60DD
:106D8000284B3D4A1A61274B3C4ADA60254B3C4A66
:106D90001A610420FFF7C0FE214B5B6903F48033C6
:106DA000002B6FD11E4B0022C3F88420BFF34F8FFE
:106DB00000BF1B4BD3F88030FB61FB695B0BC3F357
:106DC0000E03BB61FB69DB08C3F309037B61BB698D
:106DD0005A0143F6E07313407A699207104913434E
:106DE000C1F860327B695A1E7A61002BEFD1BB6912
:106DF0005A1EBA61002BE5D1BFF34F8F00BF084B7D
:106E00005B69074A43F480335361BFF34F8F00BF80
:106E1000BFF36F8F37E000BF0000E0810000008209
:106E200000ED00E090ED00E03F0000101100008058
:106E30003900100312000060130000602D000306EB
:106E40003B00100321000303160000201700202040
:106E500025000303180028202300030319000080E5
:106E6000310003035CB4006084B40060B0B400601F
:106E7000010008031B0000402B0010031C0000420F
:106E80002700100300BF134B5B6903F40033002B92
:106E90001BD1BFF34F8F00BFBFF36F8F00BF0D4BF0
:106EA0000022C3F85022BFF34F8F00BFBFF36F8F94
:106EB00000BF084B5B69074A43F400335361BFF3DB
:106EC0004F8F00BFBFF36F8F00E000BF00BF2837B8
:106ED000BD4680BD00ED00E080B584B000AF7860B5
:106EE00039607B689B0EFB607B68DAB21F4B1344F2
:106EF0001A687B685B0BC3F30C017B681B0A03F009
:106F00001F0301FA03F3DB4302EA03017B681B0A58
:106F100003F01F033A689A407B685B0BC3F30C00D5
:106F20007B681B0A03F01F0300FA03F31A407B6817
:106F3000D8B20E4B0344184641EA02030360FB68D3
:106F4000202B02D90A48FBF735FAFB68202B09D021
:106F500000BF064B9A6CFB6822FA03F303F00103AF
:106F6000002BF6D100BF1037BD4680BD00C00F40DA
:106F7000C8B4006080B584B000AF786039607B68C9
:106F80009B0EFB607B68DAB21F4B13441A687B6868
:106F90005B0BC3F30C017B681B0A03F01F0301FAB0
:106FA00003F3DB4302EA03017B681B0A03F01F03C0
:106FB0003A689A407B685B0BC3F30C007B681B0A42
:106FC00003F01F0300FA03F31A407B68D8B20E4B9C
:106FD0000344184641EA02030360FB68202B02D9F0
:106FE0000A48FBF7E7F9FB68202B09D000BF064BE6
:106FF0009A6C0121FB6801FA03F31340002BF6D1D0
:1070000000BF1037BD4680BD00C00F404CB50060CA
:1070100080B586B000AF03460A46FB8013467B71FD
:10702000B7F906301B0A7B61FB8803F01F033B6145
:107030007B69072B02D90C48FBF7BCF97B699A00E6
:107040000A4B1344FB6003223B6902FA03F17A798D
:107050003B6902FA03F31A46F86803F07DFE00BFAD
:107060001837BD4680BD00BFD0B5006068C00F4076
:1070700080B483B000AF7860044A7B68136000BFBF
:107080000C37BD465DF8047B704700BF9C1600209E
:1070900080B483B000AF7860044A7B68136000BF9F
:1070A0000C37BD465DF8047B704700BFA01600207A
:1070B00080B485B000AF78600B46FB701346BB70A0
:1070C0007B689A680A4B1340FB60FB789B0603F0D1
:1070D0008062FB681A43BB781B0403F47F031A43E6
:1070E0007B689A6000BF1437BD465DF8047B70472B
:1070F000FFFF00FB80B582B000AF4FF40040FFF708
:10710000C7FFDC4BD3F8C032DA4A43F48033C2F80D
:10711000C032D84BD3F8C032D64A23F40033C2F879
:10712000C032D548FFF7A4FF0020FEF7A9F9FEF70B
:10713000F7F90120FEF7DAF9D04B1B6823F0FF03C3
:10714000CE4A43F07F0313600121CD48FFF7C4FE10
:107150000121CC48FFF7C0FECB4BDB6823F01F03B7
:10716000C94A43F01303D36000BFC74B1B6803F049
:107170000043B3F1004FF8D10021C448FFF7FAFEF5
:107180004FF4887003F010FE4FF4847003F00CFE8F
:1071900040F2162003F008FE4FF4067003F004FEE0
:1071A00040F20E2003F000FE0321B948FFF7E2FE93
:1071B0000121B848FFF7DEFE0021B748FFF7DAFEED
:1071C0004FF48A7003F0F0FD4FF48B7003F0ECFD88
:1071D000182003F0E9FD1A2003F0E6FD4FF4867055
:1071E00003F0E2FD0121AD48FFF7C4FE40F202606A
:1071F00003F0DAFD0121AA48FFF7BCFE0021A948EF
:10720000FFF76AFE40F2046003F0CEFD0121A648BC
:10721000FFF7B0FE0021A548FFF75EFE4FF4417076
:1072200003F0C2FD07214FF21400FFF7A3FE002177
:107230009F48FFF751FE00219E48FFF74DFE40F2A8
:10724000027003F0B1FD01219B48FFF793FE01217D
:107250009A48FFF741FE40F2022003F0A5FD01210C
:107260009748FFF787FE00219648FFF735FE4FF459
:10727000807003F099FD4FF4817003F095FD4FF499
:10728000827003F091FD4FF4837003F08DFD0421B3
:107290008D48FFF76FFE02218C48FFF71DFE162078
:1072A00003F082FD03218A48FFF764FE002189482C
:1072B000FFF712FE40F2125003F076FD03218648DC
:1072C000FFF758FE01218548FFF754FE002184484E
:1072D000FFF702FE40F2145003F066FD03218148DF
:1072E000FFF748FE01218048FFF744FE00217F4858
:1072F000FFF7F2FD40F2165003F056FD03217C48E3
:10730000FFF738FE01217B48FFF734FE00217A4861
:10731000FFF7E2FD40F2062003F046FD4FF4027055
:1073200003F042FD40F20A2003F03EFD00217348C5
:10733000FFF720FE00217248FFF7CEFD0E2003F07C
:1073400033FD122003F030FD40F2067003F02CFDF7
:10735000102003F029FD142003F026FD4FF4E16016
:1073600003F022FD01216748FFF704FE0221664871
:10737000FFF7B2FD4FF4A36003F016FD1C2003F0ED
:1073800013FD0C2003F010FD4FF48C7003F00CFD86
:1073900040F2023003F008FD40F2063003F004FD35
:1073A00040F21A5003F000FD40F20E6003F0FCFCC6
:1073B00000215648FFF7DEFD00215548FFF78CFD00
:1073C00040F20A3003F0F0FC01215248FFF7D2FDF1
:1073D00003215148FFF7CEFD05215048FFF77CFD02
:1073E00040F20E5003F0E0FC01214D48FFF7C2FDD2
:1073F00007214C48FFF7BEFD03214B48FFF76CFD0A
:1074000040F2025003F0D0FC01214848FFF7B2FDE2
:1074100007214748FFF7AEFD03214648FFF75CFD13
:107420004FF4407003F0C0FC01214348FFF7A2FD78
:1074300007214248FFF79EFD03214148FFF74CFD1D
:1074400000214048FFF748FD3F48FEF7EFF83F486E
:10745000FEF720F91B210020FEF7C6F910210120BC
:10746000FEF7C2F918210220FEF7BEF91021032011
:107470006EE000BF00800D4000366E0100C00F407E
:10748000186C0080143900140000084014EA00044D
:107490001468008010E0004014FB00801CE00780AE
:1074A00024EB00801C30008024F000801C31008020
:1074B000142700801426008018FD008018680080C2
:1074C0003CEB00803C69008018FA00801864008062
:1074D00024790080186E008028E6008028E007806C
:1074E0001C6A00802CE600802CE007801C6C008069
:1074F00028F6008028F007801C6E008038F3078093
:107500003832008020E207802068008024E0078075
:107510002426008038EC008018F7008038EF0080C7
:1075200030F9008030F600803074008030EC00804C
:1075300030E900803067008028E9008028F9008069
:10754000207300800C20008044B600604CB60060C0
:10755000FEF74AF9FEF72CF901228C498C4803F01A
:1075600032FC8B4BD3F87031894A23F40043C2F8C4
:107570007031874BD3F87031854A23F40003C2F889
:107580007031834B1B6F824A43F400531367804B67
:10759000D3F8A0307E4A23F40053C2F8A0307C4BCD
:1075A000D3F8A03023F4E033794A43F48033C2F8AF
:1075B000A030774B0022C3F8B020754B0122C3F8EE
:1075C000C020734BD3F8A030724A1A4042F21F0316
:1075D00013437B607B6843F400237B606C4BD3F8E0
:1075E00070316B4A43F04043C2F87031684A7B689F
:1075F000C2F8A03000BF664BD3F8A030002BFADAF7
:1076000000226549624803F0DEFBFEF7DFF8012245
:1076100062495F4803F0D7FB5D4BD3F8E03023F0BD
:1076200003035B4A43F00103C2F8E030584BD3F840
:10763000E030574A43F40053C2F8E030544BD3F8DB
:10764000E030534A23F00C03C2F8E030504BD3F83B
:10765000E0304F4A43F48013C2F8E0304C4BD3F88B
:10766000E0304B4A43F40013C2F8E030FEF794F8E0
:1076700001224B49464803F0A6FB454B1B6A444A8E
:1076800043F40053136203214648FFF725FC002111
:107690004548FFF721FC00214448FFF71DFC00216D
:1076A0004348FFF719FC3A4BD3F86031384A23F0CE
:1076B0001F03C2F860313F4B1B6E3E4A23F070033C
:1076C00013663C4B1B6E23F00F033A4A43F0010351
:1076D0001366384B1B6E374A23F460031366354B31
:1076E0001B6E23F4F813334A43F490131366314BA3
:1076F0001B6E304A23F4807313662E4B1B6E2D4A8B
:1077000023F0800313662B4B1B6E2A4A23F08073F1
:10771000136600220021284803F07CFB002203218D
:10772000254803F077FB00220621234803F072FB73
:1077300000220821204803F06DFB00220A211E4888
:1077400003F068FB002200211B48FFF7B1FC1A4B35
:107750005B68194A23F400335360174B5B68164A81
:1077600023F480235360144B5B69134A23F0805346
:107770005361114B5B69104A23F0005353610F4B67
:107780000F4A1A6000BF0837BD4680BD0D0070006B
:1077900000800D4080CFFFFF0D00A0000D00E00035
:1077A0000D0020001872008014390014186C00803D
:1077B0001C26008000C00F4000C00A4000000020CE
:1077C0000046C32310B5174A0020174903F0E4FB15
:1077D0004FF480734FF480620021124803F079FB6C
:1077E000124A1349012003F0D7FB4FF480734FF482
:1077F000806200210D4803F06CFB0E4B1B68022BCE
:107800000EDD0D4A02200A4903F0C6FB4FF48073D7
:107810004FF4806200210848BDE8104003F059BBD6
:1078200010BD00BFC818002064B600600419002015
:1078300066B6006060B60060401900202DE9F04196
:10784000D56880460E461446EB02576905D545F0CB
