:0200000460009A
:10000000464346420004015600000000010303007D
:1000100000000000000000000000000000000000E0
:1000200000000000000000000000000000000000D0
:1000300000000000000000000000000000000000C0
:1000400000000000000406000000000000000000A6
:100050000000800000000000000000000000000020
:100060000000000000000000000000000000000090
:100070000000000000000000000000000000000080
:10008000EB04180A063204260000000000000000FD
:100090000000000000000000000000000000000060
:1000A0000000000000000000000000000000000050
:1000B0000000000000000000000000000000000040
:1000C0000000000000000000000000000000000030
:1000D0000000000000000000000000000000000020
:1000E0000000000000000000000000000000000010
:1000F0000000000000000000000000000000000000
:1001000000000000000000000000000000000000EF
:1001100000000000000000000000000000000000DF
:1001200000000000000000000000000000000000CF
:1001300000000000000000000000000000000000BF
:1001400000000000000000000000000000000000AF
:10015000000000000000000000000000000000009F
:10016000000000000000000000000000000000008F
:10017000000000000000000000000000000000007F
:10018000000000000000000000000000000000006F
:10019000000000000000000000000000000000005F
:1001A000000000000000000000000000000000004F
:1001B000000000000000000000000000000000003F
:1001C000000100000010000000000000000000001E
:1001D000000001000000000000000000000000001E
:1001E000000000000000000000000000000000000F
:1001F00000000000000000000000000000000000FF
:10020000FFFFFFFFFFFFFFFFFFFFFFFFFFFFFFFFFE
:10021000FFFFFFFFFFFFFFFFFFFFFFFFFFFFFFFFEE
:10100000D10020410020006000000000000000002E
:1010100020100060001000600000000000000000D0
:10102000000000600000800000000000FFFFFFFFE4
:10103000FFFFFFFFFFFFFFFFFFFFFFFFFFFFFFFFC0
:10104000FFFFFFFFFFFFFFFFFFFFFFFFFFFFFFFFB0
:10105000FFFFFFFFFFFFFFFFFFFFFFFFFFFFFFFFA0
:10106000FFFFFFFFFFFFFFFFFFFFFFFFFFFFFFFF90
:1020000000000220092300608D230060CD350260AE
:10201000912300609323006095230060000000007E
:10202000000000000000000000000000A12300608C
:102030009923006000000000D12300601DB0016002
:10204000DB2F0260E32F0260EB2F0260F32F0260B0
:10205000FB2F0260033002600B300260133002601D
:102060001B300260233002602B300260333002608C
:102070003B300260433002604B30026053300260FC
:102080005B300260633002606B300260733002606C
:102090007B300260833002608B30026093300260DC
:1020A0009B300260A3300260AB300260B33002604C
:1020B000BB300260C3300260CB300260D3300260BC
:1020C000DB300260E3300260EB300260F33002602C
:1020D000FB300260033102600B3102601331026099
:1020E0001B310260233102602B3102603331026008
:1020F0003B310260433102604B3102605331026078
:102100005B310260633102606B31026073310260E7
:102110007B310260833102608B3102609331026057
:102120009B310260A3310260AB310260B3310260C7
:10213000BB310260C3310260CB310260D331026037
:10214000DB310260E3310260EB310260F3310260A7
:10215000FB310260033202600B3202601332026014
:102160001B320260233202602B3202603332026083
:102170003B320260433202604B32026053320260F3
:102180005B320260633202606B3202607332026063
:102190007B320260833202608B32026093320260D3
:1021A0009B320260A3320260AB320260B332026043
:1021B000BB320260C3320260CB320260D3320260B3
:1021C000DB320260E3320260EB320260F332026023
:1021D000FB320260033302600B3302601333026090
:1021E0001B330260233302602B33026033330260FF
:1021F0003B330260433302604B330260533302606F
:102200005B330260633302606B33026073330260DE
:102210007B330260833302608B330260933302604E
:102220009B330260A3330260AB330260B3330260BE
:10223000BB330260C3330260CB330260D33302602E
:10224000DB330260E3330260EB330260F33302609E
:10225000FB330260033402600B340260133402600B
:102260001B340260233402602B340260333402607A
:102270003B340260433402604B34026053340260EA
:102280005B340260633402606B340260733402605A
:102290007B340260833402608B34026093340260CA
:1022A0009B340260A3340260AB340260B33402603A
:1022B000BB340260C3340260F09003600000002071
:1022C0006C000000F09003600000000000000000BF
:1022D000F09003600000202000000000F0900360F8
:1022E0000000E0810000000080000020CCE600003B
:1022F000000000000000000000002020000000009E
:102300000000E0810000000072B6104B83F30888E3
:102310001DF038FD0E4B07E003F10C049A68596874
:10232000186800F01BF823460A4A9342F4D306E0EB
:102330001C46596854F8080B00F01FF82346064A5B
:102340009342F5D362B62AF02AF9FEE70000022094
:10235000B8220060E8220060082300600023934256
:102360000AD210B450F8044B41F8044B04339342A2
:10237000F8D35DF8044B70477047002303E0002258
:1023800040F8042B04338B42F9D37047FEE7FEE795
:10239000FEE7FEE7FEE7FEE7FEE7FEE7FEE7FEE715
:1023A000074B19680868B0E8F04F80F30988BFF35D
:1023B0006F8F4FF0000080F311887047AFF30080FB
:1023C000D0E3002000BF00BFFFFFFFFFFFFFFFFFC4
:1023D000EFF30980BFF36F8F154B1A681EF0100FD3
:1023E00008BF20ED108A20E9F04F10602DE90900A8
:1023F0004FF0200080F31188BFF34F8FBFF36F8F32
:1024000019F014FE4FF0000080F3118809BC196820
:102410000868B0E8F04F1EF0100F08BFB0EC108A4B
:1024200080F30988BFF36F8F704700BFAFF3008060
:10243000D0E3002000BF00BF80B582B000AF78605D
:10244000796802481FF05BFF00BEFDE7B0CD026077
:1024500080B584B000AF786043F22153FB81012244
:1024600079680A4829F04CFF0346FB81FB89002B61
:1024700002D00123FB8103E0054B1B780023FB8185
:10248000FB8918461037BD4680BD00BF9C4F002019
:102490003EE7002080B584B000AF786039607B688B
:1024A000002BFCD03B68002B01D1002313E00C4B28
:1024B0001B68002B01D100230DE03A6879680948B8
:1024C00029F00EFF0346FB81FB89002B01D13B68FD
:1024D00001E04FF0FF3318461037BD4680BD00BF06
:1024E000A04F0020984F002080B584B000AF7860E6
:1024F0007B68002BFCD00C4B1B68002B02D14FF0EB
:10250000FF330CE07868FFF7A3FF0346002B02D1EE
:102510000123FB6002E04FF0FF33FB60FB681846CD
:102520001037BD4680BD00BFA04F002080B5A4B0CD
:1025300000AF786039600023C7F888300023C7F8FF
:102540008C300023BB6007F10C037C22002118466D
:102550002AF030F80E4B1B68002B12D007F108024E
:102560000C4B3968786820F0F0FAC7F88800D7F883
:10257000882007F1080311461846FFF78BFFC7F8BC
:102580008C00D7F88C3018469037BD4680BD00BF10
:10259000A04F00209922026080B487B000AF78601D
:1025A0007B681B687B6100233B610023FB734CE06D
:1025B0007B6901337B617B691B78203B102B3ED804
:1025C00001A252F823F000BF212600603F260060E0
:1025D0003F260060352600603F2600603F260060F1
:1025E0003F2600603F2600603F2600603F260060D7
:1025F0003F260060172600603F2600600D26006021
:102600003F2600603F2600602B2600603B6943F0B8
:1026100001033B6119E03B6943F002033B6114E0B5
:102620003B6943F004033B610FE03B6943F008035F
:102630003B610AE03B6943F010033B6105E07B69C5
:10264000013B7B610123FB7300BFFB7B83F0010334
:10265000DBB2002BACD17B687A691A603B69184603
:102660001C37BD465DF8047B704700BF80B485B061
:1026700000AFF860B9601346FB71BA680C4B1340A9
:10268000BB60FB79002B06D0FB685A68BB681A4315
:10269000FB685A6006E0FB685A68BB68DB431A4077
:1026A000FB685A6000BF1437BD465DF8047B704775
:1026B00000F0FFFF80B483B000AF00237B600023F5
:1026C0007B6003E000BF7B6801337B607B68054A69
:1026D0009342F7D900BF00BF0C37BD465DF8047BBD
:1026E000704700BF3F420F0080B592B002AF7860E4
:1026F0000023FB637B681B79012B01D000234BE097
:1027000028F077FDB863BB6B254AA2FB03239B0926
:102710007B637B6B234AA2FB03235B093B633B6B1D
:10272000204AA2FB03235B09FB623A6B1D4BA3FB10
:10273000021359090B461B015B1A9B00D31A3B631A
:102740007A6B184BA3FB021359090B461B015B1A4A
:102750009B00D31A7B637B681B687B6102233B76FB
:10276000C8233B6207F108007B6B01933B6B00932E
:10277000FB6A0D4A0A211FF0DFFA0346FB6307F1EB
:1027800008037B62FB6BBB62BB6AFB6107F114034E
:1027900018460FF003FEFB6918464037BD4680BD62
:1027A000D34D621089888888B835036080B5A8B099
:1027B00000AF786007F17C0300221A605A609A60CB
:1027C000DA601A615A617B681B68FB67C823C7F827
:1027D00088307B681B79012B24D103E0D7F8943033
:1027E00020221A702B214A4829F04DFFC7F8940087
:1027F000D7F89430002BF1D1022387F88030444B76
:10280000C7F88C30424829F07AFF0346C7F8903069
:10281000D7F89030C7F8843007F17C0318460FF0E2
:10282000BDFD6FE07B681B79022B6BD10023C7F8DD
:102830009C300023FB6007F110036A220021184638
:1028400029F0B8FE7B689B68C7F89C307B681868E5
:10285000D7F89C306E2B28BF6E231A4607F10C0365
:10286000194624F0CDFDC7F89800D7F89830002B12
:1028700009D007F10C006123254A264900F052F8DF
:10288000234800F0F3F9032387F880304FF0FF333B
:10289000C7F88430204BC7F88C30D7F88C301846F6
:1028A00029F02DFF0346C7F8903007F17C03184646
:1028B0000FF074FD194BC7F88C30D7F88C301846E0
:1028C00029F01DFF0346C7F8903007F17C03184636
:1028D0000FF064FD124BC7F88C30D7F88C301846D7
:1028E00029F00DFF0346C7F8903007F17C03184626
:1028F0000FF054FD0023C7F8903007F17C03184611
:102900000FF04CFDD7F884301846A037BD4680BD87
:10291000E44F0020C8350360D435036014360360EB
:102920004436036080B588B000AFF860B9607A6063
:102930003B600023FB767B6800221A70FB68FB611A
:10294000B86829F0DCFE386128E0FA693B69134475
:102950001B783D2B1DD13B690133FA691344FB61A0
:102960001649F86929F0BCFE78617A693B689A4299
:1029700002D33B68013B7B617A69F969786829F089
:102980000DFF7A687B69134400221A700123FB76DD
:102990000FE02621F86929F076FEF861FB69002B2B
:1029A00007D0B968F86929F033FFF861FB69002B9B
:1029B000CBD1FB7E18462037BD4680BD98360360DC
:1029C00090B589B000AF78600023FB614FF0FF3312
:1029D000BB617B685B688F49184629F05FFE034640
:1029E000002B03D14FF47A73BB61E9E07B685B682D
:1029F0008949184629F052FE0346002B03D14FF4B3
:102A00007A73BB61DCE07B685B688449184629F017
:102A100045FE0346002B03D140F6C413BB61CFE053
:102A20007B685B687E49184629F038FE0346002B18
:102A300002D10323BB61C3E07B685B687949184618
:102A400029F02CFE0346002B02D15023BB61B7E0D6
:102A50007B685B687449184629F020FE0346002B0A
:102A600003D140F2BB13BB61AAE07B685B686F498E
:102A7000184629F013FE0346002B02D16C4BFB6174
:102A80009EE07B685B686B49184629F007FE0346A9
:102A9000002B03D14FF46163BB6191E07B685B68FD
:102AA0006549184629F0FAFD0346002B02D102239E
:102AB000BB6185E07B685B686049184629F0EEFDE4
:102AC0000346002B03D14FF4AA63BB6178E07B6817
:102AD0005B685B49184629F0E1FD0346002B02D1F3
:102AE0008023BB616CE07B685B685649184629F01F
:102AF000D5FD0346002B02D12023BB6160E07B683B
:102B00005B685149184629F0C9FD0346002B02D1E4
:102B10000023BB6154E07B685B684C49184629F090
:102B2000BDFD0346002B02D1C823BB6148E07B6892
:102B30005B684749184629F0B1FD0346002B03D1D5
:102B400044F62063BB613BE07B685B684149184603
:102B500029F0A4FD0346002B03D14FF4FA73BB61A7
:102B60002EE07B685B683C49184629F097FD0346D8
:102B7000002B02D13223BB6122E07B685B683749BE
:102B8000184629F08BFD0346002B02D10123BB61BF
:102B900016E07B685B683249184629F07FFD0346E2
:102BA000002B02D10023BB610AE07B685B682D49E2
:102BB000184629F073FD0346002B01D10023BB61A9
:102BC000FB69002B0BD07B681C68F86929F097FD26
:102BD00003461A46F969204624F06EFC14E007F11A
:102BE0000803BA69204918461FF070F87B681C6812
:102BF00007F10803184629F082FD024607F1080391
:102C00001946204624F058FC002318462437BD46B8
:102C100090BD00BF9C360360B0360360C8360360C9
:102C2000E4360360F83603600C3703602037036036
:102C30003437036040370360503703606037036008
:102C4000703703608037036090370360A4370360F8
:102C5000B8370360C4370360D4370360E4370360D8
:102C6000F8370360083803601838036080B584B013
:102C700000AF78607B68FB607B68BB603BE0FB6813
:102C80001B78252B2FD1FB6801331B7880331F4A1B
:102C9000D35C03F0A003002B25D0FB6802331B7824
:102CA00080331A4AD35C03F0A003002B1BD0FB68CF
:102CB0005A78FB681A70FB680133FA6892781A70C8
:102CC000FB68023300221A7010220021F8681FF0FE
:102CD00015F90146BB685A1CBA60CAB21A70FB6883
:102CE0000333FB6007E0FA68531CFB60BB68591CA8
:102CF000B96012781A70FB681B78002BBFD1BB68D3
:102D000000221A7000BF1037BD4680BD338F0360AC
:102D100080B582B000AF78603960062203497868D8
:102D20000EF086FF00BF0837BD4680BD1C3803602B
:102D300080B58AB004AF5B4A3B4607CA83E8070008
:102D400003201AF047FB0346574A53600021002036
:102D500017F02AFA554B7B616FF07F433B61544B70
:102D6000FB6007F10C0007F1100207F11401514B51
:102D70000293514B01933B46009303464F4814F096
:102D80004FFD00224E494D4814F082FD00224D496E
:102D90004A4814F07DFD17F05FFF0EF0FFFF4A492F
:102DA00046480EF0D7FD00230293484B0193502371
:102DB00000930123464A444940480EF05FFE17F055
:102DC00067FF44481FF09BFA43481FF098FA4348B6
:102DD0001FF095FA40481FF092FA41481FF08FFA11
:102DE0003D481FF08CFA07F114031B78194607F1D0
:102DF000140301331B781A4607F1140302331B78BE
:102E0000184607F1140303331B7800930346354833
:102E10001FF075FA30481FF072FA07F110031B78A3
:102E2000194607F1100301331B781A4607F1100306
:102E300002331B78184607F1100303331B78009305
:102E4000034629481FF05BFA23481FF058FA07F1A0
:102E50000C031B78194607F10C0301331B781A4643
:102E600007F10C0302331B78184607F10C030333F8
:102E70001B78009303461D481FF041FA16481FF0C7
:102E80003EFA11491A481FF03AFA13481FF037FA70
:102E900013481FF034FA10481FF031FA00BF1837FA
:102EA000BD4680BD3039036000000020C0A82AA2C2
:102EB000C0A8006465A10160C5AA0160A44F0020FC
:102EC000A1880060C188006024380360112D006073
:102ED0003038036038380360208103606C38036049
:102EE00084380360B8380360D8380360F83803606A
:102EF0001839036080B58EB000AF13480FF006FCA0
:102F00003B4634220021184629F054FB0F4B3B610D
:102F10000F4B7B610F4BFB620F4B7B620F4BBB6216
:102F20000F4B3B633B4618460FF004FA78637B6B0C
:102F3000002B05D10B481FF0E2F90B481FF0DFF919
:102F400000BF3837BD4680BD403403605475036010
:102F5000E03303606835036088350360A83503609B
:102F6000180000203C3903602081036080B582B0E6
:102F700002AF1DF04BF829F00CFB29F09DFA20F070
:102F8000B5FA16481FF0BBF901224FF4003114487E
:102F9000FFF76CFB00220E21124820F096FAFFF793
:102FA00089FB01220E210F4820F08FFA03201AF02E
:102FB00011FA03460C4A53600323009340F6B833DA
:102FC00000220A490A4817F015FE0346002B02D1D9
:102FD000084817F0A5FD18F073FEFEE758390360A6
:102FE00000C00A4000C01B4000000020A535026060
:102FF000803903608839036080B586B000AF78609F
:1030000039604FF47A737B6100233B610023FB60DE
:103010007B685B68184620F0EFFA3B681A687B68AB
:103020001A607B6858687B68196807F10C030222F4
:1030300020F003FB38613B69002B01D03B6986E03F
:103040007B69013B7B61FB68B3F5005F02D07B6964
:10305000002BE6D17B69002B01D1012377E07B684F
:1030600058687B6819684FF40043002220F0D1FAB9
:1030700038613B69002B69D17B6858687B681968A7
:103080004FF42073182220F0C4FA38613B69002BFA
:1030900001D03B695BE07B6858687B6819688123D5
:1030A000172220F0B6FA38613B69002B01D03B694A
:1030B0004DE03B689B79002B17D07B6858687B6894
:1030C000196840F2E113042220F0A3FA38613B6949
:1030D000002B3BD17B6858687B6819684FF490538C
:1030E000002220F096FA386130E03B681B79012B12
:1030F00002D91948FFF7A0F97B6858687B681968FE
:1031000007F10C03002220F098FA38613B69002B8C
:1031100001D03B691BE0FB6823F48063FB607B68A4
:1031200058687B681968FB68002220F072FA3861E1
:103130003B69002B01D03B6909E03B6819793B688A
:103140005B791A46786800F0ABF838613B6918463D
:103150001837BD4680BD00BFC839036080B584B054
:1031600000AF786039603B68002B02D10F48FFF751
:1031700063F93B6800221A707B6858687B6819689D
:1031800007F10803012220F058FAF860FB68002BD1
:1031900007D1BB6803F02003002B02D03B6801225B
:1031A0001A70FB6818461037BD4680BD003A0360B0
:1031B00080B584B000AF786039603B68002B02D1E5
:1031C0001048FFF739F97B6858687B68196807F180
:1031D0000803012220F031FAF860FB68002B0BD1C4
:1031E000BB6803F00403002B03D03B6801221A7074
:1031F00002E03B6800221A70FB6818461037BD4693
:1032000080BD00BF203A036080B588B000AFF86091
:10321000B9607A60BB68002B05D17B68002B02D1B6
:103220001E48FFF709F9FB685868FB68196807F141
:1032300014031E2220F001FAF861FB69002B27D14C
:10324000BB68002B10D07B6903F00703BB61BB692F
:10325000022B02D0BB69062B03D1BB6801221A7076
:1032600002E0BB6800221A707B68002B10D07B69DB
:1032700003F00703BB61BB69052B02D0BB69062BBA
:1032800003D17B6801221A7002E07B6800221A7069
:10329000FB6918462037BD4680BD00BF403A036039
:1032A00080B584B000AF78600B46FB701346BB70EE
:1032B000FB78012B02D91D48FFF7BEF87B685868E0
:1032C0007B68196807F10803002220F0B6F9F8605E
:1032D000FB68002B24D1BB6823F48053BB60FB78D0
:1032E000012B04D1BB6843F40053BB6003E0BB680F
:1032F00023F40053BB60BB78012B04D1BB6843F4BB
:103300008073BB6003E0BB6823F48073BB607B68A1
:1033100058687B681968BB68002220F07AF9F86069
:10332000FB6818461037BD4680BD00BF803A036079
:1033300080B584B000AF7860084611461A4603464F
:10334000FB700B46BB7013467B70FB78012B02D9D8
:103350004848FFF771F8BB78012B02D94648FFF7C0
:103360006BF87B78002B46D0FB78002B13D1BB7811
:10337000012B03D14FF4C243BB6002E04FF4824300
:10338000BB607B6858687B681968BB68002220F0C6
:1033900040F9034669E0BB78012B02D03748FFF7BC
:1033A0004BF84FF4C243BB607B6858687B68196870
:1033B000BB68002220F02DF9F860FB68002B01D0DB
:1033C000FB6852E07B6858687B68196807F108035E
:1033D0001F2220F032F9F860FB68002B44D17B6893
:1033E00058687B681968BB6843F004031F2220F00B
:1033F00010F9034639E0FB78002B1CD17B68586834
:103400007B68196807F10803002220F016F9F860BC
:10341000FB68002B28D1BB6823F48043BB607B682A
:1034200058687B681968BB6843F40073002220F079
:10343000F0F8034619E07B6858687B68196807F163
:1034400008031F2220F0F9F8F860FB68002B0BD16D
:103450007B6858687B681968BB6823F004031F22E7
:1034600020F0D7F8034600E0FB6818461037BD4649
:1034700080BD00BFB03A0360E03A0360103B0360D8
:1034800080B586B000AF03460A46FB8013467B71C9
:10349000B7F906301B0A7B61FB8803F01F033B6111
:1034A0007B69072B02D90C48FEF7C6FF7B699A009F
:1034B0000A4B1344FB6003223B6902FA03F17A7959
:1034C0003B6902FA03F31A46F86820F0F0F800BFEF
:1034D0001837BD4680BD00BF403B036068C00F4049
:1034E00080B586B000AF78607B687B617B691B68C4
:1034F0003B6138691AF06CFCF860094AFB6832F9E4
:103500001330184620F0FBF87B695B6800221946EF
:1035100038691BF0CFF900BF1837BD4680BD00BF2A
:103520009884036080B588B000AFF860B9607A60B5
:103530003B603B68002B02D11748FEF77DFFFB681C
:10354000FB61FB691B68BB6100237B614FF40001D9
:10355000B86920F0FCF802237A68B968B8691BF0F2
:1035600021FAB86920F06EF978617B69002B01D0EF
:103570007B690DE0B86920F0D1F803467B824FF4F7
:103580000001B86920F0E3F87A8A3B681A607B6929
:1035900018462037BD4680BDC43B036080B588B067
:1035A00000AFF860B9607A603B603B68002B02D1E5
:1035B0001F48FEF741FFFB68FB61FB691B68BB61AD
:1035C00000237B614FF40001B86920F0C0F87A68ED
:1035D000B968B86928F067FDB86920F033F97861F7
:1035E0007B69002B01D07B691EE04FF40001B869B4
:1035F00020F0ADF87A68B968B8691BF023FAB869A9
:1036000020F020F978617B69002B01D07B690BE009
:103610004FF40001B86920F09AF8B86920F07EF8FC
:1036200002463B681A607B6918462037BD4680BD5C
:10363000EC3B036080B586B000AF786039600E2344
:10364000FB8217F04BFB7B685B890E2B6ED97B6886
:10365000DB7B002B06D13B6893F838300133DAB2BC
:103660007B68DA737B685B683B613B691A7B5B7BD9
:103670001B021343FB813B691B7803F00103002B02
:1036800023D03B691B78012B0FD13B695B78002B62
:103690001BD13B699B785E2B17D17B685B7B43F02A
:1036A0001003DAB27B685A730FE03B69062228499F
:1036B000184628F0A7FF0346002B06D17B685B7BEA
:1036C00043F00803DAB27B685A73FB89082B03D0F6
:1036D000B3F5C16F14D032E03B6893F8353003F096
:1036E0000803002B24D0FB8A1946786805F0CEFB2E
:1036F0000346002B1ED13968786803F03BF913E0CC
:103700003B6893F8353003F00803002B14D0FB8A94
:103710001946786805F0BAFB0346002B0ED13968CC
:10372000786801F01FFF00BF00230CE000BF06E037
:1037300000BF04E000BF02E000BF00E000BF786807
:1037400005F0EEFB002318461837BD4680BD00BFCC
:10375000143C036080B586B000AFF860B9607A6051
:103760003B603B8C184620F027FB0346FB820E2172
:10377000B86820F06AFE0346002B23D117F0AEFA9A
:10378000BB685B683B613B69FA8A9A813B690622A8
:103790003968184628F00AFF3B6906330622796823
:1037A000184628F003FFFB6893F83430062B02D04C
:1037B000084817F0B5F9FB689B69B968F86898473D
:1037C000034602E000BF6FF0010318461837BD46FC
:1037D00080BD00BF243C036080B500AF1E4B1B784A
:1037E000002B30D11D4B1B68002B02D01C4817F05A
:1037F00097F921F0B6F80346184A1360174B1B6877
:10380000002B02D14FF0FF3324E0144B1B685A7A8F
:10381000124B1B6842F02002D2B25A720F4B1B6847
:103820004422104918460BF007FF0C4B1B6843223B
:103830000C4918460BF088FF084B1B6800220A4908
:1038400018460BF0EDFF044B1B780133DAB2024B44
:103850001A700023184680BD3FE7002070500020FA
:10386000583C03609C440360414C006080B500AF4D
:103870000D4B1B78002B02D10C4817F051F90A4B65
:103880001B78013BDAB2084B1A70074B1B78002BF0
:1038900007D1074B1B6818460BF0E2FF044B0022D0
:1038A0001A6000BF80BD00BF3FE70020803C03607E
:1038B0007050002080B584B000AF78607B681B6AD0
:1038C000FB600C21F86820F06DF8064B054A0549AD
:1038D000786804F099FF786800F08EFA00BF10371E
:1038E000BD4680BD9C44036080B584B000AF786065
:1038F00039607B681B6AFB600C4B9B78002B11D0F6
:10390000FB6800221A810A4B9B68184620F069FA6E
:103910000246FB689A613B681A69FB68DA6178685D
:1039200000F008F800BF1037BD4680BD6850002089
:1039300048500020B0B58AB002AF78607B68002B99
:1039400008D170481EF0DBFC6F481EF0D8FC6FF009
:103950000F03D2E07B681B6ABB61BB69002B08D1F7
:103960006A481EF0CCFC68481EF0C9FC6FF00503E5
:10397000C3E00121B86920F015F807F10C03032218
:10398000B969786801F01AFA78617B69002B00F058
:1039900085807B695B683B61B8893B6903F1F00115
:1039A0000223392200F026FE0346BB81B8893B6919
:1039B00003F1F0017B689B8D1A4600F065FE03461B
:1039C000BB81B8893B6903F1F0010423322200F086
:1039D00011FE0346BB81BC893B6903F1F005BB695D
:1039E000DB69184620F0FDF903461A4629462046B1
:1039F00000F074FE0346BB81B8893B6903F1F00116
:103A00000423362200F0F6FD0346BB81BC893B69E6
:103A100003F1F005BB699B69184620F0E2F9034603
:103A20001A462946204600F059FE0346BB81B88954
:103A30003B6903F1F0010323372200F0DBFD03466D
:103A4000BB810023FB770EE0B8893B6903F1F001ED
:103A5000FB7F2F4AD35C1A4600F0F8FD0346BB817A
:103A6000FB7F0133FB77FB7F022BEDD9B8893B69E4
:103A7000F0337A6919461FF0AFFF264B1868264BC2
:103A800001937B6800934323244A79690BF0C2FCBD
:103A90000346BB77786905F043FA01E0FF23BB7763
:103AA000BB699B79FF2B05D0BB699B790133DAB2E7
:103AB000BB699A71BB699B79052B0DD8BB699B7952
:103AC0001A46012393409BB21A465201D21A920021
:103AD0001344DB009BB201E04EF66023FB81FB89BF
:103AE00003F2F3130E4A82FB03125211DB17D31AAF
:103AF0009AB2BB691A8197F91E3018462037BD4625
:103B0000B0BD00BFA43C036020810360C03C0360E3
:103B100048000020705000209C440360A0440360D3
:103B2000D34D621080B582B000AF274B1B687B601D
:103B300042E07B681B6A3B603B68002B39D03B68E6
:103B40005B79002B35D03B689B8A002B12D03B68F9
:103B50005B8A01339AB23B685A823B685A8A3B6857
:103B60009B8A9A4206D1786800F0A4FC786800F03D
:103B7000C7F81EE03B681B8A002B0BD03B681B8AF2
:103B80005A1E91B23A681182012B03D178681FF056
:103B9000D6FE0EE03B68DB89002B0AD03B68DB8950
:103BA0005A1E91B23A68D181012B02D178681FF078
:103BB00097FE7B681B687B607B68002BB9D100BFD8
:103BC00000BF0837BD4680BD78D7002080B582B0E1
:103BD00000AF164B1B687B6020E07B681B6A3B6074
:103BE0003B68002B17D03B681B89012B06D93B682B
:103BF0001B89013B9AB23B681A810CE03B681B8928
:103C0000012B08D13B681B89013B9AB23B681A81A2
:103C100078681FF02CFE7B681B687B607B68002B3C
:103C2000DBD100BF00BF0837BD4680BD78D700207C
:103C300080B584B000AF786039607B681B6AFB6038
:103C4000FB6800221A62FB6800225A622A4BDB786A
:103C5000002B03D0294BDA68FB689A62264B1B794C
:103C6000002B04D0254B1A69FB68DA6204E0FB687C
:103C70009B6A5A08FB68DA621F4B5B79002B04D001
:103C80001E4B5A69FB681A6307E0FB689A6A134681
:103C9000DB009B1ADA08FB681A633B681A69FB6849
:103CA000DA61154B9B79002B0FD0144B9B6918469A
:103CB00020F097F80246FB681A62FB68DB7943F054
:103CC0000103DAB2FB68DA7106E0FB68DB7923F006
:103CD0000103DAB2FB68DA71074BDB79002B07D0FE
:103CE000064BDB69184620F07CF80246FB685A62F6
:103CF00000BF1037BD4680BD6850002048500020EE
:103D000080B584B000AF786016F0E8FF7B68002BC8
:103D100008D136481EF0F3FA35481EF0F0FA6FF07D
:103D20000F035FE07B6893F8353003F00103002B4D
:103D300008D130481EF0E3FA2D481EF0E0FA6FF08B
:103D40000F034FE07B681B6AFB607B689B8DB3F5BC
:103D5000107F02D24FF0FF3344E0FB68002B0DD1FF
:103D6000342004F067FAF860FB68002B02D14FF0B2
:103D7000FF3337E07B68FA681A6205E0FB681B795D
:103D8000002B01D0FFF772FD34220021F86828F0E3
:103D900011FCFFF721FD0346002B02D04FF0FF334B
:103DA00020E0FB6801221A717B6893F8353003F03C
:103DB0000403002B05D10221F8681FF0F3FD002356
:103DC00010E0786800F018F80346FB7297F90B30A2
:103DD000002B05D0786800F06DFB4FF0FF3301E059
:103DE00097F90B3018461037BD4680BDD868036080
:103DF00020810360103D036080B58AB002AF786017
:103E00007B681B6ABB610023FB75BB690022DA611A
:103E10000621B8691FF0C6FD07F108030122B96940
:103E2000786800F0CBFF38613B69002B4BD03B69D1
:103E30005B68FB603889FB6803F1F00102233922DB
:103E400000F0D8FB03463B813889FB6803F1F001A1
:103E50007B689B8D1A4600F017FC03463B8138892E
:103E6000FB6803F1F0010323372200F0C3FB034694
:103E70003B810023FB770EE03889FB6803F1F001FA
:103E8000FB7F294AD35C1A4600F0E0FB03463B81E6
:103E9000FB7F0133FB77FB7F022BEDD93889FB6871
:103EA000F0333A6919461FF097FD204B1868204BF4
:103EB00001937B68009343231E4A39690BF0AAFAE9
:103EC000386905F02DF8BB699B79FF2B05D0BB69DC
:103ED0009B790133DAB2BB699A71BB699B79052B77
:103EE0000DD8BB699B791A46012393409BB21A46B1
:103EF0005201D21A92001344DB009BB201E04EF64D
:103F000060237B817B8903F2F3130B4A82FB03124C
:103F10005211DB17D31A9AB2BB691A8197F917307D
:103F200018462037BD4680BD480000207050002054
:103F30009C440360A0440360D34D621080B588B0F8
:103F400000AF78607B68002B06D15E481EF0D7F981
:103F50005D481EF0D4F9B1E07B681B6AFB61FB6928
:103F6000002B06D159481EF0CAF957481EF0C7F970
:103F7000A4E0FB6900225A82FB699B6AB3F1FF3F10
:103F800019D0FB699B6A1E33514AA2FB03235B09CC
:103F9000BB61BB69B3F5803F02D34FF6FF73BB61D2
:103FA000BB699AB2FB699A82FB699B8A002B02D19A
:103FB000FB6901229A82FB69DB6AB3F1FF3F1DD0E6
:103FC000FB69DB6A1E33424AA2FB03235B09BB6128
:103FD000BB69B3F5803F02D34FF6FF73BB61BB698A
:103FE0009AB2FB695A81FB695B89002B02D1FB699C
:103FF00001225A81FB695A89FB69DA81FB691B6BD3
:10400000B3F1FF3F1DD0FB691B6B1E33304AA2FB8F
:1040100003235B09BB61BB69B3F5803F02D34FF655
:10402000FF73BB61BB699AB2FB699A81FB699B898B
:10403000002B02D1FB6901229A81FB699A89FB69F5
:104040001A82FB695A89FB699B899A4206D3FB69EC
:104050009B89002B02D0FB6900225A81FB69DB7926
:1040600003F00103002B03D0FB691B6A3B6114E0E2
:10407000FB691C331B78FB7597F91730002B02DBAB
:10408000FF233B6109E0FB7DBF2B03D96FF07F432A
:104090003B6102E04FF6FF733B61FB695B6AFB60CB
:1040A0000A21F8691FF07EFCFB6903F11C0107F18E
:1040B0000C0307F11002786804F0A6FB2037BD4618
:1040C00080BD00BF343D036020810360503D03602C
:1040D0008988888880B58AB002AF78607B681B6A5F
:1040E000BB6116F0FBFD0521B8691FF05BFC07F111
:1040F0000C030322B969786800F060FE78617B697F
:10410000002B4ED07B695B683B61B8893B6903F14A
:10411000F0010223392200F06DFA0346BB81B88911
:104120003B6903F1F0017B689B8D1A4600F0ACFA05
:104130000346BB81B8893B6903F1F00103233722B1
:1041400000F058FA0346BB810023BB770EE0B88924
:104150003B6903F1F001BB7F2A4AD35C1A4600F0A9
:1041600075FA0346BB81BB7F0133BB77BB7F022B54
:10417000EDD9B8893B69F0337A6919461FF02CFCF8
:10418000214B1868BB6903F118027B680093432335
:1041900079690BF0D1F80346FB77786904F0C0FE2B
:1041A00001E0FF23FB77BB699B79FF2B05D0BB693F
:1041B0009B790133DAB2BB699A71BB699B79092B90
:1041C0000AD8BB699B799BB21A465201D21A920057
:1041D00013441B019BB201E044F62063FB81FB8981
:1041E00003F2F313094A82FB03125211DB17D31AAD
:1041F0009AB2BB691A8197F91F3018462037BD461D
:1042000080BD00BF4800002070500020D34D6210D8
:1042100080B58AB002AF78607B681B6ABB610421FD
:10422000B8691FF0BFFB07F10C030322B969786876
:1042300000F0C4FD78617B69002B4CD07B695B6822
:104240003B61B8893B6903F1F0010223392200F098
:10425000D1F90346BB81B8893B6903F1F0017B6862
:104260009B8D1A4600F010FA0346BB81B8893B6962
:1042700003F1F0010323372200F0BCF90346BB81B0
:104280000023BB770EE0B8893B6903F1F001BB7FE7
:10429000294AD35C1A4600F0D9F90346BB81BB7F9B
:1042A0000133BB77BB7F022BEDD9B8893B69F03373
:1042B0007A6919461FF090FB204B18687B680093C1
:1042C00043231F4A79690BF037F80346FB77786977
:1042D00004F026FE01E0FF23FB77BB699B79FF2BEF
:1042E00005D0BB699B790133DAB2BB699A71BB69AE
:1042F0009B79092B0AD8BB699B799BB21A4652015C
:10430000D21A92001344DB009BB201E042F2107318
:10431000FB81FB8903F2F3130A4A82FB0312521159
:10432000DB17D31A9AB2BB691A8197F91F30184666
:104330002037BD4680BD00BF4800002070500020DF
:10434000A0440360D34D6210B0B58AB002AF78606C
:104350007B681B6ABB610321B8691FF023FB07F16F
:104360000C030322B969786800F028FD78617B6945
:10437000002B66D07B695B683B61B8893B6903F1C0
:10438000F0010223392200F035F90346BB81B889D8
:104390003B69F0334FF41072194600F075F903468B
:1043A000BB81B8893B6903F1F0010423322200F09C
:1043B00021F90346BB81BC893B6903F1F005BB6968
:1043C000DB6918461FF00DFD03461A4629462046B4
:1043D00000F084F90346BB81B8893B6903F1F00121
:1043E0000323372200F006F90346BB810023BB7785
:1043F0000EE0B8893B6903F1F001BB7F294AD35C29
:104400001A4600F023F90346BB81BB7F0133BB771B
:10441000BB7F022BEDD9B8893B69F0337A69194625
:104420001FF0DAFA204B18687B68009343231F4A79
:1044300079690AF081FF0346FB77786904F070FD23
:1044400001E0FF23FB77BB699B79FF2B05D0BB699C
:104450009B790133DAB2BB699A71BB699B79092BED
:104460000AD8BB699B799BB21A465201D21A9200B4
:104470001344DB009BB201E042F21073FB81FB8925
:1044800003F2F3130A4A82FB03125211DB17D31A09
:104490009AB2BB691A8197F91F3018462037BD467A
:1044A000B0BD00BF4800002070500020A044036051
:1044B000D34D6210B0B58AB002AF78607B681B6ADA
:1044C000FB6116F00BFCFB69002B00F08980FB6997
:1044D0005B79002B00F08680FB699B693B61FB697F
:1044E00000229A61FB690022DA61FB6900221A62EC
:1044F000FB6900225A62FB6900221A63FB691A6B8E
:10450000FB69DA62FB69DA6AFB699A62FB6900227D
:104510009A82FB699A8AFB695A82FB695A8AFB690B
:104520001A82FB691A8AFB69DA8178681FF082FABD
:104530000346002B46D00021F8691FF033FA07F13B
:104540000E030722F969786800F038FCB861BB698E
:10455000002B30D0BB695B687B61F8897B6903F114
:10456000F0010423362200F045F80346FB81FC8964
:104570007B6903F1F0053B6918461FF032FC0346E6
:104580001A462946204600F0A9F80346FB81F8891F
:104590007B69F033BA6919461FF01EFA134B18688D
:1045A00007F110027B6800934323B9690AF0C4FE47
:1045B000B86904F0B5FC0E4B0D4A0D49786804F05B
:1045C00023F903E00021F8691FF0ECF9FB691B797E
:1045D000002B08D0FFF74AF9FB6900221A7102E0AC
:1045E00000BF00E000BF2037BD46B0BD70500020C6
:1045F0009C44036080B582B000AF396011461A4612
:104600000346FB800B467B7113463B71FA883B796E
:1046100013440233442B02D90B4816F081FAFB886D
:104620005A1CFA801A463B6813447A791A70FB8840
:104630005A1CFA801A463B6813443A791A70FB8870
:1046400018460837BD4680BD683D036080B582B01E
:1046500000AF03463960FB8013467B71FB88432B18
:1046600002D9084816F05CFAFB885A1CFA801A46F0
:104670003B6813447A791A70FB8818460837BD46A0
:1046800080BD00BFAC3D036080B582B000AF034683
:104690003960FB801346BB80FB880233442B02D970
:1046A0000D4816F03DFABB881B0A9AB2FB88591CCC
:1046B000F98019463B680B44D2B21A70FB885A1C29
:1046C000FA801A463B681344BA88D2B21A70FB8843
:1046D00018460837BD4680BDE43D036080B584B010
:1046E00000AF0346B9607A60FB81FB890433442B39
:1046F00002D9174816F014FA7B681A0EFB89591C68
:10470000F9811946BB680B44D2B21A707B681A0C47
:10471000FB89591CF9811946BB680B44D2B21A7047
:104720007B681A0AFB89591CF9811946BB680B443E
:10473000D2B21A70FB895A1CFA811A46BB6813441C
:104740007A68D2B21A70FB8918461037BD4680BD10
:10475000203E036080B592B000AF786039600023DE
:104760003B630023FB6208220021B74827F022FFA9
:104770007B685B892B2B02D86FF0010355E27B68C5
:104780005B68FB61F023BB877B681B897B877B6849
:104790007B63BB8F7B830CE07B6B5B89BA8FD31A07
:1047A000BB877B6B5B897A8FD31A7B877B6B1B689C
:1047B0007B637B6B002B04D07B6B5B89BA8F9A4247
:1047C000EAD27B6B002B02D16FF001032DE2BB8F8D
:1047D000A7F846307B8FFB877B6B5B683B64E2E12D
:1047E000B7F846303A6C13441B787B76002387F881
:1047F0002A304FF0FF337B62B7F8463002337B84B8
:104800007A8CB7F846309A4202D26FF001030CE27C
:10481000B7F8463001337A6B5289934208DAB7F819
:10482000463001333A6C13441B7887F82B300BE089
:104830007B6B1B68002B04D07B6B1B685B681B7851
:1048400000E0002387F82B3097F82B3087F82A30C8
:104850007B7E3B2B00F2DF8001A252F823F000BFE9
:104860005149006061490060174A00607549006065
:10487000174A0060174A0060174A0060174A006034
:10488000174A0060174A0060174A0060174A006024
:10489000174A0060174A0060174A0060174A006014
:1048A000174A0060174A0060174A0060174A006004
:1048B000174A0060174A0060174A0060174A0060F4
:1048C000174A0060174A0060174A0060174A0060E4
:1048D000174A0060174A0060174A0060174A0060D4
:1048E000174A0060174A0060174A0060174A0060C4
:1048F000174A0060174A0060174A0060174A0060B4
:10490000174A0060174A0060174A0060174A0060A3
:10491000174A0060174A0060174A0060174A006093
:10492000174A0060174A0060174A00609349006008
:10493000A7490060C7490060DB490060174A006072
:10494000174A0060174A0060EF490060034A0060A0
:10495000002387F82B3097F82B3087F82A305EE059
:1049600097F82B30042B02D06FF005035DE106238E
:104970007B6254E0042387F82A3097F82B2097F8BD
:104980002A309A4202D26FF005034EE107237B6280
:1049900045E097F82B30042B02D06FF0050344E17B
:1049A00003237B623BE097F82B30012B02D06FF0A2
:1049B00005033AE17B8BF02B02D06FF0050334E165
:1049C00000237B622BE097F82B30012B02D06FF095
:1049D00005032AE101237B6221E097F82B30042BA9
:1049E00002D06FF0050320E102237B6217E097F805
:1049F0002B30042B02D06FF0050316E104237B62F9
:104A00000DE097F82B30042B02D06FF005030CE17A
:104A100005237B6203E0002387F82A3000BF7B7EFA
:104A2000002B05D1B7F846300133A7F8463093E0A4
:104A3000B7F8462097F82B3013444FF6FD72934297
:104A400004DD6FF00103F0E06850002097F82B3090
:104A50009AB2B7F8463013449BB20233A7F84630F7
:104A600097F82A30002B77D00023FB607B6A002B5D
:104A700002DB7B6A072B02DD6E4816F051F86E4AA6
:104A80007B6A13441B78002B66D197F82A30042BDD
:104A900028BF0423DBB2FB827B8CFA8A07F10C016E
:104AA000786B04F03BFC03461A46FB8A934202D023
:104AB0006FF00103B9E097F82A30042B2CD997F84E
:104AC0002A3003F00303DBB2002B02D06FF00503A2
:104AD000ABE0594A7B6A134401221A70FB681846FE
:104AE0001FF07FF9024655497B6A41F8232097F869
:104AF0002A30043B87F82A307B8C0433BB82BA8A85
:104B00007B8C9A4202D26FF001038EE0BB8A7B84D9
:104B10007B6A01337B62A9E797F82A30042B06D120
:104B2000FB6818461FF05DF90346FB600AE097F842
:104B30002A30012B02D06FF0050376E007F10C0359
:104B40001B78FB603C4A7B6A134401221A70FA68A6
:104B50003A497B6A41F823207B6B5B89B7F8462092
:104B60009A4220D37B6B5B89B7F84620D31AA7F80B
:104B700046307B6B5B89FA8FD31AFB87B7F84620E8
:104B8000FB8F9A420CD27B6B1B687B637B6B002B89
:104B900002D16FF0050348E07B6B5B683B6402E089
:104BA0006FF0010341E07B6B002B0CD0B7F846207F
:104BB000FB8F9A4207D2B7F846303A6C13441B7801
:104BC000FF2B7FF40DAE1C4B1B78002B18D01B4B1A
:104BD0001B683B61184B00221A703B69012B02D104
:104BE00001233B630CE03B69022B02D10123FB62F2
:104BF00006E03B69032B03D10123FB6201233B63E6
:104C00003B6B002B06D000233B636C23BB87EC235C
:104C10007B87BCE5FB6A002B06D00023FB622C23BC
:104C2000BB876C237B87B2E5002318464837BD4617
:104C300080BD00BF5C3E03606850002048500020EB
:104C400080B58AB000AFF860B9607A603B60584BBD
:104C50005B68FB61FB691B6ABB617B685B687B61AE
:104C6000BB69002B00F08E80BB691B79002B00F024
:104C700089807B685B892B2B40F286807B691B785F
:104C8000022B40F083800023FB740DE0FB7CFA696B
:104C9000134493F82E20FB7C79690B441B7F9A42C6
:104CA00076D1FB7C0133FB74FB6993F83430FA7CDA
:104CB0009A4202D2FB7C052BE8D97B695B681846D7
:104CC0001FF08FF80246BB691B689A4262D1B9692E
:104CD0007868FFF73FFD0346002B5DD1354B5B78CD
:104CE000002B5BD07B685B683B62334B5B6887F86B
:104CF000273097F82730052B1FD1BB695B79012B33
:104D000003D0BB695B79032B07D1396AF869FEF7D9
:104D10008FFFF869FFF712F943E0BB695B79042B59
:104D200003D0BB695B79052B3BD1396AF869FEF783
:104D30007FFFF869FFF702F933E097F82730062B79
:104D400013D1BB695B79032B0BD0BB695B79012B5A
:104D500007D0BB695B79042B03D0BB695B79052B5A
:104D600003D1F869FEF7A6FD1BE097F82730022B68
:104D700016D1BB695B79062B12D1396AF869FEF747
:104D8000B3FD0EE000BF0CE000BF0AE000BF08E08A
:104D900000BF06E000BF04E000BF02E000BF00E08B
:104DA00000BF786804F0BCF800BF2837BD4680BD5E
:104DB00078510020685000204850002080B588B00D
:104DC00000AFF860B9603B601346FB71FB68002BD5
:104DD00007D15C481DF093FA5B481DF090FA002360
:104DE000ABE0BB68002B07D158481DF088FA564845
:104DF0001DF085FA0023A0E04FF420724FF49A7161
:104E0000362003F055FEB861BB69002B01D10023A9
:104E100093E0BB695B89B3F59A7F02D24C4815F0E9
:104E20007FFEFB79032B03D1BB685B79032B0CD18D
:104E3000BB689B79002B04D115F082FE0346454ADE
:104E40001360444B1A68BB681A60BB695B687B617E
:104E50004FF49A720021786927F0ACFB7B6901223C
:104E60001A707B6901225A70FB6893F834207B69C1
:104E70009A70BB681B6818461EF0B3FF02467B6938
:104E80005A60FB79082B10D0FB79042B0DD0FB79ED
:104E9000072B0AD0FB79032B0CD1BB685B79052B60
:104EA00003D0BB685B79042B04D1FB6804331A6818
:104EB0007B69DA600023FB830CE0FA8BFB8BF968DB
:104EC0000A4492F82E107A6913440A461A77FB8B2B
:104ED0000133FB83FB8B052BEFD97B69002242F06A
:104EE000630283F8EC20002262F07D0283F8ED205B
:104EF000002242F0530283F8EE20002242F06302C7
:104F000083F8EF207B6903F1F001012335220020B3
:104F1000FFF770FB03467B827B6903F1F001FA79AE
:104F20007B8A1846FFF792FB03467B823B68002B87
:104F300002D03B687A8A1A80BB6918462037BD4682
:104F400080BD00BF703E036020810360903E03601F
:104F5000B03E03607450002080B582B000AF78602E
:104F60002B497A6813465B001344DB000B441B6833
:104F7000002B13D026497A6813465B001344DB00EC
:104F80000B441B68184603F0CBFF21497A6813468F
:104F90005B001344DB000B4400221A601C497A6852
:104FA00013465B001344DB000B44143300221A70D9
:104FB00017497A6813465B001344DB000B44123335
:104FC00000221A8012497A6813465B001344DB0002
:104FD0000B44083300221A600D497A6813465B00BF
:104FE0001344DB000B44043300221A6008497A683A
:104FF00013465B001344DB000B440833054A0433BB
:105000001068186092889A8000BF0837BD4680BD3E
:10501000785000201C3C036080B582B000AF0023B4
:105020007B6096E04F497A6813465B001344DB00CF
:105030000B4414331B78FB70FB78002B00F0868048
:1050400048497A6813465B001344DB000B44123373
:105050001B88013398B243497A6813465B001344B6
:10506000DB000B44123302461A803E497A6813462D
:105070005B001344DB000B4412331B88B3F5967FAF
:1050800015D238497A6813465B001344DB000B44A1
:1050900014331B78012B0ED132497A6813465B001A
:1050A0001344DB000B4412331B88042B03D97868AC
:1050B000FFF752FF4AE02B497A6813465B0013441E
:1050C000DB000B4414331B78032B0AD125497A6883
:1050D00013465B001344DB000B44143304221A70A4
:1050E00034E020497A6813465B001344DB000B442C
:1050F00014331B78042B0AD11A497A6813465B00D3
:105100001344DB000B44143302221A701EE01549CD
:105110007A6813465B001344DB000B4414331B789E
:10512000012B13D10F497A6813465B001344DB004F
:105130000B44083318687A6813465B001344DB009D
:10514000084A13440433194600F01CFE7B680133FF
:105150007B607B68092B7FF765AF00BF00BF083716
:10516000BD4680BD7850002080B58AB000AFF860A1
:105170000B467A60FB720A233B840A237B840A2352
:10518000BB840023FB840A23FB830023BB8300230F
:105190007B8300233B830023FB84AAE0B7F926200E
:1051A0009C4913465B001344DB000B4414331B780B
:1051B000FB75B7F924300A2B05D1FB7D002B02D1FA
:1051C000FB8CBB8491E0FB7D002B00F08E80FB7D8F
:1051D000012B05D0FB7D012B02D88F4815F0A0FCD8
:1051E000FB68002B20D0FB681968B7F92620894896
:1051F00013465B001344DB00034404331B689942ED
:1052000012D17B68002B0CD0B7F9262081491346B8
:105210005B001344DB000B4408331B687A689A4236
:1052200002D1B7F92630F0E0FB7D012B40D1B7F970
:105230002620784913465B001344DB000B441B68AF
:10524000002B1AD0B7F92620724913465B0013448D
:10525000DB000B4412331B88BA8B9A4245D8FB8C77
:10526000FB83B7F926206B4913465B001344DB0030
:105270000B4412331B88BB8337E0B7F926206549FE
:1052800013465B001344DB000B4412331B887A8BFC
:105290009A422AD8FB8C3B84B7F926205D491346F5
:1052A0005B001344DB000B4412331B887B831CE040
:1052B000FB7D012B19D9B7F92620564913465B000F
:1052C0001344DB000B4412331B883A8B9A420CD8F0
:1052D000FB8C7B84B7F926204E4913465B001344B0
:1052E000DB000B4412331B883B83FB8C01339BB2E6
:1052F000FB84B7F92630092B7FF750AFFB7A03F018
:105300000203002B08D1B7F924300A2B07D1FB7A0E
:1053100003F00103002B02D14FF0FF3375E0B7F922
:105320002430092B02DCBB8CFB8431E0B7F922303E
:10533000092B10DC7B8CFB84B7F9262035491346FA
:105340005B001344DB000B441B68002B14D0334874
:1053500015F0E6FB10E0B7F92030092B02DC3B8C9E
:10536000FB8409E0B7F91E30092B02DCFB8BFB84C0
:1053700002E04FF0FF3348E0B7F92630092B02DD99
:10538000274815F0CDFBB7F926301846FFF7E4FDA6
:10539000B7F92630092B02DD214815F0C1FBB7F91A
:1053A00026201C4913465B001344DB000B441433D6
:1053B0001B78002B02D01B4815F0B2FBFB68002BBA
:1053C0000BD0B7F92620FB681968124813465B001A
:1053D0001344DB00034404331960B7F926200D4958
:1053E00013465B001344DB000B44123300221A8087
:1053F000B7F92620074913465B001344DB000B4432
:1054000008337A681A60B7F9263018462837BD463F
:1054100080BD00BF78500020F03E0360303F036045
:10542000483F03605C3F036080B588B002AFF8601E
:10543000B9607A60FB70FB6893F83430062B02D0B9
:10544000464815F06DFBBB68002B12D0BB681B688B
:10545000002B0ED0BB681B68F96818461EF063FC71
:105460000346002B05D1BB681B6803F0F003E02B5B
:1054700002D16FF00F036CE0FB78FA681946B86848
:10548000FFF772FE0346FB82B7F91630002B02DAF3
:10549000FB8A5BB25DE0B7F91620314913465B0029
:1054A0001344DB000B44143302221A70B7F91620A0
:1054B0002B4913465B001344DB000B440833FA68A6
:1054C0001A60B7F9162013465B001344DB0008335B
:1054D000234A1344043306227968184627F066F8F5
:1054E000B7F916201E4913465B001344DB000B443A
:1054F000123300221A80B7F91620194913465B00AF
:105500001344DB000B441B68002B21D0B7F9162095
:10551000134913465B001344DB000B441B683B61DB
:10552000B7F916200E4913465B001344DB000B4409
:1055300000221A60FB6803F12E024FF4006300930F
:105540007B683969F868FEF705F9386903F0E8FC0B
:10555000002318461837BD4680BD00BF883F036052
:1055600078500020B0B58AB004AF7860396015F08B
:10557000B5FB3B68002B06D149481CF0C0FE4948EA
:105580001CF0BDFE88E07B685B683B613B691B8863
:105590009BB2B3F5807F0CD13B691B79062B08D1F8
:1055A0003B695B79042B04D13B695B889BB2082B78
:1055B00003D0786803F0B4FC6EE03B6903F10E01A0
:1055C00007F10C030422184626F0F0FF3B6903F1B3
:1055D000180107F108030422184626F0E7FF3B688C
:1055E00004331B68002B04D10023FB750023BB751B
:1055F00013E0BA683B6804331B689A420CBF01236E
:105600000023DBB2FB75FA683B6804331B689A42DF
:105610000CBF01230023DBB2BB753B6903F1080219
:10562000FB7D002B01D0012300E0022307F10C01D8
:105630003868FFF7F9FE3B69DB889BB2B3F5807FE2
:1056400003D0B3F5007F21D023E0FB7D002B1FD0DA
:10565000BB7D002B1CD13B6803F12E003B6903F19D
:1056600008043B6803F12E053B6804333A690832AD
:105670000221039107F10C010291019200932B4644
:1056800022460146386800F0DBFA01E000BF00E086
:1056900000BF786803F044FC1837BD46B0BD00BFBA
:1056A000D86803602081036080B586B002AFF860DF
:1056B000B9601346FB71FA79424913465B00134403
:1056C000DB000B4414331B78012B02D83E4815F045
:1056D00027FAFA793B4913465B001344DB000B447D
:1056E00014331B78022B53D1FA79364913465B00E9
:1056F0001344DB000B4412331B88B3F58E7F19D99A
:10570000FA7913465B001344DB002E4A134404333A
:105710001946F86800F036FB0346002B38D1FA79B9
:10572000284913465B001344DB000B441433032267
:105730001A702DE0FA79234913465B001344DB000D
:105740000B4412331B88B3F5877F21D3FA791346B4
:105750005B001344DB001B4A1344191DFA791346FE
:105760005B001344DB000833164A134404331A4623
:10577000F86800F0E5FA0346002B09D1FA791149DF
:1057800013465B001344DB000B44143303221A70EE
:10579000FB6803F12E01FA7913465B001344DB002A
:1057A0000833084A134404334FF4006200920A4657
:1057B000B968F868FDF7CEFF034618461037BD46B6
:1057C00080BD00BF78500020CC3F036080B58AB018
:1057D00002AFF860B9607A607B68BB6115F07EFA51
:1057E000FB68002B02D16D4815F09AF9BB68002BBD
:1057F00002D16B4815F094F97B68002B02D16948FF
:1058000015F08EF97B681B68F96818461EF08BFA54
:105810000346002B02D0644BFB61AFE07B681B6842
:1058200003F0F003E02B18D101233B7400237B74B9
:105830005E23BB747B6801331B7803F07F03DBB20C
:10584000FB747B6802331B783B757B6803331B78E2
:105850007B7507F11003FB6190E07B681A68FB68B9
:1058600004331B685A40FB6808331B681340002B45
:1058700012D07B681B689BB24FF6A96293420BD093
:10588000FB680C331B68002B03D0FB680C33BB6137
:1058900002E06FF003037DE0444B1B781946444A55
:1058A0000B465B000B44DB00134414331B78012BC5
:1058B00025D93E4B1B7819463D4A0B465B000B44ED
:1058C000DB00134408331B68FA689A4217D1BB699E
:1058D0001A68364B1B781846354903465B0003446B
:1058E000DB000B4404331B689A4208D12F4B1B7812
:1058F0001A46B968F868FFF7D7FE03464AE0002366
:10590000FB7531E0FA7D2A4913465B001344DB0046
:105910000B4414331B78012B23D9FA7D24491346F9
:105920005B001344DB000B4408331B68FA689A429F
:1059300017D1BB691968FA7D1D4813465B001344F3
:10594000DB00034404331B6899420AD1174AFB7DEC
:105950001370FB7D1A46B968F868FFF7A5FE034689
:1059600018E0FB7D0133FB75FB7D092BCAD9BA68B2
:10597000B969F86800F01EF803460BE0FB6803F114
:105980002E024FF400630093FB69B968F868FDF7D5
:10599000E1FE034618462037BD4680BDD868036047
:1059A000FC3F0360AC3F0360143C036040E7002011
:1059B0007850002080B58CB002AFF860B9607A6092
:1059C000FB682E337B61FF2387F8233000237B6243
:1059D000BB681B68F96818461EF0A5F90346002B42
:1059E0000CD1BB681B6803F0F003E02B06D0BB684A
:1059F000002B03D0BB681B68002B02D16FF00F0394
:105A00000DE1FA680121B868FFF7AEFB03467B821F
:105A1000B7F91230002B02DA7B8A5BB2FFE07B8A97
:105A20007E2B02D9804815F07BF87B8A7B747A7CC8
:105A30007E4913465B001344DB000B4414331B7890
:105A4000002B15D101237B627A7C784913465B00D9
:105A50001344DB000B44143301221A707A7C73491F
:105A600013465B001344DB000B440833FA681A60EA
:105A70007A7C6E4913465B001344DB000B441433FD
:105A80001B78012B0DD07A7C684913465B001344C8
:105A9000DB000B4414331B78012B02D8644815F04B
:105AA0003FF87B6A002B02D17B68002B28D1B968B4
:105AB000F86800F067F9034687F8233097F9233038
:105AC000002B17D17A7C594913465B001344DB0045
:105AD0000B4414331B78012B0CD17B6A002B09D1AA
:105AE0007A7C524913465B001344DB000B441233AB
:105AF00000221A807B68002B02D197F923308EE0B8
:105B00007B68002B02D14B4815F00AF87A7C474994
:105B100013465B001344DB000B4414331B78012B4A
:105B200017D9454A7B7C13707A7C13465B0013447B
:105B3000DB0008333D4A134404334FF40062009203
:105B40007A697968F868FDF705FE034687F823301F
:105B500063E07A7C354913465B001344DB000B4459
:105B600014331B78012B58D10023BB617B68FB6188
:105B700018E0FB695A89FB691B899A4206D1FB69C7
:105B80001B68002B02D02D4814F0CAFFFB691B7B59
:105B900003F04003002B02D00123BB6105E0FB6949
:105BA0001B68FB61FB69002BE3D1BB69002B07D0AD
:105BB0007A684FF420710E2003F006FDF86104E0CE
:105BC0007B68FB61F86903F025FAFB69002B21D0A3
:105BD0007A7C164913465B001344DB000B441B68B8
:105BE000002B0AD07A7C114913465B001344DB007A
:105BF0000B441B68184603F093F97A7C0B49134653
:105C00005B001344DB000B44FA691A60002387F839
:105C1000233002E0FF2387F8233097F9233018461A
:105C20002837BD4680BD00BF084003607850002083
:105C300018400360FC3F036040E7002040400360E1
:105C400080B58AB002AFF860B9607A603B6000232B
:105C5000FB77FB68002B02D1364814F061FF4FF44C
:105C600020721C210E2002F023FFB861BB69002BBB
:105C700002D14FF0FF3359E0BB695B891B2B02D87F
:105C80002D4814F04DFFBB695B687B61BB8E1846E5
:105C90001EF092F803461A467B69DA80FB6893F897
:105CA0003430062B02D0254814F03AFF7B690833C4
:105CB00006223968184626F079FC7B6912330622E1
:105CC000F96A184626F072FC7B690E330422B96A21
:105CD000184626F06BFC7B6918330422396B184692
:105CE00026F064FC7B6900221A70002242F0010257
:105CF0005A707B69002242F008029A700022DA7022
:105D00007B6906221A717B6904225A7140F60603E8
:105D100000937B68BA68B969F868FDF71BFDB8693C
:105D200003F0FEF80023BB6197F91F3018462037B7
:105D3000BD4680BDD86803605C400360904003604E
:105D400080B588B004AFF860B9607A60FB6803F191
:105D50002E01FB6803F12E00FB680433012203923D
:105D6000BA680292064A0192009303467A68F8687C
:105D7000FFF766FF034618461037BD4680BD00BFDB
:105D80001C3C036080B582B000AF78603960054A82
:105D900039687868FFF7D4FF034618460837BD46D0
:105DA00080BD00BF143C036080B58EB004AF786046
:105DB00039608B4B9B687B627B6A1B7803F00F0317
:105DC000DBB29B00DBB27B847B8C132B40F2F08038
:105DD0007B685B89032B40F2ED807B685B681B78F6
:105DE00087F821307B685B685B7887F8203097F80C
:105DF0002130002B00F0D580082B40F0D580794B66
:105E0000FB61774B5B6903F0F003E02B00F0D98076
:105E1000734B5B69724A1268114618461DF083FF86
:105E20000346002B40F0CF807B681B89072B40F294
:105E3000C38078681EF089F90346002B03D0786888
:105E400003F06EF8C8E07B8C0E33194678681EF0BC
:105E5000FCFA0346002B48D07B681A897B8C1344DC
:105E60007B837B681B897A8B9A42C0F0AE807B8BE8
:105E70004FF4207219460E2002F01AFE78617B69F9
:105E8000002B00F0A4807B695B891A467B8C083369
:105E90009A4203D2786903F043F899E07B695B6822
:105EA0007A8C796A184626F081FB7B8C19467869D2
:105EB00002F0ECFF0346002B06D04B4814F030FEF6
:105EC000786903F02DF883E07968786903F00CF9BC
:105ED0000346002B03D0786903F022F878E0786855
:105EE00003F01EF87B697B600CE07B8C0E33194657
:105EF000786802F0CBFF0346002B03D03B4814F038
:105F00000FFE65E07B685B683B617B8C19467868B7
:105F10001EF09BFA0346002B45D17B685B68FB6053
:105F2000FB691A68FB68DA602D4B1A69FB681A6115
:105F30003B6900221A703B695B889BB24FF6F7728F
:105F4000934207D93B695B889BB209339AB23B699C
:105F50005A8006E03B695B889BB208339AB23B6982
:105F60005A80FB68FF221A72FB6800229A72002294
:105F7000DA727B8C1946F8681EF0D5F803461A468B
:105F8000FB685A813B68029301230193002300932D
:105F9000FF230022F96978681DF05DFE0346FB725D
:105FA00001E000BF00E000BF786802F0B9FF13E035
:105FB00000BF02E000BF00E000BF786802F0B0FF61
:105FC0000AE000BF04E000BF02E000BF00E000BF45
:105FD000786802F0A5FF00BF2837BD4680BD00BF2E
:105FE000785100208C510020D440036008410360A8
:105FF00080B58CB004AF78600B46FB701346BB7065
:106000001C23FB837B681B89FA8B9A4202D97B682D
:106010001B89FB83FB8B08339BB24FF4207219461C
:10602000222002F045FDB861BB69002B50D0BB694E
:106030005B891A46FB8B08339A4202D2264814F039
:106040006FFD7B685B687B61BB695B683B613B693B
:10605000FA781A703B69BA785A703B6900221A7153
:1060600000225A7100229A710022DA71FA8B0823F9
:106070007968B86903F05AF87B69DB68BB6007F19F
:106080000803184600F0CEFBF860FB68002B1BD01D
:106090003B6900229A700022DA70BB695B8919465D
:1060A00038691EF040F803461A463B695A8007F1EA
:1060B0000802FB6802930123019300230093FF234E
:1060C0000021B8691DF0C7FDB86902F029FF00E0A2
:1060D00000BF2037BD4680BD3C41036080B400AFA7
:1060E000054B064A1A60064B064A1A6000BFBD46B9
:1060F0005DF8047B704700BF68510020E00000019C
:106100006C510020E000000280B584B000AF7860E0
:106110001149786800F022F8F860FB68002B14D071
:10612000FB6802225A72FB681B7B0133DAB2FB6800
:106130001A737B68DB6B002B05D07B68DB6B01225D
:10614000054978689847002301E04FF0FF3318466F
:106150001037BD4680BD00BF6851002080B584B0B7
:1061600000AF786039607B685B6AFB60396878688B
:106170001DF0C3FCB860BB68002B01D0BB683FE0DA
:106180000A2002F0A3F9B860BB68002B37D03B6847
:10619000002B02D03B681B6800E00023BA68536004
:1061A000BB6800225A81BB6800225A72BB68002279
:1061B0001A72BB6800221A73FB68002B0FD13B6870
:1061C0001A68114B1B689A4202D0104814F0A8FCC0
:1061D000BB6800221A607B68BA685A620FE03B68AD
:1061E0001A68094B1B689A4202D1094814F098FCBE
:1061F000FB681A68BB681A60FB68BA681A60BB68FB
:1062000018461037BD4680BD6851002068410360C4
:106210009C41036080B588B000AFF860B9607A60D7
:10622000FB685B89072B03D8F86802F079FE89E0E8
:10623000FB685B68BB61FB685B891946B8691DF048
:1062400072FF0346002B03D0F86802F069FE79E084
:106250007968B8681DF051FC03467B617B69002BAF
:1062600003D1F86802F05CFE6CE0BB691B78112B6F
:1062700002D0162B51D061E07B681A68334B1B6843
:106280009A4225D1BB690433002B03D0BB695B68FC
:10629000002B1DD1BB695B78002B02D1BB690A22A0
:1062A0005A70BB685B6AFB61FB69002B0CD0FB6911
:1062B0001B68FB6108E0BB695B781946F8691DF053
:1062C00084FCFB691B68FB61FB69002BF3D123E0B5
:1062D000BB690433002B2ED0BB695B68002B2AD02E
:1062E0007B681A68194B1B689A420AD1BB695B68C4
:1062F0003B6107F110031946B8681DF0FEFB034629
:106300007B617B69002B16D07A69BB695B78194683
:1063100010461DF05AFC0EE00DE07B695B7A012B04
:106320000BD17B6900225A817B6902225A727B69F8
:1063300000221A7201E000BF00E000BFF86802F01E
:10634000EFFD00BF2037BD4680BD00BF6851002073
:1063500080B584B000AF78603960FA23FB7314F025
:10636000BDFC3B681B6803F0F003E02B08D0254818
:106370001BF0C5FF24481BF0C2FF6FF005033CE093
:106380003B681A68214B1B689A4208D120481BF0D1
:10639000B6FF1D481BF0B3FF6FF005032DE01D4B4A
:1063A0001B68BB6024E0BB6893F8353003F0200322
:1063B000002B1AD07B68002B0AD07B681B68002B4F
:1063C00006D0BB6804331A687B681B689A420CD1FC
:1063D0003968B86800F020F80346FB7397F90F306E
:1063E000002B02D097F90F3007E0BB681B68BB6039
:1063F000BB68002BD7D197F90F3018461037BD4630
:1064000080BD00BFE041036020810360685100202F
:106410001842036078D7002080B584B000AF786060
:10642000396014F05BFC3B681B6803F0F003E02B61
:1064300008D02E481BF063FF2D481BF060FF6FF063
:1064400005034EE03B681A682A4B1B689A4208D144
:1064500029481BF054FF26481BF051FF6FF005033D
:106460003FE07B6893F8353003F02003002B08D120
:1064700022481BF044FF1E481BF041FF6FF005034C
:106480002FE039687868FFF769FEF860FB68002B39
:1064900025D0FB685B7A002B19D1FB681B7B002B96
:1064A00009D17B68DB6B002B05D07B68DB6B01229D
:1064B0003968786898471622F968786800F046F9D4
:1064C0000521F8681DF05FFBFB6801225A72FB682A
:1064D0001B7B0133DAB2FB681A73002301E04FF033
:1064E000FF3318461037BD4680BD00BF4C420360E5
:1064F000208103606851002088420360C442036029
:1065000080B586B000AF78603960FA23FB7514F06F
:10651000E5FB3B681B6803F0F003E02B08D0244840
:106520001BF0EDFE23481BF0EAFE6FF005033BE095
:106530003B681A68204B1B689A4208D11F481BF021
:10654000DEFE1C481BF0DBFE6FF005032CE01C4B4D
:106550001B683B6123E03B6993F8353003F020036F
:10656000002B19D07B68002B0AD07B681B68002B9E
:1065700006D03B6904331A687B681B689A420BD1CA
:106580003968386900F01EF80346FB7397F9173035
:10659000002B01D0FB7BFB753B691B683B613B69B2
:1065A000002BD8D197F9173018461837BD4680BD53
:1065B000FC42036020810360685100203443036083
:1065C00078D7002080B584B000AF7860396014F0CF
:1065D00085FB3B681B6803F0F003E02B08D02F48D5
:1065E0001BF08DFE2E481BF08AFE6FF0050350E075
:1065F0003B681A682B4B1B689A4208D12A481BF04B
:106600007EFE27481BF07BFE6FF0050341E07B68B0
:1066100093F8353003F02003002B08D123481BF0FA
:106620006EFE1F481BF06BFE6FF0050331E039680A
:1066300078681DF062FAF860FB68002B27D0FB68D1
:106640001B7B012B1BD8F96878681DF074FAFB6876
:106650001B7A002B04D01722F968786800F076F8CE
:106660007B68DB6B002B05D07B68DB6B0022396815
:1066700078689847F9680A2001F08CFF05E0FB680C
:106680001B7B013BDAB2FB681A73002301E06FF059
:10669000050318461037BD4680BD00BF6C4303603C
:1066A0002081036068510020AC430360E84303602D
:1066B00080B582B000AF154B1B687B601EE07B6825
:1066C0005B6A3B6014E03B685B89002B0DD03B6844
:1066D0005B89013B9AB23B685A813B685B89002B1E
:1066E00003D13968786800F013F83B681B683B6099
:1066F0003B68002BE7D17B681B687B607B68002BC5
:10670000DDD100BF00BF0837BD4680BD78D700206F
:1067100080B582B000AF786039603B685B7A012B4E
:106720000DD13B685A68084B1B689A4207D03B68FA
:1067300002225A7216223968786800F007F800BF02
:106740000837BD4680BD00BF6851002080B588B0C5
:1067500000AFF860B9601346FB710023BB610023F2
:106760007B612D4B1B683B610023FB614FF4207262
:106770000821362002F09CF9B861BB69002B47D094
:10678000BB695B687B61BB695B89072B02D82348C7
:1067900014F0C6F9FB6804331B683B61FB79162BC8
:1067A0000AD1BB680433FB61BB685A687B695A60D5
:1067B000BB6801221A7208E0FB79172B05D1184B30
:1067C000FB61BB685A687B695A60FB79162B02D063
:1067D000FB79172B19D17B69FA791A707B69002232
:1067E0005A707B6900229A700022DA700821786959
:1067F0001DF099FC03461A467B695A8007F1100187
:10680000FB68FA69B8691DF004FAB86902F088FB00
:1068100000BF2037BD4680BD9C4403602444036014
:106820006C51002080B584B000AF786014F056FA47
:106830007B681B6803F0F003E02B06D1354B1B6827
:10684000002B02D0334B1B6860E0334B1B68FB60AE
:1068500036E0FB6893F8353003F00103DBB2002B20
:106860002BD0FB6893F835309B0803F00103DBB2B3
:10687000002B22D0FB6804331B68002B1DD07B68E3
:106880001A68FB6804331B685A40FB6808331B68AE
:106890001340002B01D1FB6838E0FB6893F83530DA
:1068A00003F00203002B08D17B681A68FB680C33E5
:1068B0001B689A4201D1FB6828E0FB681B68FB60FB
:1068C000FB68002BC5D1154B1B68002B1AD0134B4E
:1068D0001B6893F8353003F00103002B12D00F4BE7
:1068E0001B6893F8353003F00403002B0AD00B4BE0
:1068F0001B6804331B68002B04D07B681B68DBB269
:106900007F2B01D1002301E0044B1B681846103790
:10691000BD4680BD7051002078D700207CD7002074
:1069200080B582B000AF78607B6893F8353003F0B3
:106930000103DBB2002B16D07B6804331B68002BED
:1069400011D00B4B5A697B6804331B689A4208D0FC
:10695000074B5B69796818461DF0E5F90346002B83
:1069600001D0012300E0002318460837BD4680BD52
:106970007851002080B588B000AF7860396001237D
:106980003B6114F0ABF97B685B687B617B691B78CA
:106990001B09DBB2042B04D0786802F0C1FA002393
:1069A00063E17B691B7803F00F03DBB29B00DBB272
:1069B0003B837B695B889BB218461DF0FDF903465B
:1069C0007B837B681B897A8B9A4204D27B8B194626
:1069D000786802F07BF97B685B893A8B9A4207D82A
:1069E0007B681B897A8B9A4202D83B8B132B04D885
:1069F000786802F095FA002337E13B8B19467869F5
:106A00001DF091FB0346002B04D0786802F088FA51
:106A100000232AE17B691B69964A53617B69DB6825
:106A2000944A1361934B5B6903F0F003E02B20D190
:106A30003B6893F8353003F02003002B16D08E49C5
:106A400038681DF05AF80346002B0FD08B4BBB6003
:106A5000884B5A69BB689A4205D1864B1B69002B4B
:106A600001D100233B613B68FB612AE00023FB610D
:106A700027E03868FFF754FF0346002B02D03B683D
:106A8000FB611EE00023FB617A4B5B69DBB27F2B6D
:106A900017D07B4B1B68FB610EE0FA693B689A429A
:106AA00006D0F869FFF73CFF0346002B08D100E051
:106AB00000BFFB691B68FB61FB69002BEDD100E0A7
:106AC00000BFFB69002B11D17B695B7A112B0DD1C3
:106AD0003B8B7A691344FB60FB685B889BB2B3F520
:106AE000884F03D13B68FB6100233B613B69002B6E
:106AF00017D0604B1B69002B13D05E4B1B693968A4
:106B000018461DF010F90346002B05D1594B1B699F
:106B100003F0F003E02B04D1786802F001FA0023BF
:106B2000A3E0FB69002B04D1786802F0F9F9002397
:106B30009BE07B69DB889BB21A464FF63F7313409C
:106B4000002B0BD0786800F04BFD78607B68002B41
:106B500001D1002389E07B685B687B61454AFB6962
:106B60001360444A3B685360424A7B6993607B6987
:106B70001B7803F00F03DBB29B00DBB29AB23D4BF4
:106B80009A813B8B1946786802F080F97B695B7AC1
:106B9000013B102B39D801A252F823F0F56B0060AD
:106BA000FF6B00600B6C00600B6C00600B6C006096
:106BB000EB6B00600B6C00600B6C00600B6C00609A
:106BC0000B6C00600B6C00600B6C00600B6C006069
:106BD0000B6C00600B6C00600B6C0060E16B006084
:106BE0003968786808F0DAF92CE03968786804F0D8
:106BF00043FA27E039687868FFF7D6F822E01E4AA2
:106C000039687868FFF706FB1CE01A4B5B69F96985
:106C100018461DF088F80346002B0FD1154B5B6911
:106C200003F0F003E02B09D0B7F918301946786863
:106C30001DF03BFC022178681CF022FF786802F00E
:106C40006FF900BF0B4B00221A600A4B00225A60FA
:106C5000084B00229A60074B00229A81054B0022C4
:106C60001A61044B00225A61002318462037BD46A2
:106C700080BD00BF785100208C510020E000000151
:106C800078D7002080B58AB000AFF860B9607A602C
:106C9000FB7000237B6214F021F8FB689B7B012BC7
:106CA00002D0A34813F03CFF7B68002B00F0148156
:106CB00014237B840023FB82B7F84030002B4DD097
:106CC000B7F84030282B02D96FF005032CE1B7F854
:106CD000403003339BB223F00303FB827A8CFB8AA0
:106CE00013447B84FB8A1946F8681DF0AEFB03460B
:106CF000002B02D06FF0010316E1FB685B68B7F868
:106D00004020F96B184625F051FCB7F84020FB8A6B
:106D10009A420CD2FB685A68B7F84030D018FA8A09
:106D2000B7F84030D31A1A46002125F043FC00235F
:106D3000FB610CE0FB685A68FB695B0013441B882D
:106D40001A467B6A13447B62FB690133FB61FB8A51
:106D50005B089BB21A46FB699342EBDB1421F8688F
:106D60001DF073FB0346002B02D06FF00103DBE044
:106D7000FB685B68BB61FB685B89132B02D86D48BD
:106D800013F0CEFEBB69FA781A72BB6997F834200B
:106D90005A7297F83420FB781B0213431B021AB275
:106DA00097F83410FB781B020B431B121BB2DBB2AB
:106DB0001BB213431BB29BB21A467B6A13447B621D
:106DC0007B681A68BB691A61BB691B699BB27A6AE6
:106DD00013447B62BB691B691B0C7A6A13447B6298
:106DE0007B8C9B089BB2DBB243F04003DAB2BB69F9
:106DF0001A70BB6997F830205A7097F83020BB6939
:106E00001B781B0213431B021AB297F83010BB69A0
:106E10001B781B020B431B121BB2DBB21BB21343CA
:106E20001BB29BB21A467B6A13447B62FB681B89C8
:106E300018461CF0C1FF03461A46BB695A80BB695D
:106E40005B889BB21A467B6A13447B62BB69002253
:106E50009A710022DA71384B1B8818461CF0ACFF7F
:106E600003461A46BB699A80BB699B889BB21A4647
:106E70007B6A13447B62304B1B8801339AB22E4BE2
:106E80001A80BB68002B04D12C4B1A68BB69DA60EE
:106E900003E0BB681A68BB69DA60BB69DB689BB258
:106EA0007A6A13447B62BB69DB681B0C7A6A134401
:106EB0007B627B6A1A0C7B6A9BB213447B627B6A9F
:106EC0001B0C7A6A13447B627B6ADB437B627B6ABE
:106ED0009AB2BB695A810FE0FB685B89132B02D819
:106EE0006FF0010320E0FB685B68BB61BB691B6955
:106EF0003B6107F110037B60BB6B9B8D002B0CD0BB
:106F0000FB681A89BB6B9B8D9A4206D97A68B96B6C
:106F1000F86800F02FFD034606E0BB6B5B697A68FA
:106F2000F968B86B9847034618462837BD4680BDB8
:106F3000604403606C44036030E700209C440360BD
:106F400080B48DB000AFF860B9607A6000233B6216
:106F5000FB681B68BB61BB68FB6207F11803BB627F
:106F6000002387F8273058E0002387F82630BB6AD3
:106F70001A78324BA3FB0213D9080B469B000B4433
:106F80005B00D31AFB77BB6A1B782C4AA2FB032356
:106F9000DB08DAB2BB6A1A7097F826305A1C87F8F9
:106FA00026201946FB7F3033DAB201F130033B442F
:106FB00003F81C2CBB6A1B78002BD8D111E03B6A6C
:106FC0005A1C3A627A689A4201DC002330E097F852
:106FD0002620FB6A591CF96230323A4412F81C2C04
:106FE0001A7097F826305A1E87F82620002BE6D113
:106FF0003B6A5A1C3A627A689A4201DC002317E025
:10700000FB6A5A1CFA622E221A70BB6A0133BB62F9
:1070100097F82730013387F8273097F82730032B6C
:10702000A2D9FB6A013BFB62FB6A00221A70BB68B3
:1070300018463437BD465DF8047B7047CDCCCCCCC8
:1070400080B584B000AF0023BB60124B1B68FB60AF
:1070500018E0FB68DB7F002B0BD0FB68DB7F013B7C
:10706000DAB2FB68DA77FB68BB60FB681B68FB6021
:1070700008E0FB687B60FB681B68FB60B9687868A8
:1070800000F00AF8FB68002BE3D100BF00BF103707
:10709000BD4680BD7451002080B588B000AF7860D7
:1070A00039600023FB833A687B689A4202D13D48ED
:1070B00013F036FD3B68002B07D03B681B687A68ED
:1070C0009A4202D0384813F02BFD7B685B685B68FE
:1070D0007B617B699B889BB2002B27D17B685B68B7
:1070E000BB617B691A687B685A60BB6958687B68BA
:1070F00008331422194625F059FA0121B8691CF009
:10710000CFFCB8691DF016FA03467B82FA8B7B8AA6
:107110001344B3F5803F02DB244813F001FDFA8BE2
:107120007B8A1344FB83B86901F0FAFE7B685B68D5
:10713000BB611CE0BB695B687B61BB69FB607B6911
:107140001B68BB61F8681DF0F5F903467B82FA8B7A
:107150007B8A1344B3F5803F02DB144813F0E0FC54
:10716000FA8B7B8A1344FB83F86801F0D9FEBB6974
:10717000002BDFD13968786800F0BAF80C4B1B8817
:10718000FA8B9A4202D90B4813F0CAFC084B1A88B2
:10719000FB8BD31A9AB2064B1A80FB8B184620370A
:1071A000BD4680BDA4440360B0440360C444036092
:1071B00032E70020E444036080B58AB000AF786015
:1071C000396000237B6100233B620023FB610023C5
:1071D000BB6100233B61284B1B687B6230E07B6A0C
:1071E0005A697B68DB689A420CD17B6A9A697B6832
:1071F0001B699A4206D17B6A9A897B689B889BB2FD
:107200009A4214D03B6901333B613B6A002B04D1A5
:107210007B6A3B62FB69BB6109E07B6ADA7F3B6AA0
:10722000DB7F9A4203D87B6A3B62FB69BB617B6A66
:107230001B68002B01D07B6AFB617B6A1B687B6249
:107240007B6A002BCBD13B6A002B08D0B969386A26
:10725000FFF722FFF8607A69FB6813447B617A6963
:107260003B689A4202DA3B69012BACDC7B69184629
:107270002837BD4680BD00BF7451002080B584B062
:1072800000AF78603960042001F020F9F860FB68F5
:10729000002B10D139687868FFF78EFF02463B68F3
:1072A000934203DC042001F011F9F860FB68002B25
:1072B00001D1002316E020220021F86825F07AF998
:1072C000FB680F22DA77094B1A68FB681A60074AD5
:1072D000FB681360FB68083314227968184625F0B0
:1072E00065F9FB6818461037BD4680BD7451002013
:1072F00080B582B000AF786039600E4B1B687A6849
:107300009A4204D17B681B680A4A136009E03B6813
:10731000002B02D1084813F003FC7B681A683B6815
:107320001A607968042001F035F900BF0837BD46BE
:1073300080BD00BF745100200845036080B58CB04B
:1073400000AFF860B9607A600023BB6201233B6242
:10735000BB685B68FB61FB695B889BB218461CF0ED
:107360002BFD03467B83FB691B7803F00F03DBB225
:107370009B007B767B7E9BB27A8B9A4202D24FF047
:10738000FF3321E17B7E9BB27A8BD31A7B83FB692F
:10739000DB889BB218461CF00FFD0346C3F30C03B9
:1073A0009BB2DB00FB82BB685B68FB62FB6A00226E
:1073B0001A7000225A7000229A700022DA70FB6A5A
:1073C000FA8A9A80FA8A7B8B13449AB2FB6ADA8033
:1073D000FB6ADB889BB2FA8A9A4202D94FF0FF33EC
:1073E000F2E0FB685B687B6268E07B6A5B683B613C
:1073F000FB6A9B889AB23B699B889BB29A4235D2C2
:10740000FB6A7A6A1A60BB6A002B20D0FB6A9B88F1
:107410009AB2BB6ADB889BB29A4207D3FB6ADB88CD
:107420009AB23B699B889BB29A4202D94FF0FF33D4
:10743000CAE0BB6ABA681A60BB6ADB889AB2FB6AA8
:107440009B889BB29A423DD000233B623AE0FB6AA4
:10745000DB889AB23B699B889BB29A4202D94FF073
:10746000FF33B1E0FB68BA685A602BE0FB6A9B8887
:107470009AB23B699B889BB29A4202D14FF0FF338C
:10748000A2E0FB6A9B889AB23B69DB889BB29A4276
:1074900002D24FF0FF3397E0BB6A002B09D0BB6AE2
:1074A000DB889AB23B699B889BB29A4201D0002349
:1074B0003B623B691B687B623B69BB627B6A002B5A
:1074C00093D100E000BF7B6A002B25D1BB6A002B63
:1074D00018D0BB6ADB889AB2FB6A9B889BB29A423F
:1074E00002D93B4813F01CFBBB6ABA681A60BB6A3E
:1074F000DB889AB2FB6A9B889BB29A420CD000232D
:107500003B6209E0FB685B68002B02D0314813F056
:1075100007FBFB68BA685A607B68002B05D1FB68E3
:107520009B7F03F00103002B4DD03B6A002B43D01F
:10753000FB685B68002B06D0FB685B685B689B8818
:107540009BB2002B02D000233B6235E0FB6ABB629A
:10755000FB6A1B687B6212E07B6A5B68FB62BB6A4A
:10756000DB889AB2FB6A9B889BB29A4202D00023C6
:107570003B6207E0FB6ABB62FB6A1B687B627B6A5B
:10758000002BE9D13B6A002B16D0FB685B68002B0F
:1075900002D1114813F0C4FAFB685B685B68FA6AB1
:1075A0009A4202D10C4813F0BBFAFB6A1B68002B0D
:1075B00002D00A4813F0B4FA3B6A002B14BF01232F
:1075C0000023DBB200E0002318463037BD4680BD03
:1075D00024450360444503607C4503608C4503609B
:1075E00080B58EB000AF78607B685B68BB62BB6AB9
:1075F0001B7803F00F03DBB29B00DBB2142B40F0CF
:107600006D81BB6ADB889BB218461CF0D5FB034634
:10761000C3F30C039BB2DB00FB84BB6A5B889BB2A9
:1076200018461CF0C9FB0346BB84BB6A1B7803F0F9
:107630000F03DBB29B0087F8233097F823309BB20F
:10764000BA8C9A42C0F04C8197F823309BB2BA8C26
:10765000D31ABB8478681CF06DFF03463B849A4BB9
:107660001B881A463B8C13440A2B10DD3B8C1946B1
:10767000B86AFFF7A1FD0346002B00F03381924B5F
:107680001B881A463B8C13440A2B00F32B818F4B2B
:107690001B683B6315E03B6B5A69BB6ADB689A4227
:1076A0000CD13B6B9A69BB6A1B699A4206D13B6B52
:1076B0009A89BB6A9B889BB29A4206D03B6B1B6837
:1076C0003B633B6B002BE6D100E000BF3B6B002B24
:1076D00009D13B8C1946B86AFFF7D0FD38633B6B84
:1076E000002B1CD101E1BB6ADB889BB218461CF061
:1076F00063FB0346C3F30C03002B10D13B6BDB8908
:1077000018461CF059FB0346C3F30C03002B06D0AC
:107710003B6B08331422B96A184624F047FFBB6A52
:10772000DB889BB203F02003002B0CBF0123002356
:10773000DBB2FB61FB69002B0ED0FA8CBB8C1344CF
:107740007B837A8BFB8C9A42C0F0A4807B8B4FF6B4
:10775000EB72934200F29E80FA697968386BFFF70A
:10776000EDFD78617B69B3F1FF3F00F09580564BEA
:107770001A883B8C13449AB2534B1A80FB69002B36
:107780000DD0FA8CBB8C13447B823B6B7A8A9A8334
:107790003B6B9B7F43F00103DAB23B6B9A777B69CB
:1077A000012B75D13B6B9B8B14333B823B6B5B682E
:1077B0005B681B68FB623B6B5B685B68BB623B6B37
:1077C000083314221946B86A24F0F0FE3B8A1846A2
:1077D0001CF0F2FA03461A46BB6A5A80BB6A0022C2
:1077E0009A710022DA71BB6A00229A720022DA7260
:1077F0001421B86A1CF097FC03461A46BB6A5A81EA
:107800003B6B5B687B600DE0FB6A5B68FB6014218F
:10781000F86A01F03BFBF96A786801F01BFCFB6831
:107820001B68FB62FB6A002BEED1284B1B683A6B8E
:107830009A4202D100237B6310E0244B1B687B63D8
:1078400007E07B6B1B683A6B9A4206D07B6B1B6828
