:0200000460009A
:10000000464346420004015600000000010303007D
:1000100000000000000000000000000000000000E0
:1000200000000000000000000000000000000000D0
:1000300000000000000000000000000000000000C0
:1000400000000000000406000000000000000000A6
:100050000000800000000000000000000000000020
:100060000000000000000000000000000000000090
:100070000000000000000000000000000000000080
:10008000EB04180A063204260000000000000000FD
:100090000000000000000000000000000000000060
:1000A0000000000000000000000000000000000050
:1000B0000000000000000000000000000000000040
:1000C0000000000000000000000000000000000030
:1000D0000000000000000000000000000000000020
:1000E0000000000000000000000000000000000010
:1000F0000000000000000000000000000000000000
:1001000000000000000000000000000000000000EF
:1001100000000000000000000000000000000000DF
:1001200000000000000000000000000000000000CF
:1001300000000000000000000000000000000000BF
:1001400000000000000000000000000000000000AF
:10015000000000000000000000000000000000009F
:10016000000000000000000000000000000000008F
:10017000000000000000000000000000000000007F
:10018000000000000000000000000000000000006F
:10019000000000000000000000000000000000005F
:1001A000000000000000000000000000000000004F
:1001B000000000000000000000000000000000003F
:1001C000000100000010000000000000000000001E
:1001D000000001000000000000000000000000001E
:1001E000000000000000000000000000000000000F
:1001F00000000000000000000000000000000000FF
:10020000FFFFFFFFFFFFFFFFFFFFFFFFFFFFFFFFFE
:10021000FFFFFFFFFFFFFFFFFFFFFFFFFFFFFFFFEE
:10100000D10020410020006000000000000000002E
:1010100020100060001000600000000000000000D0
:10102000000000600000800000000000FFFFFFFFE4
:10103000FFFFFFFFFFFFFFFFFFFFFFFFFFFFFFFFC0
:10104000FFFFFFFFFFFFFFFFFFFFFFFFFFFFFFFFB0
:10105000FFFFFFFFFFFFFFFFFFFFFFFFFFFFFFFFA0
:10106000FFFFFFFFFFFFFFFFFFFFFFFFFFFFFFFF90
:1020000000000220092300608D230060958E02608D
:10201000912300609323006095230060000000007E
:10202000000000000000000000000000A12300608C
:102030009923006000000000D123006089DD016069
:10204000B3880260BB880260C3880260CB880260EC
:10205000D3880260DB880260E3880260EB8802605C
:10206000F3880260FB880260038902600B890260CA
:10207000138902601B890260238902602B89026038
:10208000338902603B890260438902604B890260A8
:10209000538902605B890260638902606B89026018
:1020A000738902607B890260838902608B89026088
:1020B000938902609B890260A3890260AB890260F8
:1020C000B3890260BB890260C3890260CB89026068
:1020D000D3890260DB890260E3890260EB890260D8
:1020E000F3890260FB890260038A02600B8A026046
:1020F000138A02601B8A0260238A02602B8A0260B4
:10210000338A02603B8A0260438A02604B8A026023
:10211000538A02605B8A0260638A02606B8A026093
:10212000738A02607B8A0260838A02608B8A026003
:10213000938A02609B8A0260A38A0260AB8A026073
:10214000B38A0260BB8A0260C38A0260CB8A0260E3
:10215000D38A0260DB8A0260E38A0260EB8A026053
:10216000F38A0260FB8A0260038B02600B8B0260C1
:10217000138B02601B8B0260238B02602B8B02602F
:10218000338B02603B8B0260438B02604B8B02609F
:10219000538B02605B8B0260638B02606B8B02600F
:1021A000738B02607B8B0260838B02608B8B02607F
:1021B000938B02609B8B0260A38B0260AB8B0260EF
:1021C000B38B0260BB8B0260C38B0260CB8B02605F
:1021D000D38B0260DB8B0260E38B0260EB8B0260CF
:1021E000F38B0260FB8B0260038C02600B8C02603D
:1021F000138C02601B8C0260238C02602B8C0260AB
:10220000C938026005390260338C02603B8C026081
:10221000438C02604B8C0260538C02605B8C0260CA
:10222000638C02606B8C0260738C02607B8C02603A
:10223000838C02608B8C0260938C02609B8C0260AA
:10224000A38C0260AB8C0260B38C0260BB8C02601A
:10225000C38C0260CB8C0260D38C0260DB8C02608A
:10226000E38C0260EB8C0260F38C0260FB8C0260FA
:10227000038D02600B8D0260138D02601B8D026066
:10228000238D02602B8D0260338D02603B8D0260D6
:10229000438D02604B8D0260538D02605B8D026046
:1022A000638D02606B8D0260738D02607B8D0260B6
:1022B000838D02608B8D026094F203600000002029
:1022C000CC01000094F20360000000000000000058
:1022D00094F20360000020200000000094F20360EC
:1022E0000000E081000000000008002044FE000023
:1022F000000000000000000000002020000000009E
:102300000000E0810000000072B6104B83F30888E3
:1023100020F002FB0E4B07E003F10C049A685968A9
:10232000186800F01BF823460A4A9342F4D306E0EB
:102330001C46596854F8080B00F01FF82346064A5B
:102340009342F5D362B630F011FAFEE700000220A6
:10235000B8220060E8220060082300600023934256
:102360000AD210B450F8044B41F8044B04339342A2
:10237000F8D35DF8044B70477047002303E0002258
:1023800040F8042B04338B42F9D37047FEE7FEE795
:10239000FEE7FEE7FEE7FEE7FEE7FEE7FEE7FEE715
:1023A000074B19680868B0E8F04F80F30988BFF35D
:1023B0006F8F4FF0000080F311887047AFF30080FB
:1023C000D000012000BF00BFFFFFFFFFFFFFFFFFA6
:1023D000EFF30980BFF36F8F154B1A681EF0100FD3
:1023E00008BF20ED108A20E9F04F10602DE90900A8
:1023F0004FF0200080F31188BFF34F8FBFF36F8F32
:102400001CF0CAFC4FF0000080F3118809BC196869
:102410000868B0E8F04F1EF0100F08BFB0EC108A4B
:1024200080F30988BFF36F8F704700BFAFF3008060
:10243000D000012000BF00BF80B582B000AF78603F
:102440007968024823F0F6FD00BEFDE7802F0360A7
:1024500080B584B000AFF860B9601346FB80FB68BC
:10246000002B11D0BB68002B0ED0FB8843F2235207
:1024700093420AD0FB88002B07D1054B1B68002133
:1024800018462EF092FE00E000BF1037BD4680BD1A
:102490007C64002080B584B000AF786043F22153A3
:1024A000FB81012279680C482FF033FE0346FB8143
:1024B000FB89002B02D00123FB8108E0074B1B683E
:1024C0004FF0FF3118461CF019F80023FB81FB89FF
:1024D00018461037BD4680BDAC6B00207C640020E0
:1024E00080B588B000AF7860396000237B617B687D
:1024F000002BFCD03B68002BFCD023F07DFCF86067
:10250000374BD3F8CC20364BD3F8D0309A4216D084
:1025100001237B61324BD3F8CC20314BD3F8C83048
:102520001A442F4BD3F8D030D31A2D4AD2F8C820F2
:10253000B3FBF2F101FB02F29B1ABB6101E0002345
:10254000BB61274BD3F8C820BB69D31A013BBB61E1
:10255000BA693B689A4205D2F86823F05EFC4FF0F6
:10256000FF3338E000233B611EE03B697A681A4480
:102570001B4BD3F8CC30591C1948C0F8CC1011783B
:10258000174A13440A4683F8D420154BD3F8CC20BD
:10259000134BD3F8C8309A4203D3114B0022C3F82F
:1025A000CC203B6901333B613B683A699A42DCDBF2
:1025B0000023FB617B69002B03D1094823F03DFC1C
:1025C000F861F86823F029FCFB69002B01D13B6816
:1025D00001E04FF0FF3318462037BD4680BD00BFF5
:1025E0008064002080B588B000AF7860396043F225
:1025F0002153FB823B68BB617B68002BFCD03B68AE
:10260000002B01D1002368E0364B1B68002B01D161
:10261000002362E023F0F0FB3861334BD3F8CC2089
:10262000314BD3F8D0309A4214D02F4BD3F8CC2072
:102630002D4BD3F8C8301A442B4BD3F8D030D31AD3
:10264000294AD2F8C820B3FBF2F101FB02F29B1A2F
:10265000FB6101E00023FB61234BD3F8C820FB6939
:10266000D31A013BFB61FB69002B21D0FA69BB69DE
:102670009A4206D21C4BD3F8C830013BBA699A4241
:1026800016D3FA69BB699A4201D9BB69FB613A6802
:10269000BB69D31A7A681344F9691846FFF720FF1B
:1026A000F860FB68002B03DDFB68BA69D31ABB61D5
:1026B000386923F0B2FBBB69002B06D000F008F9A3
:1026C0000346FB82FB8A002B03D1BB69002BA1D1FF
:1026D00000E000BF3A68BB69D31A18462037BD46F0
:1026E00080BD00BFD86B00208064002080B586B01C
:1026F00000AF78607B68002BFCD0194B1B68002B67
:1027000002D14FF0FF3326E0EFF305833B613B69D5
:10271000002B06D1134B1B684FF0FF3118461BF0FE
:10272000EDFE7868FFF7B6FE0346002B02D10123C9
:102730007B6102E04FF0FF337B61EFF30583FB60C9
:10274000FB68002B06D1074B1868002300220021EC
:102750001BF0F6FC7B6918461837BD4680BD00BFEC
:10276000D86B00207864002080B58AB000AFB960D3
:102770007B600346FB731346BB730023FB84FB7B28
:102780003B74BB7B3B77464B7B614FF48063BB6103
:102790000023FB83BB7B012B03D143F22153FB843A
:1027A00017E0BB7B022B03D107F110033B6210E063
:1027B000BB7B032B03D143F22153FB8409E0BB7B9A
:1027C000042B03D143F22153FB8402E043F2215353
:1027D000FB84FB8C43F2215293425CD04FF4EB62BA
:1027E000002130482FF0CDFF2E4B4FF40072C3F87C
:1027F000C8202C4B2C4A1A602A4B1B6807F1140284
:102800001146184620F026FC0346FB84FB8C002B67
:10281000FCD101202EF0D4FB0346244A136003228E
:10282000002101202EF030FB0346214A13601D4B8E
:102830001B682049184620F071FC0346FB84FB8C82
:10284000002BFCD1174A1C491A4820F0DFFC154B1D
:102850001B681A49184620F061FC0346FB84FB8C78
:10286000002BFCD10F4A1649144820F0CFFC0D4B29
:102870001B681449184620F089FC0346FB84FB8C36
:10288000002BFCD1074A10490E4820F0DFFC054B15
:102890001B680E4A1360FB8C18462837BD4680BD66
:1028A0005467002080640020846400207864002045
:1028B0007C640020546B0020FF5E0260806B00206F
:1028C000795F0260AC6B002051240060D86B00205F
:1028D00080B582B000AF10E0EFF305837B607B68CA
:1028E000002B08D11CF03EFD0346022B05D1012030
:1028F0001CF068F801E0012308E0064BD3F8CC2077
:10290000044BD3F8D0309A42E6D10023184608375A
:10291000BD4680BD8064002080B5A4B000AF786063
:1029200039600023C7F888300023C7F88C300023B3
:10293000BB6007F10C037C22002118462FF021FF19
:102940000E4B1B68002B12D007F108020C4B3968A4
:10295000786823F095FFC7F88800D7F8882007F13A
:10296000080311461846FFF73DFEC7F88C00D7F85C
:102970008C3018469037BD4680BD00BFD86B002014
:10298000CF5F026080B487B000AF78607B681B685F
:102990007B6100233B610023FB734CE07B690133C7
:1029A0007B617B691B78203B102B3ED801A252F83B
:1029B00023F000BF0D2A00602B2A00602B2A006044
:1029C000212A00602B2A00602B2A00602B2A00603D
:1029D0002B2A00602B2A00602B2A00602B2A006023
:1029E000032A00602B2A0060F92900602B2A00606E
:1029F0002B2A0060172A00603B6943F001033B610A
:102A000019E03B6943F002033B6114E03B6943F08A
:102A100004033B610FE03B6943F008033B610AE0BC
:102A20003B6943F010033B6105E07B69013B7B613F
:102A30000123FB7300BFFB7B83F00103DBB2002BA0
:102A4000ACD17B687A691A603B6918461C37BD4671
:102A50005DF8047B704700BF80B48DB000AF0346C3
:102A6000FB7100237B620023BB62314A07F1140330
:102A700007CA83E807002E4A07F1080307CA83E85C
:102A80000700FB79012B01D800234BE0FB79022BD7
:102A900002D0FB79032B03D1FB79023BFB7112E0DF
:102AA000FB79062B02D0FB79072B03D1FB79063B80
:102AB000FB7108E0FB790A2B02D0FB790B2B02D1CA
:102AC000FB790A3BFB710023FB6218E0FB6A9B0069
:102AD00030333B4453F81C3C002B0DD0BA6A531CD6
:102AE000BB62FB6A9B0030333B4453F81C1C9300D1
:102AF00030333B4443F8281CFB6A0133FB62FB6A1A
:102B0000022BE3D9FB79BA6A9A4201D2002309E089
:102B1000FB799B0030333B4453F8283C3B623B6AD3
:102B20007B627B6A18463437BD465DF8047B70478C
:102B3000942F036080B586B000AF0346B9607A6019
:102B4000FB73FB7B1846FFF787FF78617B69002BDF
:102B500001D101234AE02749FB7B9A1E13465B0003
:102B600013445B010B4403F5DA734FF4C0121A608F
:102B70007B691B6B43F480427B691A637B691B6B27
:102B800043F400427B691A637B6900221A60FB7B75
:102B90000A2B08D0FB7B0B2B05D0FB7B062B02D02E
:102BA000FB7B072B07D17B694FF400225A637B69BB
:102BB0004FF480125A637B68002B16D07B691A6928
:102BC0000D4B13407A68127802F00F017A68527840
:102BD000120402F4702211437A689278120202F40D
:102BE00070620A431A437B691A610023184618373A
:102BF000BD4680BD00800D40F0F0F0FF80B588B08C
:102C000000AF78600B46FB701346BB70FB785A0030
:102C1000BB781344BB610023BB600023FB607A6870
:102C2000BB6904339B0013445B6823F01F03FB6103
:102C3000A2E0BB68002B0CD1FB699B687B617A69C1
:102C4000524B1340FA69928BC2F30B0292B21343B8
:102C5000BB60FB695B68DBB25BB2002B03DA4FF051
:102C6000FF33FB600DE0FB69DB69C3F312331A46E7
:102C7000FB695B68C3F30E439BB2D21AFB68134433
:102C8000FB607A68BB6904339B0013445A68796817
:102C9000BB690C339B000B445B689A421CD17A6879
:102CA000BB6904339B00134400225A607A68BB69F5
:102CB0000C339B00134400225A607B689A68BB69FE
:102CC0009B01134401229A607B689A68BB699B014F
:102CD00013440022DA600DE07A68BB6904339B007C
:102CE00013445B681B6819467A68BB6904339B0010
:102CF00013445960FB695B68C3F3C033DBB2002B3C
:102D000009D17A68BB6904339B0013445B6823F0E4
:102D10001F03002B14D1BB78DB01DAB2FB7813431D
:102D2000DBB23B7400237B747B681B6807F10802ED
:102D30001146184625F05CF90023BB600023FB60B8
:102D4000FB6900225A607B681B691A46FB691A609E
:102D50007B68FA691A617B6893F854300133DAB200
:102D60007B6883F854207A68BB6904339B00134462
:102D70005B6823F01F03FB61FB69002B7FF459AFF5
:102D800000BF00BF2037BD4680BD00BF00F0FFFF81
:102D900080B58CB000AF78607B685B68D3F8AC31ED
:102DA0007B627B6A002B50D0002387F82B3048E0F1
:102DB00097F82B307A6A22FA03F303F00103002B11
:102DC0003AD07B689A6897F82B305B00DBB29B01A6
:102DD000134430333B623B6AFB61FB691B78DB09C0
:102DE00087F82A3097F82A2097F82B301946786808
:102DF000FFF704FF97F82A3083F00103DAB297F85F
:102E00002B3019467868FFF7F9FE97F82B303B74A2
:102E1000FB69BB600823FB6001237B7497F82B30B0
:102E20001946786824F02CFA7B681B6807F10802C1
:102E30001146184625F0DCF897F82B30013387F857
:102E40002B3097F82B30032BB2D97B685B68D3F813
:102E5000BC317B627B685B687A6AC3F8BC217B6AA1
:102E6000002B00F0A681002387F829309CE197F819
:102E700029307A6A22FA03F303F00103002B00F0F1
:102E80008E8197F829300F2B08D997F82930103BFD
:102E900087F82B30012387F82A3006E097F829308D
:102EA00087F82B30002387F82A3097F82B30032B34
:102EB00000F2728197F82B305B00DAB297F82A3073
:102EC0001344FB760023BB600023FB6097F82B3094
:102ED000002B23D197F82A30012B1FD17B689A68E9
:102EE000FB7E9B01134493F8383003F00203DBB2FE
:102EF000002B13D07B689A68FB7E9B0113441B68F0
:102F0000C3F34073DBB2002B08D17B689A68FB7E69
:102F10009B011A44136843F000531360FB7E7A68E8
:102F200004339B0013445B6823F01F03FB622EE114
:102F3000002387F82830FB7E7A6804339B00134413
:102F40005B6823F01F03FB6222E0FB6A5B68DBB275
:102F50005BB2002B06DBFB6A5B68C3F3C033DBB2FA
:102F6000002B10D0FB6A5B68DBB25BB2002B13DB7B
:102F7000FB6A5B68C3F3C033DBB2002B0CD00123C8
:102F800087F8283008E0FB6A1B6823F01F03FB6208
:102F9000FB6A002BD9D100E000BF97F82830002B46
:102FA00003D1FB6A002B40F0F980FB7E7A68043382
:102FB0009B0013445B6823F01F03FB62E3E0FB6AA2
:102FC0005B68DBB25BB2002B00DAE0E0BB68002B91
:102FD0000AD1FB6A9A68794B1340FA6A928BC2F362
:102FE0000B0292B21343BB60FB6ADB69C3F312337B
:102FF0001A46FB6A5B68C3F30E439BB2D21AFB68A6
:103000001344FB60FB7E7A6804339B0013445A68C8
:10301000FB7E79680C339B000B445B689A421CD1A1
:10302000FB7E7A6804339B00134400225A60FB7EC7
:103030007A680C339B00134400225A607B689A68BC
:10304000FB7E9B01134401229A607B689A68FB7E99
:103050009B0113440022DA600DE0FB7E7A680433A2
:103060009B0013445B681A68FB7E11467A68043340
:103070009B0013445960FB6A5B68C3F3C033DBB247
:10308000002B09D1FB7E7A6804339B0013445B68F4
:1030900023F01F03002B16D197F82A30DB01DAB298
:1030A00097F82B301343DBB23B7400237B747B68AF
:1030B0001B6807F108021146184624F099FF002307
:1030C000BB600023FB60FB6A00225A607B681B69BF
:1030D0001A46FB6A1A607B68FA6A1A617B6893F881
:1030E00054300133DAB27B6883F85420FB7E7A686F
:1030F00004339B0013445B6823F01F03FB62FB6AED
:10310000002B40D0FB6A5B68DBB25BB2002B3ADA83
:1031100097F82B2097F82A301B011344012202FA5A
:1031200003F37B617B685B687A69C3F8B0217B68D5
:103130005B68D3F8B8217B691340002B23D100BF13
:103140007B685B68D3F8B0217B691340002BF7D113
:103150007B685B68D3F8B8217B691340002B12D1E0
:103160007B689A68FB7E9B011344FA6A9A607B68CD
:103170009A68FB7E9B0113440022DA607B685B68DF
:103180007A69C3F8B021FB6A002B7FF418AFFB6AA1
:10319000002B7FF4CDAE02E000BF00E000BF97F847
:1031A0002930013387F8293097F829301F2B7FF613
:1031B0005EAE00BF3037BD4680BD00BF00F0FFFFF0
:1031C00080B592B000AFF8607A603B600B46FB724E
:1031D000FB7A5B0003F01E03FA7AD209D2B21343E2
:1031E000BB62FB7A03F00F02FB7ADB0803F01003EB
:1031F0001343012202FA03F37B627B6A3B640023E0
:10320000BB633A6843F6FF7313449B0B7B63002355
:1032100087F83330012387F832300023FB62002324
:103220003B61FB68002B01D103239FE1FB689A6897
:10323000BB6A9B01134493F8383003F00103DBB2FF
:10324000002B01D1012391E1FB6893F85630002B4C
:1032500001D001238AE17B6B002B01D101237B6329
:1032600007F1100318462FF095F8FB6893F85430D7
:103270001A467B6B934205D93B6918462FF0AAF892
:10328000022373E13B68B3F5804F03D94FF48043C9
:10329000FB6301E03B68FB633A68FB6BD31A3B605E
:1032A000FB681B693B623B6A1B681A46FB681A6134
:1032B000FB6893F85430013BDAB2FB6883F8542082
:1032C000BB6B002B01D13B6A7B643B6A01221A6015
:1032D0003B6A00225A607A68BB6B13441A463B6A09
:1032E0009A603B6A9B6803F58052A24B13403A6A8E
:1032F000D3603B6ADB6803F580523B6A1A613B6A24
:103300001B6903F580523B6A5A613B6A5B6903F5AE
:1033100080523B6A9A61FB6BC3F30E0399B23A6A1F
:10332000536861F31E435360FB6BC3F312013A6AA7
:10333000D36961F31E33D3613B6A9B68C3F30B030C
:1033400099B23A6A938B61F30B0393833A6AD37F02
:103350006FF3C713D3773B68002B04D13A6A5368E5
:1033600043F4004353603A6A5368802161F30703D2
:103370005360BA6BFB6B1344BB63FA68BB6A0C33D4
:103380009B0013445B68002B0FD0FA68BB6A0C33B8
:103390009B0013445B683A6A1A60FA68BB6A0C3394
:1033A0009B0013443A6A5A6010E0FA68BB6A04331F
:1033B0009B0013443A6A5A60FA68BB6A0C339B005C
:1033C00013443A6A5A60012387F833303B68002B74
:1033D0007FF458AFFB7A03F00F03002B43D1FB7A45
:1033E000DB09DBB2012B3ED1FB7A03F00F03DBB22A
:1033F0005B00FB77FB689A68FB7F9B0113443033CB
:10340000BB61BB697B61FB689A68BB6A9B01134423
:1034100093F8383003F00203DBB2002B23D0FB6BB0
:10342000002B20D07B69DB881A46FB6B93421AD2B3
:10343000FB689A68BB6A9B0113441B68C3F30A4389
:103440009BB21A46FB6BB3FBF2F101FB02F29B1A33
:10345000002B08D1FB689A68BB6A9B011A44136869
:103460006FF35D73136097F83330002B35D1FB6831
:103470005B68D3F8B0217B6A1340002B1FD03B69F7
:1034800018462EF0A7FF002370E0FB685B68D3F8B6
:103490004021FB685B6842F48042C3F84021FB682E
:1034A0005B68D3F8B8313B64FB685B68D3F84031A4
:1034B00003F48043002B02D0002387F8323097F8C2
:1034C0003230002BE1D1FB685B68D3F84021FB6808
:1034D0005B6822F48042C3F8402197F83330002B18
:1034E00004D13A6C7B6A1340002B3AD1FB689A688E
:1034F000BB6A9B0113447A6C9A60FB689A68BB6A4A
:103500009B0113440022DA60BFF34F8F00BFFB68BA
:103510005B687A6AC3F8B02119E0FB6A0133FB6289
:10352000FB6A154A934205D13B6918462EF052FFBB
:1035300001231BE0FB685B68D3F8BC217B6A134066
:10354000002B0DD1FB685B687A6AC3F8B021FB6879
:103550005B68D3F8B8217B6A1340002BDDD000E014
:1035600000BF3B6918462EF035FF00231846483748
:10357000BD4680BD00F0FFFF8096980080B485B006
:1035800000AF78600023FB7315E0FB7B0F4AD35C30
:10359000002B0DD1FB7B0D4A0121D1547B68FA7BB6
:1035A0001A70FB7B5C2202FB03F3094A134406E01A
:1035B000FB7B0133FB73FB7B002BE6D0002318461B
:1035C0001437BD465DF8047B704700BF386C00209F
:1035D000DC6B002080B58AB000AF0346B9607A602A
:1035E000FB7300237B623F4A07F1180392E8030054
:1035F00083E80300FB7B012B03D9FB7B023B012B00
:1036000001D9062369E007F117031846FFF7B6FF53
:1036100078627B6A002B01D103235EE0FB7D5B02B5
:10362000314A1A447B6ADA60FB7DDB022F4A13447D
:103630003B627B6A3A6A9A607B6AFA7B83F857201E
:10364000FB7B023B9B0028333B4453F8103C1A465B
:103650007B6A5A607B6A5B68D3F840217B6A5B684F
:1036600042F00202C3F8402100BF7B6A5B68D3F8D6
:10367000403103F00203002BF7D17B6A5B68D3F87B
:103680002431DBB203F01F03DAB27B6A83F85520E2
:103690007B6A93F85530032B01D801231DE07B6A28
:1036A000BA681A607B6A5B68D3F8A8217B6A5B689A
:1036B00022F00302C3F8A8217B6A5B68D3F8A82133
:1036C0007B6A5B6842F00202C3F8A821786A23F0A3
:1036D0001FFB7B687A6A1A60002318462837BD46AC
:1036E00080BD00BFA02F03600062002000100020FA
:1036F00080B485B000AF78607B68BB607B68002BCE
:1037000001D103232FE00023FB730FE0FB7B5C223E
:1037100002FB03F3174A1344BA689A4203D1FB7BB6
:10372000154A0021D154FB7B0133FB73FB7B002B3B
:10373000ECD0BB685B680022C3F84821BB685B68BB
:10374000D3F84021BB685B6822F00102C3F8402136
:10375000BB685B68D3F84021BB685B6842F002023B
:10376000C3F84021002318461437BD465DF8047B9A
:10377000704700BFDC6B0020386C002080B58CB037
:1037800000AF78600B46FB707B687B62FB7803F0D0
:103790000F02FB78DB0803F010031343012202FA47
:1037A00003F33B62FB785B00DBB203F01E03DAB28B
:1037B000FB78DB09DBB21343FB77002387F82B3060
:1037C0000023FB607B68002B01D10323EAE007F1B3
:1037D0000C0318462EF0DEFD00233B614FF0FF3353
:1037E0007B61FB7F7A6A04339B0013445B6823F0A0
:1037F0001F03FB6209E0FA6AD37F43F08003D377AB
:10380000FB6A1B6823F01F03FB62FB6A002BF2D1EB
:10381000FB7F7A6A04339B0013445B6823F01F0329
:10382000FB6291E0FB6ADB7F23F07F03DBB2002BBE
:1038300000F08F80FB6A5B68DBB25BB2002B1ADAA8
:103840007B6A5B68D3F8B4117B6A5B683A6A0A43A7
:10385000C3F8B42100BF7B6A5B68D3F8B4213B6A2C
:103860001340002BF7D17B6A5B68D3F8B8213B6A21
:103870001340002BE4D13B69002B0AD1FB6A9A6804
:103880004A4B1340FA6A928BC2F30B0292B2134373
:103890003B61FB7F7A6A04339B0013445A68FB7FC9
:1038A000796A0C339B000B445B689A420ED1FB7F14
:1038B0007A6A04339B00134400225A60FB7F7A6AC1
:1038C0000C339B00134400225A600DE0FB7F7A6AA0
:1038D00004339B0013445B681A68FB7F11467A6AC5
:1038E00004339B0013445960FB6A5B68C3F3C03325
:1038F000DBB2002B09D1FB7F7A6A04339B001344AF
:103900005B6823F01F03002B02D1012387F82B30C3
:10391000FB6A00225A607B6A1B691A46FB6A1A60BE
:103920007B6AFA6A1A617B6A93F854300133DAB21F
:103930007B6A83F85420FB7F7A6A04339B0013442C
:103940005B6823F01F03FB62FB6A002B7FF46AAF06
:1039500000E000BFFB6A002B0DD17B6A9A68FB7FF9
:103960009B01134401229A607B6A9A68FB7F9B014A
:1039700013440022DA60FB6818462EF02BFD97F8FE
:103980002B30002B0DD0FB783B7600237B767B6AB7
:103990001B6807F110021146184624F029FB00238A
:1039A0003B61002318463037BD4680BD00F0FFFF65
:1039B00080B58AB000AFF8600B467A60FB72FB6896
:1039C0003B62012387F82730FB68002B01D10323DA
:1039D00036E1FB7A142B00F2208101A252F823F089
:1039E000353A0060513A00606D3A0060853A0060F7
:1039F000A53A0060C53A0060E53A0060FF3A006011
:103A0000B13B00601B3C00601B3C00601B3C006045
:103A10001B3C00601B3C0060B93B0060FF3B00604A
:103A20001B3C00601B3C00601B3C00601B3C0060BA
:103A30008D3B00603B6A5B68D3F840213B6A5B6862
:103A400042F00102C3F84021002387F82730F5E057
:103A50003B6A5B68D3F840213B6A5B6822F0010255
:103A6000C3F84021002387F82730E7E07B68002B6C
:103A700000F0D5807968386A23F0E3F9034687F8C7
:103A80002730CCE07B68002B00F0CB807B68FB61AB
:103A9000FB691B781946386A23F0D5FA034687F884
:103AA0002730BEE07B68002B00F0BD807B68FB61A7
:103AB000FB691B781946386A23F040FB034687F8F8
:103AC0002730B0E07B68002B00F0AF807B68FB61A3
:103AD000FB691B781946386A23F075FB034687F8A3
:103AE0002730A2E07B68002B00F0A1807B683B615F
:103AF0003B6901221A80002387F8273097E07B6812
:103B0000002B00F096807B68BB61BB691B7803F0DB
:103B10000F03FB75BB691B78DB09BB75FB7D032BB2
:103B200000F28780FB7D002B18D03B6A5A68FB7D32
:103B3000013B70339B0013445B68BA7D002A02D0BE
:103B40004FF4803200E001221340002B14BF012308
:103B50000023DBB29AB2BB695A8013E03B6A5B6810
:103B6000D3F8C031BA7D002A02D04FF4803200E091
:103B700001221340002B14BF01230023DBB29AB2B1
:103B8000BB695A80002387F8273052E07B68002BFE
:103B900051D07B68FB61FB691B785A063B6A5B6806
:103BA00042F08072C3F85421002387F8273042E0A6
:103BB000002387F8273041E0002387F8263013E000
:103BC00097F8263063F07F03DBB21946386A23F09A
:103BD0003AFA97F826301946386A23F034FA97F8FB
:103BE0002630013387F8263097F82630032BE7D9A3
:103BF000386A23F08DF8002387F827301EE07B68B1
:103C0000002B1AD07B68FB613B6A93F85820FB6954
:103C10001A70002387F827300FE000BF0EE000BFC6
:103C20000CE000BF0AE000BF08E000BF06E000BFF4
:103C300004E000BF02E000BF00E000BF97F82730BB
:103C400018462837BD4680BD90B5A7B002AFF860D2
:103C5000B9607A600023BB6700237B67052387F880
:103C60008F30002387F87330BB685B68B3F1FF3F88
:103C700002D07B68002B02D197F88F30D0E17B68AF
:103C8000C7F88830D7F888309B68C7F88430D7F8F1
:103C90008430C7F8803007F173031A460621F868AC
:103CA00000F08CFABB681B7A002B00F04081BB68E7
:103CB0005B68082B03D1BB681B68002B02D197F807
:103CC0008F30ADE1BB681B68C7F88430D7F884300B
:103CD000FB67FB6F5A88D7F880305A80FB6F9A8851
:103CE000D7F880309A80FB6FDA88D7F88030DA8096
:103CF000FB6F5A78D7F880305A70FB6F1A78D7F874
:103D000080301A70D7F880301B7803F01C03002B2A
:103D10000DD0002301930023009300230522D7F840
:103D20008010F86823F086FF97F88F3078E1D7F895
:103D300080301B7803F06003002B23D1D7F880304C
:103D40005B780C2B00F2D880D7F880305B781A466D
:103D5000B54B53F82230002B00F0CE80D7F88030DE
:103D60005B781A46B04B53F8224007F1740307F111
:103D70007802D7F88010D7F88800A047034687F864
:103D80008F30B9E0D7F88030DB88002B71D0D7F8BE
:103D900080301B785BB2002B6BDBD7F88030DB8880
:103DA000002B21D0D7F880301B7803F06003202B44
:103DB0001AD100237B66012387F86C30D7F8803056
:103DC0003B66D7F88030DB88BB6607F160031A4694
:103DD0000121F86801F0DAF9034687F88F30BB6EED
:103DE0007B677B6EBB6725E0D7F88030DB88002BD4
:103DF00020D0D7F880301B7803F06003402B19D116
:103E000000237B65012387F85C30D7F880303B6561
:103E1000D7F88030DB88BB6507F150031A461321C1
:103E2000F86824F0F5FC034687F88F30BB6D7B679C
:103E30007B6DBB6797F88F30002B16D1D7F8803099
:103E4000DB881A467B6F9A4203D2D7F88030DB8832
:103E50007B67BA6F7B6F0021F86824F0E6F90346B0
:103E600087F88F3097F88F30DAE0052387F88F30A6
:103E700042E0D7F880301B7803F06003202B1AD182
:103E800000237B64012387F84C30D7F880303B64F3
:103E9000D7F88030DB88BB6407F140031A46012164
:103EA000F86801F073F9034687F88F30BB6C7B67C5
:103EB0007B6CBB6720E0D7F880301B7803F0600391
:103EC000402B19D100237B63012387F83C30D7F8BE
:103ED00080303B63D7F88030DB88BB6307F1300369
:103EE0001A461321F86824F093FC034687F88F30B4
:103EF000BB6B7B677B6BBB677B6F002B05D0BB6F9E
:103F0000002B02D1052387F88F3097F88F2007F117
:103F10007403019307F1780300930023D7F880100E
:103F2000F86823F087FE034687F88F3076E097F82D
:103F30007330032B18D1D7F880305B78052B6DD107
:103F4000D7F880305B781A46374B53F8224007F198
:103F5000740307F17802D7F88010D7F88800A047DB
:103F6000034687F88F3059E0BB685B68002B55D05B
:103F7000D7F88030DB88002B50D0D7F880301B7802
:103F80005BB2002B4ADBD7F880301B7803F060036C
:103F9000202B16D1BB681B687B62002387F82C306E
:103FA000D7F880303B62BB685B68BB6207F12003D7
:103FB0001A460121F86801F0E9F8034687F88F30C6
:103FC0001BE0D7F880301B7803F06003402B14D13E
:103FD000BB681B687B6100233B77D7F880303B616F
:103FE000BB685B68BB6107F110031A461321F868D0
:103FF00024F00EFC034687F88F3097F88F2007F1E6
:104000007403019307F1780300930123D7F880101C
:10401000F86823F00FFE034687F88F3097F88F304B
:1040200018469437BD4690BDA82F036080B588B070
:1040300000AF786039601B4BFB603B683B6101233C
:104040003B770023FB7600237B778023BB764023DE
:104050003B8307F10C0207F118031946786824F036
:10406000FAF80346FB77FB7F002B01D0FB7F15E0BE
:104070000023BB7607F10C0207F118031946786894
:1040800024F0E9F80346FB77FB7F002B05D0802165
:10409000786824F03FF9FB7F00E0002318462037C2
:1040A000BD4680BD493C006080B584B000AF03468A
:1040B0003960FB710023BB6007F1080318462EF03E
:1040C00069F90023FB601FE02C49FA6813461B01C5
:1040D0009B1ADB000B4408331B68002B11D02749C7
:1040E000FA6813461B019B1ADB000B4475331B78DF
:1040F000FA799A4205D1BB6818462EF06BF9012374
:1041000037E0FB680133FB60FB68002BDCD0002349
:10411000FB6026E01949FA6813461B019B1ADB0075
:104120000B4408331B68002B18D11449FA68134656
:104130001B019B1ADB000B447533FA791A70FA687D
:1041400013461B019B1ADB000C4A1A443B681A6099
:10415000BB6818462EF03EF900230AE0FB680133E5
:10416000FB60FB68002BD5D0BB6818462EF032F9F7
:10417000022318461037BD4680BD00BF00640020F2
:1041800080B485B000AF03463960FB710623FB7332
:10419000FB79BB73BB7B022B02D0BB7B032B04D10F
:1041A0003B68054A1A600023FB73FB7B18461437F3
:1041B000BD465DF8047B7047DC2F036080B586B098
:1041C00000AFF8600B467A60FB720123FB757B68D9
:1041D000002B01D1042353E0FB7A023B062B4DD880
:1041E00001A252F823F000BF0542006015420060B2
:1041F0004D4200605D42006025420060394200602F
:104200006D4200607A680F21F86823F000FE0346D3
:10421000FB7534E07A681021F86823F0F8FD034656
:10422000FB752CE07B683B610023FB75FB6893F812
:1042300076203B691A7022E07B683B610023FB75A6
:10424000FB6893F874203B691A7018E07A680621BD
:10425000F86823F0DCFD0346FB7510E07A6807215F
:10426000F86823F0D4FD0346FB7508E07A6809215D
:10427000F86823F0CCFD0346FB7500E000BFFB7D32
:1042800018461837BD4680BD80B586B000AFF860CF
:104290000B467A60FB720123FB75FB7A033B0B2B09
:1042A00074D801A252F823F0D94200608D43006017
:1042B0008D430060E9420060FF4200608D43006072
:1042C0008D4300606D4300607D4300604D4300609E
:1042D0008D4300605D4300607A681121F86823F027
:1042E00096FD0346FB7556E07B68002B50D00023FB
:1042F000FB757B681A78FB6883F8762048E0FB68DA
:1043000093F87630032B17D07B68002B42D0002324
:10431000FB757B681A78FB6883F87420FB680322BE
:1043200083F87620FB6874331A461421F86823F06A
:104330006EFD0346FB752DE0FB6874331A460821B9
:10434000F86823F064FD0346FB7523E07A680A21D0
:10435000F86823F05CFD0346FB751CE07A680B21CE
:10436000F86823F054FD0346FB7514E07A680C21CD
:10437000F86823F04CFD0346FB750CE07A680D21CC
:10438000F86823F044FD0346FB7504E000BF02E03B
:1043900000BF00E000BFFB7D18461837BD4680BD5A
:1043A00080B485B000AF78600023FB6017E011494E
:1043B000FA6813469B0013441B010B441B68002B37
:1043C0000AD1FA6813469B0013441B01094A1A4498
:1043D0007B681A60002306E0FB680133FB60FB6822
:1043E000002BE4D0022318461437BD465DF8047B49
:1043F000704700BF3C6C002080B58EB000AF786085
:1044000000237B63012387F833307B68002B02D1C4
:1044100097F83330C1E10023BB617B6893F84C30DF
:10442000002B08D07B6893F84C207B685B689B6806
:104430005B799A4202D997F83330AEE17B685B68CA
:104440009B681A687B6893F84C3019466FF060439C
:104450000B44DB0013447B620023FB624DE07B6A6C
:104460005968FA6A13465B0013449B000B441B789F
:10447000022B3FD10023BB6222E07B6A5968FA6AB3
:1044800013465B0013449B000B445A68BB6A1B0134
:1044900013441A787B6893F84E309A420DD17B6AA8
:1044A0005968FA6A13465B0013449B000B445A6830
:1044B000BB6A1B0113447B630FE0BB6A0133BB6221
:1044C0007B6A5968FA6A13465B0013449B000B44ED
:1044D0001B7A1A46BB6A9342CFD37B6A5968FA6A41
:1044E00013465B0013449B000B44DA787B6883F827
:1044F0004D2008E0FB6A0133FB627B6A1B781A4699
:10450000FB6A9342ABD37B6B002B02D197F833301D
:1045100043E17B687A6B9A600023FB6261E00023D1
:104520003B757B6B9968FA6A13465B0013445B002A
:104530000B441B797B757B6B9968FA6A13465B00A9
:1045400013445B000B441B78BB747B6B9968FA6A5D
:1045500013465B0013445B000B445B883B827B6B20
:104560009968FA6A13465B0013445B000B445B785E
:10457000FB74BB7CDB09DBB2012B1AD1FB7C032B68
:1045800017D1BB7C03F00F03DAB27B6883F84920B4
:104590007B68002283F84A207B686FF001021A646E
:1045A0007B68002283F848207B6800225A647D4B98
:1045B000BB617B68FB617B681B6807F1180207F130
:1045C0001001184623F047FE034687F8333097F86A
:1045D0003330002B02D097F83330DEE0FB6A013332
:1045E000FB627B6B1B791A46FB6A934297D30023CD
:1045F000FB6242E07B6A5968FA6A13465B00134427
:104600009B000B441B780A2B34D10023BB6223E0B0
:104610007B6A5968FA6A13465B0013449B000B449B
:104620005A68BB6A1B0113441A787B6893F84E30B2
:104630009A420ED17B6A5968FA6A13465B001344AA
:104640009B000B445A68BB6A1B0113447B6300BF89
:1046500019E0BB6A0133BB627B6A5968FA6A134688
:104660005B0013449B000B441B7A1A46BB6A9342BF
:10467000CED308E0FB6A0133FB627B6A1B781A46E3
:10468000FB6A9342B6D37B687A6BDA600023FB62E5
:104690007AE000233B737B6B9968FA6A13465B00F0
:1046A00013445B000B441B797B737B6B9968FA6A3C
:1046B00013465B0013445B000B441B78BB727B6B9F
:1046C0009968FA6A13465B0013445B000B445B88ED
:1046D0003B817B6B9968FA6A13465B0013445B006D
:1046E0000B445B78FB72BB7ADB09DBB2012B1BD17D
:1046F000FB7A022B18D1BB7A03F00F03DAB27B6886
:1047000083F821207B68002283F822207B686FF0E9
:1047100001029A617B68002283F820207B680022D6
:10472000DA61214BBB611EE0BB7A5BB2002B1ADB66
:10473000FB7A022B17D1BB7A03F00F03DAB27B6846
:1047400083F835207B68002283F836207B686FF081
:104750000102DA627B68002283F834207B68002241
:104760001A63124BBB617B68FB617B681B6807F1B6
:10477000180207F10801184623F06DFD034687F87B
:104780003330FB6A0133FB627B6B1B791A46FB6A91
:104790009342FFF47EAF97F8333018463837BD4662
:1047A00080BD00BF53840260A7840260FB84026066
:1047B00080B598B000AFF860B9607A60012387F8DF
:1047C0005F30BB6887F857307B68002B02D0FB68EE
:1047D000002B01D1032375E3FB683B6597F8573045
:1047E000013B052B00F25F8301A252F823F000BFCA
:1047F000DD4B0060094800601948006069480060AE
:10480000D3480060B54900603B6D002283F84C201E
:10481000002387F85F3053E37B68FB643B6D5B6884
:10482000002B00F04283FB6C1A783B6D93F84C3000
:104830009A4203D1002387F85F3041E3386D23F0BB
:1048400086FE034687F85F30FB6C1A783B6D83F871
:104850004C203B6D002283F84E20386DFFF7CCFDD5
:10486000034687F85F302BE33B6D5B68002B00F05D
:104870001E837B681B88A7F84A30B7F84A3087F850
:1048800049303B6D93F84D20B7F84A301B0A9BB274
:10489000DBB29A4240F00D833B6D93F84E3097F8AF
:1048A00049209A4203D1002387F85F3008E3386D2E
:1048B00023F04DFE034687F85F303B6D97F84920A3
:1048C00083F84E20386DFFF797FD034687F85F3079
:1048D000F6E23B6D5B68002B00F0ED823B6D9B6860
:1048E000002B00F0E8823B6DDB68002B00F0E382D8
:1048F0007B68FB640023BB651FE0FB6C19783B6D94
:104900009B689868BA6D13465B0013445B000344D0
:104910001B7899420ED13B6D012283F848203B6DF4
:104920001A68FB6C1B781946104623F049FD0346B4
:1049300087F85F30BB6D0133BB653B6D9B681B79AE
:104940001A46BB6D9342D8D30023BB652AE0FB6CAB
:1049500019783B6DDB689868BA6D13465B001344A9
:104960005B0003441B78994219D1FB6C1B78DB096F
:10497000DBB2012B04D13B6D012283F8202003E040
:104980003B6D012283F834203B6D1A68FB6C1B7869
:104990001946104623F014FD034687F85F30BB6DBF
:1049A0000133BB653B6DDB681B791A46BB6D9342D7
:1049B000CDD385E23B6D5B68002B00F07C823B6DC4
:1049C0009B68002B00F077823B6DDB68002B00F0CA
:1049D00072827B68FB640023BB6559E0FB6C19782D
:1049E0003B6D9B689868BA6D13465B0013445B008F
:1049F00003441B78994248D13B6D1A68FB6C1B78C5
:104A00001946104623F0F4FC034687F85F30FB6C30
:104A10001B78DB09DBB2012B37D13B6D93F84830B3
:104A2000002B32D03B6D002283F848203B6D1B6C7D
:104A300013F1020F29D03B6D18683B6D93F84910B4
:104A40003B6D1A6C3B6D5B6C23F0D6FB034687F81D
:104A50005F3097F85F30002B10D03B6D1B6CBB6252
:104A60003B6D5B6CFB62002387F830303B6D1B684D
:104A700007F12801FA68184623F015FD3B6D6FF029
:104A800001021A643B6D00225A64BB6D0133BB65A1
:104A90003B6D9B681B791A46BB6D93429ED30023E6
:104AA000BB6592E0FB6C19783B6DDB689868BA6D6A
:104AB00013465B0013445B0003441B78994240F0AB
:104AC00081803B6D1A68FB6C1B781946104623F0F9
:104AD0008FFC034687F85F30FB6C1B78DB09DBB289
:104AE000012B38D13B6D93F82030002B6AD03B6D01
:104AF000002283F820203B6D9B6913F1020F61D0E7
:104B00003B6D18683B6D93F821103B6D9A693B6DC6
:104B1000DB6923F071FB034687F85F3097F85F305D
:104B2000002B10D03B6D9B69FB613B6DDB693B62E9
:104B3000002387F824303B6D1B6807F11C01FA68DD
:104B4000184623F0B0FC3B6D6FF001029A613B6D9B
:104B50000022DA6136E03B6D93F83430002B31D01F
:104B60003B6D002283F834203B6DDB6A13F1020FAA
:104B700028D03B6D18683B6D93F835103B6DDA6AB1
:104B80003B6D1B6B23F051FB034687F85F3097F8B2
:104B90005F30002B0FD03B6DDB6A3B613B6D1B6BC5
:104BA0007B6100233B763B6D1B6807F11001FA68BF
:104BB000184623F0A2FC3B6D6FF00102DA623B6DF8
:104BC00000221A63BB6D0133BB653B6DDB681B794B
:104BD0001A46BB6D9342FFF465AF71E17B687B645D
:104BE0007B6C1B681B7803F01F03012B40F0658171
:104BF0007B6C1B689B88DBB23A6D92F84D20934228
:104C000040F05D81052387F85F307B6C04337B6364
:104C10007B6C0833BB637B6C1B689B88BB877B6C9E
:104C20001B685B88FB877B6C1B7B87F840307B6C49
:104C30001B685B78232B00F2228101A252F823F03B
:104C4000D14C0060034D0060354D0060674D006041
:104C5000994D00607F4E00607F4E00607F4E006087
:104C60007F4E00607F4E00607F4E00607F4E006090
:104C70007F4E00607F4E00607F4E00607F4E006080
:104C80007F4E00607F4E00607F4E00607F4E006070
:104C90007F4E00607F4E00607F4E00607F4E006060
:104CA0007F4E00607F4E00607F4E00607F4E006050
:104CB0007F4E00607F4E00607F4E00607F4E006040
:104CC000F54D0060C74D0060234E0060514E0060FE
:104CD0007B6C1B681B785BB2002BC0F2D2807B6CB4
:104CE0001B68DB88002B00F0CC803B6D5B681B6889
:104CF00007F134020421386D9847034687F85F3086
:104D0000BFE07B6C1B681B785BB2002B80F2BB8022
:104D10007B6C1B68DB88002B00F0B5803B6D5B680B
:104D20001B6807F134020521386D9847034687F860
:104D30005F30A8E07B6C1B681B785BB2002BC0F275
:104D4000A4807B6C1B68DB88002B00F09E803B6D91
:104D50005B681B6807F134020621386D98470346EB
:104D600087F85F3091E07B6C1B681B785BB2002B8F
:104D700080F28D807B6C1B68DB88002B00F08780C5
:104D80003B6D5B681B6807F134020721386D98475B
:104D9000034687F85F307AE07B6C1B681B785BB258
:104DA000002B76DB7B6C1B68DB88002B71D13B6DA5
:104DB0005B681B6807F134020821386D9847034689
:104DC00087F85F3065E07B6C1B681B785BB2002B5B
:104DD00061DA7B6C1B68DB88002B5CD03B6D5B6809
:104DE0001B6807F134020921386D9847034687F89C
:104DF0005F3050E07B6C1B681B785BB2002B4CDB98
:104E00007B6C1B68DB88002B47D03B6D5B681B68A5
:104E100007F134020A21386D9847034687F85F305E
:104E20003BE07B6C1B681B785BB2002B37DB7B6C39
:104E30001B68DB88002B32D13B6D5B681B6807F178
:104E400034020B21386D9847034687F85F3026E01F
:104E50007B6C1B681B785BB2002B22DB7B6C1B68B6
:104E6000DB88002B1DD13B6D5B681B6807F13402AA
:104E70000C21386D9847034687F85F3011E000BF7A
:104E80001EE000BF1CE000BF1AE000BF18E000BF3A
:104E900016E000BF14E000BF12E000BF10E000BF4A
:104EA0000EE000BF0CE000BF0AE000BF08E000BF5A
:104EB00006E000BF04E000BF02E000BF00E000BF6A
:104EC00097F85F3018466037BD4680BD80B584B026
:104ED00000AF03463960FB710023BB6007F1080394
:104EE00018462DF057FA0023FB6018E0284AFB68AB
:104EF0001B0113441B68002B0ED0254AFB681B01C5
:104F000013440E331B78FA799A4205D1BB681846D0
:104F10002DF060FA012337E0FB680133FB60FB688A
:104F2000002BE3D00023FB6026E0194AFB681B013D
:104F300013441B68002B1CD1154AFB681B0113444A
:104F40000E33FA791A70FB68DB00124A1A441049D2
:104F5000FB681B010B4408331A60FB681B010C4AF9
:104F60001A443B681A60BB6818462DF033FA0023D8
:104F70000AE0FB680133FB60FB68002BD5D0BB68FF
:104F800018462DF027FA022318461037BD4680BD7B
:104F90008C6C00209C6C002080B584B000AF034670
:104FA000FB710023FB600023BB6007F10803184678
:104FB0002DF0F0F92CE01C4AFB681B0113441B6820
:104FC000002B22D0184AFB681B0113440E331B78B8
:104FD000FA799A4219D1144AFB681B011344002242
:104FE0001A60114AFB681B011344043300221A6043
:104FF0000D4AFB681B0113440E3300221A70BB6874
:1050000018462DF0E7F900230AE0FB680133FB6046
:10501000FB68002BCFD0BB6818462DF0DBF90423CA
:1050200018461037BD4680BD8C6C002080B584B01A
:1050300000AF03463960FB710023FB600023BB60B7
:1050400007F1080318462DF0A5F91EE0154AFB6884
:105050001B0113441B68002B14D0124AFB681B0170
:1050600013440E331B78FA799A420BD1FB681B016B
:105070000C4A1A443B681A60BB6818462DF0AAF91E
:1050800000230AE0FB680133FB60FB68002BDDD0E6
:10509000BB6818462DF09EF9042318461037BD460C
:1050A00080BD00BF8C6C002080B584B000AF7860FC
:1050B00039600023FB600023BB6007F1080318463A
:1050C0002DF068F916E0114AFB681B0113441B68B8
:1050D0007A689A420BD1FB681B010C4A1A443B6860
:1050E0001A60BB6818462DF075F900230AE0FB68CA
:1050F0000133FB60FB68002BE5D0BB6818462DF040
:1051000069F9042318461037BD4680BD8C6C002019
:1051100080B584B000AF03463960FB710023FB60AB
:105120000023BB6007F1080318462DF033F91FE098
:10513000154AFB681B0113441B68002B15D0124A4B
:10514000FB681B0113440E331B78FA799A420CD189
:105150000D4AFB681B0113441A683B681A60BB6860
:1051600018462DF037F900230AE0FB680133FB6095
:10517000FB68002BDCD0BB6818462DF02BF904230C
:1051800018461037BD4680BD8C6C002090B587B0A6
:1051900000AFF8600B467A60FB7201237B757B6879
:1051A000002B01D1042358E007F110031946F868D9
:1051B000FFF77AFF03463B753B7D002B01D00423AC
:1051C0004BE00023BB7541E00023FB7536E0FB7D1F
:1051D000244A1B0113440C3319783B695B68186837
:1051E000BA7D13465B0013449B0003449B681B7904
:1051F000994220D1FB7D1B4A1B01134408331C68D4
:105200003B695B681968BA7D13465B0013449B00D9
:105210000B445B68F97A7A681846A04703463B75E9
:105220003B7D052B01D1052317E03B7D002B09D1E8
:1052300000237B7506E0FB7D0133FB75FB7D002BB6
:10524000C5D000E000BFBB7D0133BB753B695B6827
:105250001B7ABA7D9A42B7D37B7D18461C37BD4670
:1052600090BD00BFF42F036090B587B000AF034638
:10527000B9607A60FB737B68002B06D0BB68002B9B
:1052800003D0BB685B68002B01D1042370E007F1F9
:105290001002FB7B11461846FFF718FE03467B758C
:1052A0007B7D002B01D07B7D62E03B69BA685A6050
:1052B0003B691A46FB7B3049184622F0B9FE03468B
:1052C0007B757B7D002B0AD03B691B68184622F05A
:1052D00072FFFB7B1846FFF75FFE7B7D48E00023F3
:1052E000BB753AE00023FB7531E03B695B681968E8
:1052F000BA7D13465B0013449B000B449B681A79EC
:10530000FB7D1E491B010B440C331B789A421BD1B9
:10531000FB7D1A4A1B0113441C683B695B681968D2
:10532000BA7D13465B0013449B00C8183B695B6859
:105330001968BA7D13465B0013449B000B441A1D89
:10534000FB7B01461846A047FB7D0133FB75FB7DC7
:10535000012BCAD9BB7D0133BB753B695B681B7AE6
:10536000BA7D9A42BED33B691A687B681A607B7D1E
:1053700018461C37BD4690BD11880260F42F0360AB
:1053800080B485B000AFF860B9601346FB71BA68AD
:105390000C4B1340BB60FB79002B06D0FB685A68AE
:1053A000BB681A43FB685A6006E0FB685A68BB6832
:1053B000DB431A40FB685A6000BF1437BD465DF8F6
:1053C000047B704700F0FFFF80B483B000AF002380
:1053D0007B6000237B6003E000BF7B6801337B6060
:1053E0007B68054A9342F7D900BF00BF0C37BD4622
:1053F0005DF8047B704700BF3F420F0080B592B05C
:1054000002AF78600023FB637B681B79012B01D01E
:1054100000234BE02BF051FBB863BB6B254AA2FB8A
:1054200003239B097B637B6B234AA2FB03235B095A
:105430003B633B6B204AA2FB03235B09FB623A6B95
:105440001D4BA3FB021359090B461B015B1A9B0062
:10545000D31A3B637A6B184BA3FB021359090B4613
:105460001B015B1A9B00D31A7B637B681B687B6103
:1054700002233B76C8233B6207F108007B6B019354
:105480003B6B0093FB6A0D4A0A2120F005FA0346A4
:10549000FB6307F108037B62FB6BBB62BB6AFB61CA
:1054A00007F1140318460FF02FFEFB69184640372A
:1054B000BD4680BDD34D62108988888808980360F6
:1054C00080B5A8B000AF786007F17C0300221A60B5
:1054D0005A609A60DA601A615A617B681B68FB67E0
:1054E000C823C7F888307B681B79012B24D103E0DF
:1054F000D7F8943020221A702B214A482DF0AAF9AF
:10550000C7F89400D7F89430002BF1D1022387F824
:105510008030444BC7F88C3042482DF0D7F9034611
:10552000C7F89030D7F89030C7F8843007F17C0383
:1055300018460FF0E9FD6FE07B681B79022B6BD1F9
:105540000023C7F89C300023FB6007F110036A2298
:10555000002118462DF015F97B689B68C7F89C3030
:105560007B681868D7F89C306E2B28BF6E231A46CC
:1055700007F10C03194627F0A7FBC7F89800D7F8E6
:105580009830002B09D007F10C006123254A2649E9
:1055900000F052F8234800F0F3F9032387F8803035
:1055A0004FF0FF33C7F88430204BC7F88C30D7F862
:1055B0008C3018462DF08AF90346C7F8903007F171
:1055C0007C0318460FF0A0FD194BC7F88C30D7F8B4
:1055D0008C3018462DF07AF90346C7F8903007F161
:1055E0007C0318460FF090FD124BC7F88C30D7F8AB
:1055F0008C3018462DF06AF90346C7F8903007F151
:105600007C0318460FF080FD0023C7F8903007F1A7
:105610007C0318460FF078FDD7F884301846A03781
:10562000BD4680BDE46C0020189803602498036098
:10563000649803609498036080B588B000AFF86008
:10564000B9607A603B600023FB767B6800221A70A9
:10565000FB68FB61B8682DF039F9386128E0FA6918
:105660003B6913441B783D2B1DD13B690133FA691B
:105670001344FB611649F8692DF019F978617A69CC
:105680003B689A4202D33B68013B7B617A69F969C6
:1056900078682DF06AF97A687B69134400221A70E1
:1056A0000123FB760FE02621F8692DF0D3F8F8618D
:1056B000FB69002B07D0B968F8692DF090F9F86103
:1056C000FB69002BCBD1FB7E18462037BD4680BD41
:1056D000E898036090B589B000AF78600023FB6163
:1056E0004FF0FF33BB617B685B688F4918462DF034
:1056F000BCF80346002B03D14FF47A73BB61E9E099
:105700007B685B68894918462DF0AFF80346002B8B
:1057100003D14FF47A73BB61DCE07B685B6884493A
:1057200018462DF0A2F80346002B03D140F6C4130F
:10573000BB61CFE07B685B687E4918462DF095F829
:105740000346002B02D10323BB61C3E07B685B6887
:10575000794918462DF089F80346002B02D15023D1
:10576000BB61B7E07B685B68744918462DF07DF833
:105770000346002B03D140F2BB13BB61AAE07B6858
:105780005B686F4918462DF070F80346002B02D174
:105790006C4BFB619EE07B685B686B4918462DF0A3
:1057A00064F80346002B03D14FF46163BB6191E0C1
:1057B0007B685B68654918462DF057F80346002B57
:1057C00002D10223BB6185E07B685B6860491846B3
:1057D0002DF04BF80346002B03D14FF4AA63BB61B5
:1057E00078E07B685B685B4918462DF03EF803461D
:1057F000002B02D18023BB616CE07B685B6856495B
:1058000018462DF032F80346002B02D12023BB614D
:1058100060E07B685B68514918462DF026F8034626
:10582000002B02D10023BB6154E07B685B684C49CC
:1058300018462DF01AF80346002B02D1C823BB618D
:1058400048E07B685B68474918462DF00EF8034630
:10585000002B03D144F62063BB613BE07B685B68AF
:10586000414918462DF001F80346002B03D14FF4AF
:10587000FA73BB612EE07B685B683C4918462CF0EC
:10588000F4FF0346002B02D13223BB6122E07B6888
:105890005B68374918462CF0E8FF0346002B02D11D
:1058A0000123BB6116E07B685B68324918462CF027
:1058B000DCFF0346002B02D10023BB610AE07B68BA
:1058C0005B682D4918462CF0D0FF0346002B01D110
:1058D0000023BB61FB69002B0BD07B681C68F86957
:1058E0002CF0F4FF03461A46F969204627F048FADF
:1058F00014E007F10803BA69204918461FF096FF23
:105900007B681C6807F1080318462CF0DFFF02468D
:1059100007F108031946204627F032FA00231846FB
:105920002437BD4690BD00BFEC980360009903602A
:105930001899036034990360489903605C99036087
:10594000709903608499036090990360A099036043
:10595000B0990360C0990360D0990360E099036037
:10596000F4990360089A0360149A0360249A036010
:10597000349A0360489A0360589A0360689A0360F7
:1059800080B584B000AF78607B68FB607B68BB60EB
:105990003BE0FB681B78252B2FD1FB6801331B787C
:1059A00080331F4AD35C03F0A003002B25D0FB6893
:1059B00002331B7880331A4AD35C03F0A003002B18
:1059C0001BD0FB685A78FB681A70FB680133FA68D1
:1059D00092781A70FB68023300221A70102200219C
:1059E000F86820F03BF80146BB685A1CBA60CAB29E
:1059F0001A70FB680333FB6007E0FA68531CFB6016
:105A0000BB68591CB96012781A70FB681B78002BB0
:105A1000BFD1BB6800221A7000BF1037BD4680BDE1
:105A2000D7F0036080B582B000AF7860396006229D
:105A3000034978680EF0B2FF00BF0837BD4680BD4D
:105A40006C9A036080B58AB004AF5B4A3B4607CAD4
:105A500083E8070003201AF073FB0346574A53609C
:105A60000021002017F056FA554B7B616FF07F4301
:105A70003B61544BFB6007F10C0007F1100207F18A
:105A80001401514B0293514B01933B460093034643
:105A90004F4814F07BFD00224E494D4814F0AEFDF6
:105AA00000224D494A4814F0A9FD17F08BFF0FF072
:105AB0002BF84A4946480EF003FE00230293484B58
:105AC0000193502300930123464A444940480EF075
:105AD0008BFE17F093FF444820F0ACFA434820F0C7
:105AE000A9FA434820F0A6FA404820F0A3FA41481A
:105AF00020F0A0FA3D4820F09DFA07F114031B782E
:105B0000194607F1140301331B781A4607F11403F1
:105B100002331B78184607F1140303331B780093F4
:105B20000346354820F086FA304820F083FA07F122
:105B300010031B78194607F1100301331B781A462E
:105B400007F1100302331B78184607F110030333E3
:105B50001B7800930346294820F06CFA234820F074
:105B600069FA07F10C031B78194607F10C0301339E
:105B70001B781A4607F10C0302331B78184607F10D
:105B80000C0303331B78009303461D4820F052FAA0
:105B9000164820F04FFA11491A4820F04BFA1348E2
:105BA00020F048FA134820F045FA104820F042FA55
:105BB00000BF1837BD4680BD809B036000000020F9
:105BC000C0A82AA2C0A80064D1CE016031D801606B
:105BD000A46C00200DB600602DB60060749A0360BE
:105BE000255A0060809A0360889A036074E303601A
:105BF000BC9A0360D49A0360089B0360289B0360EF
:105C0000489B0360689B036080B58EB000AF13486B
:105C10000FF032FC3B463422002118462CF0B1FD37
:105C20000F4B3B610F4B7B610F4BFB620F4B7B625A
:105C30000F4BBB620F4B3B633B4618460FF030FAED
:105C400078637B6B002B05D10B4820F0F3F90B48F0
:105C500020F0F0F900BF3837BD4680BD9096036054
:105C6000A8D7036030960360B8970360D8970360A5
:105C7000F897036018000020909B036074E30360B2
:105C800080B582B000AF0D4A3B1D126811461980E5
:105C90000233120C1A700A4900201AF073FB0849EB
:105CA00000201AF031FB3B1D1A4606490220FCF782
:105CB00041FF00BF0837BD4680BD00BF8C9B03601D
:105CC00000389C1C00366E0180B582B002AF1DF01A
:105CD0007FFF2CF045FD2CF0D6FC23F06BF8FFF78E
:105CE000CFFF0023022200210220FCF73DFD1648D1
:105CF00020F0A0F901224FF400311448FFF740FBD7
:105D000000220E21124823F044F8FFF75DFB012228
:105D10000E210F4823F03DF803201AF011FA034634
:105D20000C4A53600323009340F6B83300220A491B
:105D30000A4817F015FE0346002B02D1084817F059
:105D4000A5FD18F073FEFEE7AC9B036000C00A409F
:105D500000C01B40000000206D8E0260D49B0360D9
:105D6000DC9B036080B586B000AF786039604FF48B
:105D70007A737B6100233B610023FB607B685B6877
:105D8000184623F09DF83B681A687B681A607B68A8
:105D900058687B68196807F10C03022223F0B1F8F8
:105DA00038613B69002B01D03B6986E07B69013B90
:105DB0007B61FB68B3F5005F02D07B69002BE6D105
:105DC0007B69002B01D1012377E07B6858687B68F1
:105DD00019684FF40043002223F07FF838613B69D3
:105DE000002B69D17B6858687B6819684FF4207371
:105DF000182223F072F838613B69002B01D03B690F
:105E00005BE07B6858687B6819688123172223F060
:105E100064F838613B69002B01D03B694DE03B6879
:105E20009B79002B17D07B6858687B68196840F213
:105E3000E113042223F051F838613B69002B3BD178
:105E40007B6858687B6819684FF49053002223F0F0
:105E500044F8386130E03B681B79012B02D91948BE
:105E6000FCF7EAFA7B6858687B68196807F10C034D
:105E7000002223F046F838613B69002B01D03B69D2
:105E80001BE0FB6823F48063FB607B6858687B68D9
:105E90001968FB68002223F020F838613B69002B69
:105EA00001D03B6909E03B6819793B685B791A4688
:105EB000786800F0ABF838613B6918461837BD4682
:105EC00080BD00BF1C9C036080B584B000AF7860CB
:105ED00039603B68002B02D10F48FCF7ADFA3B68F4
:105EE00000221A707B6858687B68196807F10803FC
:105EF000012223F006F8F860FB68002B07D1BB688D
:105F000003F02003002B02D03B6801221A70FB68CB
:105F100018461037BD4680BD549C036080B584B0E0
:105F200000AF786039603B68002B02D11048FCF765
:105F300083FA7B6858687B68196807F108030122B7
:105F400022F0DFFFF860FB68002B0BD1BB6803F089
:105F50000403002B03D03B6801221A7002E03B6867
:105F600000221A70FB6818461037BD4680BD00BF7E
:105F7000749C036080B588B000AFF860B9607A6047
:105F8000BB68002B05D17B68002B02D11E48FCF7B3
:105F900053FAFB685868FB68196807F114031E225E
:105FA00022F0AFFFF861FB69002B27D1BB68002B03
:105FB00010D07B6903F00703BB61BB69022B02D0E1
:105FC000BB69062B03D1BB6801221A7002E0BB68D3
:105FD00000221A707B68002B10D07B6903F0070346
:105FE000BB61BB69052B02D0BB69062B03D17B6863
:105FF00001221A7002E07B6800221A70FB691846C1
:106000002037BD4680BD00BF949C036080B584B03E
:1060100000AF78600B46FB701346BB70FB78012B1A
:1060200002D91D48FCF708FA7B6858687B68196834
:1060300007F10803002222F064FFF860FB68002BE0
:1060400024D1BB6823F48053BB60FB78012B04D1BF
:10605000BB6843F40053BB6003E0BB6823F4005308
:10606000BB60BB78012B04D1BB6843F48073BB6079
:1060700003E0BB6823F48073BB607B6858687B686F
:106080001968BB68002222F028FFF860FB681846F8
:106090001037BD4680BD00BFD49C036080B584B07E
:1060A00000AF7860084611461A460346FB700B465F
:1060B000BB7013467B70FB78012B02D94848FCF774
:1060C000BBF9BB78012B02D94648FCF7B5F97B78C0
:1060D000002B46D0FB78002B13D1BB78012B03D1CA
:1060E0004FF4C243BB6002E04FF48243BB607B6865
:1060F00058687B681968BB68002222F0EEFE0346F0
:1061000069E0BB78012B02D03748FCF795F94FF4D2
:10611000C243BB607B6858687B681968BB68002213
:1061200022F0DBFEF860FB68002B01D0FB6852E038
:106130007B6858687B68196807F108031F2222F002
:10614000E0FEF860FB68002B44D17B6858687B68F0
:106150001968BB6843F004031F2222F0BEFE034609
:1061600039E0FB78002B1CD17B6858687B68196884
:1061700007F10803002222F0C4FEF860FB68002B40
:1061800028D1BB6823F48043BB607B6858687B6878
:106190001968BB6843F40073002222F09EFE034698
:1061A00019E07B6858687B68196807F108031F22AB
:1061B00022F0A7FEF860FB68002B0BD17B685868C3
:1061C0007B681968BB6823F004031F2222F085FE58
:1061D000034600E0FB6818461037BD4680BD00BF8F
:1061E000049D0360349D0360649D036080B586B0A8
:1061F00000AF03460A46FB8013467B71B7F90630B1
:106200001B0A7B61FB8803F01F033B617B69072B43
:1062100002D90C48FCF710F97B699A000A4B134429
:10622000FB6003223B6902FA03F17A793B6902FAC7
:1062300003F31A46F86822F09EFE00BF1837BD46E9
:1062400080BD00BF949D036068C00F4080B586B0DC
:1062500000AF78607B687B617B691B683B61386954
:106260001AF05EFDF860094AFB6832F913301846EF
:1062700022F0A9FE7B695B680022194638691BF091
:10628000C1FA00BF1837BD4680BD00BF1CE70360E0
:1062900080B588B000AFF860B9607A603B603B6859
:1062A000002B02D11748FCF7C7F8FB68FB61FB69BC
:1062B0001B68BB6100237B614FF40001B86922F0C9
:1062C000AAFE02237A68B968B8691BF013FBB869A3
:1062D00022F01CFF78617B69002B01D07B690DE007
:1062E000B86922F07FFE03467B824FF40001B86953
:1062F00022F091FE7A8A3B681A607B691846203743
:10630000BD4680BD189E036080B588B000AFF860C0
:10631000B9607A603B603B68002B02D11F48FCF7F4
:106320008BF8FB68FB61FB691B68BB6100237B6129
:106330004FF40001B86922F06EFE7A68B968B86956
:106340002BF0C1FBB86922F0E1FE78617B69002B7C
:1063500001D07B691EE04FF40001B86922F05BFEBA
:106360007A68B968B8691BF015FBB86922F0CEFEEF
:1063700078617B69002B01D07B690BE04FF4000151
:10638000B86922F048FEB86922F02CFE02463B684C
:106390001A607B6918462037BD4680BD409E036069
:1063A00080B586B000AF786039600E23FB8217F0AD
:1063B0004BFB7B685B890E2B6ED97B68DB7B002BEC
:1063C00006D13B6893F838300133DAB27B68DA7370
:1063D0007B685B683B613B691A7B5B7B1B021343F9
:1063E000FB813B691B7803F00103002B23D03B6941
:1063F0001B78012B0FD13B695B78002B1BD13B69CC
:106400009B785E2B17D17B685B7B43F01003DAB27D
:106410007B685A730FE03B690622284918462CF026
:10642000D8F90346002B06D17B685B7B43F0080359
:10643000DAB27B685A73FB89082B03D0B3F5C16FBE
:1064400014D032E03B6893F8353003F00803002B9A
:1064500024D0FB8A1946786805F0CEFB0346002B52
:106460001ED13968786803F03BF913E03B6893F874
:10647000353003F00803002B14D0FB8A19467868E6
:1064800005F0BAFB0346002B0ED13968786801F09D
:106490001FFF00BF00230CE000BF06E000BF04E0C8
:1064A00000BF02E000BF00E000BF786805F0EEFB2F
:1064B000002318461837BD4680BD00BF689E0360A4
:1064C00080B586B000AFF860B9607A603B603B8C05
:1064D000184623F0D5F80346FB820E21B86823F056
:1064E00018FC0346002B23D117F0AEFABB685B689B
:1064F0003B613B69FA8A9A813B69062239681846F2
:106500002CF03BF93B6906330622796818462CF0DB
:1065100034F9FB6893F83430062B02D0084817F0A2
:10652000B5F9FB689B69B968F8689847034602E0CB
:1065300000BF6FF0010318461837BD4680BD00BF8D
:10654000789E036080B500AF1E4B1B78002B30D1C6
:106550001D4B1B68002B02D01C4817F097F923F045
:1065600064FE0346184A1360174B1B68002B02D1C8
:106570004FF0FF3324E0144B1B685A7A124B1B6810
:1065800042F02002D2B25A720F4B1B6844221049CB
:1065900018460BF007FF0C4B1B6843220C491846AA
:1065A0000BF088FF084B1B6800220A4918460BF0C5
:1065B000EDFF044B1B780133DAB2024B1A70002353
:1065C000184680BD36060120706D0020AC9E036029
:1065D000F0A60360AD79006080B500AF0D4B1B786D
:1065E000002B02D10C4817F051F90A4B1B78013BE4
:1065F000DAB2084B1A70074B1B78002B07D1074BF8
:106600001B6818460BF0E2FF044B00221A6000BF23
:1066100080BD00BF36060120D49E0360706D00204F
:1066200080B584B000AF78607B681B6AFB600C218A
:10663000F86822F01BFE064B054A0549786804F00D
:1066400099FF786800F08EFA00BF1037BD4680BD14
:10665000F0A6036080B584B000AF786039607B68D5
:106660001B6AFB600C4B9B78002B11D0FB6800224F
:106670001A810A4B9B68184623F017F80246FB68FC
:106680009A613B681A69FB68DA61786800F008F87B
:1066900000BF1037BD4680BD686D0020486D0020EA
:1066A000B0B58AB002AF78607B68002B08D1704823
:1066B0001FF0C0FC6F481FF0BDFC6FF00F03D2E06D
:1066C0007B681B6ABB61BB69002B08D16A481FF05D
:1066D000B1FC68481FF0AEFC6FF00503C3E0012178
:1066E000B86922F0C3FD07F10C030322B969786889
:1066F00001F01AFA78617B69002B00F085807B69D4
:106700005B683B61B8893B6903F1F00102233922E0
:1067100000F026FE0346BB81B8893B6903F1F00116
:106720007B689B8D1A4600F065FE0346BB81B889E5
:106730003B6903F1F0010423322200F011FE03460D
:10674000BB81BC893B6903F1F005BB69DB69184675
:1067500022F0ABFF03461A462946204600F074FE9D
:106760000346BB81B8893B6903F1F001042336225B
:1067700000F0F6FD0346BB81BC893B6903F1F005DF
:10678000BB699B69184622F090FF03461A462946CA
:10679000204600F059FE0346BB81B8893B6903F1EE
:1067A000F0010323372200F0DBFD0346BB81002309
:1067B000FB770EE0B8893B6903F1F001FB7F2F4ABC
:1067C000D35C1A4600F0F8FD0346BB81FB7F013322
:1067D000FB77FB7F022BEDD9B8893B69F0337A69EF
:1067E000194622F05DFD264B1868264B01937B6805
:1067F00000934323244A79690BF0C2FC0346BB771C
:10680000786905F043FA01E0FF23BB77BB699B7908
:10681000FF2B05D0BB699B790133DAB2BB699A7152
:10682000BB699B79052B0DD8BB699B791A4601235F
:1068300093409BB21A465201D21A92001344DB00D5
:106840009BB201E04EF66023FB81FB8903F2F31358
:106850000E4A82FB03125211DB17D31A9AB2BB699C
:106860001A8197F91E3018462037BD46B0BD00BFCB
:10687000F89E036074E30360149F036048000020E7
:10688000706D0020F0A60360F4A60360D34D621083
:1068900080B582B000AF274B1B687B6042E07B680D
:1068A0001B6A3B603B68002B39D03B685B79002B4F
:1068B00035D03B689B8A002B12D03B685B8A013342
:1068C0009AB23B685A823B685A8A3B689B8A9A42D2
:1068D00006D1786800F0A4FC786800F0C7F81EE0E4
:1068E0003B681B8A002B0BD03B681B8A5A1E91B257
:1068F0003A681182012B03D1786822F084FC0EE003
:106900003B68DB89002B0AD03B68DB895A1E91B2B9
:106910003A68D181012B02D1786822F045FC7B686E
:106920001B687B607B68002BB9D100BF00BF0837B4
:10693000BD4680BD78F4002080B582B000AF164B14
:106940001B687B6020E07B681B6A3B603B68002B18
:1069500017D03B681B89012B06D93B681B89013B7B
:106960009AB23B681A810CE03B681B89012B08D165
:106970003B681B89013B9AB23B681A81786822F018
:10698000DAFB7B681B687B607B68002BDBD100BF78
:1069900000BF0837BD4680BD78F4002080B584B0C4
:1069A00000AF786039607B681B6AFB60FB6800227F
:1069B0001A62FB6800225A622A4BDB78002B03D054
:1069C000294BDA68FB689A62264B1B79002B04D0AE
:1069D000254B1A69FB68DA6204E0FB689B6A5A0877
:1069E000FB68DA621F4B5B79002B04D01E4B5A699F
:1069F000FB681A6307E0FB689A6A1346DB009B1A80
:106A0000DA08FB681A633B681A69FB68DA61154BA0
:106A10009B79002B0FD0144B9B69184622F045FE42
:106A20000246FB681A62FB68DB7943F00103DAB2C5
:106A3000FB68DA7106E0FB68DB7923F00103DAB268
:106A4000FB68DA71074BDB79002B07D0064BDB695B
:106A5000184622F02AFE0246FB685A6200BF103731
:106A6000BD4680BD686D0020486D002080B584B0B3
:106A700000AF786016F0E8FF7B68002B08D136483D
:106A80001FF0D8FA35481FF0D5FA6FF00F035FE01A
:106A90007B6893F8353003F00103002B08D13048B0
:106AA0001FF0C8FA2D481FF0C5FA6FF00F034FE032
:106AB0007B681B6AFB607B689B8DB3F5107F02D2FD
:106AC0004FF0FF3344E0FB68002B0DD1342004F07D
:106AD00067FAF860FB68002B02D14FF0FF3337E014
:106AE0007B68FA681A6205E0FB681B79002B01D00D
:106AF000FFF772FD34220021F8682BF042FEFFF709
:106B000021FD0346002B02D04FF0FF3320E0FB684D
:106B100001221A717B6893F8353003F00403002BCF
:106B200005D10221F86822F0A1FB002310E078686B
:106B300000F018F80346FB7297F90B30002B05D0D4
:106B4000786800F06DFB4FF0FF3301E097F90B30F0
:106B500018461037BD4680BD2CCB036074E303603C
:106B6000649F036080B58AB002AF78607B681B6A5F
:106B7000BB610023FB75BB690022DA610621B8699D
:106B800022F074FB07F108030122B969786800F06C
:106B9000CBFF38613B69002B4BD03B695B68FB60E6
:106BA0003889FB6803F1F0010223392200F0D8FB99
:106BB00003463B813889FB6803F1F0017B689B8DBC
:106BC0001A4600F017FC03463B813889FB6803F145
:106BD000F0010323372200F0C3FB03463B8100236F
:106BE000FB770EE03889FB6803F1F001FB7F294A4F
:106BF000D35C1A4600F0E0FB03463B81FB7F013388
:106C0000FB77FB7F022BEDD93889FB68F0333A69BB
:106C1000194622F045FB204B1868204B01937B68F6
:106C2000009343231E4A39690BF0AAFA386905F02C
:106C30002DF8BB699B79FF2B05D0BB699B7901338C
:106C4000DAB2BB699A71BB699B79052B0DD8BB6918
:106C50009B791A46012393409BB21A465201D21ADD
:106C600092001344DB009BB201E04EF660237B816F
:106C70007B8903F2F3130B4A82FB03125211DB17D9
:106C8000D31A9AB2BB691A8197F917301846203780
:106C9000BD4680BD48000020706D0020F0A6036056
:106CA000F4A60360D34D621080B588B000AF786061
:106CB0007B68002B06D15E481FF0BCF95D481FF0D1
:106CC000B9F9B1E07B681B6AFB61FB69002B06D157
:106CD00059481FF0AFF957481FF0ACF9A4E0FB6921
:106CE00000225A82FB699B6AB3F1FF3F19D0FB690E
:106CF0009B6A1E33514AA2FB03235B09BB61BB693C
:106D0000B3F5803F02D34FF6FF73BB61BB699AB204
:106D1000FB699A82FB699B8A002B02D1FB690122E5
:106D20009A82FB69DB6AB3F1FF3F1DD0FB69DB6A26
:106D30001E33424AA2FB03235B09BB61BB69B3F567
:106D4000803F02D34FF6FF73BB61BB699AB2FB6908
:106D50005A81FB695B89002B02D1FB6901225A81B0
:106D6000FB695A89FB69DA81FB691B6BB3F1FF3F51
:106D70001DD0FB691B6B1E33304AA2FB03235B094A
:106D8000BB61BB69B3F5803F02D34FF6FF73BB61B4
:106D9000BB699AB2FB699A81FB699B89002B02D17E
:106DA000FB6901229A81FB699A89FB691A82FB6956
:106DB0005A89FB699B899A4206D3FB699B89002B00
:106DC00002D0FB6900225A81FB69DB7903F00103E1
:106DD000002B03D0FB691B6A3B6114E0FB691C3389
:106DE0001B78FB7597F91730002B02DBFF233B6103
:106DF00009E0FB7DBF2B03D96FF07F433B6102E0CD
:106E00004FF6FF733B61FB695B6AFB600A21F8691F
:106E100022F02CFAFB6903F11C0107F10C0307F1C6
:106E20001002786804F0A6FB2037BD4680BD00BF85
:106E3000889F036074E30360A49F03608988888847
:106E400080B58AB002AF78607B681B6ABB6116F0C0
:106E5000FBFD0521B86922F009FA07F10C030322B2
:106E6000B969786800F060FE78617B69002B4ED0CC
:106E70007B695B683B61B8893B6903F1F0010223E0
:106E8000392200F06DFA0346BB81B8893B6903F1F2
:106E9000F0017B689B8D1A4600F0ACFA0346BB817B
:106EA000B8893B6903F1F0010323372200F058FA57
:106EB0000346BB810023BB770EE0B8893B6903F131
:106EC000F001BB7F2A4AD35C1A4600F075FA0346EC
:106ED000BB81BB7F0133BB77BB7F022BEDD9B88968
:106EE0003B69F0337A69194622F0DAF9214B1868C8
:106EF000BB6903F118027B680093432379690BF0A7
:106F0000D1F80346FB77786904F0C0FE01E0FF2367
:106F1000FB77BB699B79FF2B05D0BB699B7901335C
:106F2000DAB2BB699A71BB699B79092B0AD8BB6934
:106F30009B799BB21A465201D21A920013441B014C
:106F40009BB201E044F62063FB81FB8903F2F3135B
:106F5000094A82FB03125211DB17D31A9AB2BB699A
:106F60001A8197F91F3018462037BD4680BD00BFF3
:106F700048000020706D0020D34D621080B58AB0AB
:106F800002AF78607B681B6ABB610421B86922F09C
:106F90006DF907F10C030322B969786800F0C4FDAC
:106FA00078617B69002B4CD07B695B683B61B88959
:106FB0003B6903F1F0010223392200F0D1F90346C5
:106FC000BB81B8893B6903F1F0017B689B8D1A4650
:106FD00000F010FA0346BB81B8893B6903F1F00168
:106FE0000323372200F0BCF90346BB810023BB77A3
:106FF0000EE0B8893B6903F1F001BB7F294AD35CFD
:107000001A4600F0D9F90346BB81BB7F0133BB7739
:10701000BB7F022BEDD9B8893B69F0337A691946F9
:1070200022F03EF9204B18687B68009343231F4AE7
:1070300079690BF037F80346FB77786904F026FE90
:1070400001E0FF23FB77BB699B79FF2B05D0BB6970
:107050009B790133DAB2BB699A71BB699B79092BC1
:107060000AD8BB699B799BB21A465201D21A920088
:107070001344DB009BB201E042F21073FB81FB89F9
:1070800003F2F3130A4A82FB03125211DB17D31ADD
:107090009AB2BB691A8197F91F3018462037BD464E
:1070A00080BD00BF48000020706D0020F4A6036082
:1070B000D34D6210B0B58AB002AF78607B681B6AAE
:1070C000BB610321B86922F0D1F807F10C03032258
:1070D000B969786800F028FD78617B69002B66D07B
:1070E0007B695B683B61B8893B6903F1F00102236E
:1070F000392200F035F90346BB81B8893B69F0338A
:107100004FF41072194600F075F90346BB81B88937
:107110003B6903F1F0010423322200F021F9034618
:10712000BB81BC893B6903F1F005BB69DB6918468B
:1071300022F0BBFA03461A462946204600F084F99D
:107140000346BB81B8893B6903F1F0010323372271
:1071500000F006F90346BB810023BB770EE0B88937
:107160003B6903F1F001BB7F294AD35C1A4600F06A
:1071700023F90346BB81BB7F0133BB77BB7F022B67
:10718000EDD9B8893B69F0337A69194622F088F85D
:10719000204B18687B68009343231F4A79690AF0E3
:1071A00081FF0346FB77786904F070FD01E0FF235F
:1071B000FB77BB699B79FF2B05D0BB699B790133BA
:1071C000DAB2BB699A71BB699B79092B0AD8BB6992
:1071D0009B799BB21A465201D21A92001344DB00EB
:1071E0009BB201E042F21073FB81FB8903F2F313BF
:1071F0000A4A82FB03125211DB17D31A9AB2BB69F7
:107200001A8197F91F3018462037BD46B0BD00BF20
:1072100048000020706D0020F4A60360D34D62107A
:10722000B0B58AB002AF78607B681B6AFB6116F06C
:107230000BFCFB69002B00F08980FB695B79002B5C
:1072400000F08680FB699B693B61FB6900229A61C3
:10725000FB690022DA61FB6900221A62FB690022E5
:107260005A62FB6900221A63FB691A6BFB69DA62D6
:10727000FB69DA6AFB699A62FB6900229A82FB6900
:107280009A8AFB695A82FB695A8AFB691A82FB69EE
:107290001A8AFB69DA81786822F030F80346002BFD
:1072A00046D00021F86921F0E1FF07F10E03072223
:1072B000F969786800F038FCB861BB69002B30D000
:1072C000BB695B687B61F8897B6903F1F00104238A
:1072D000362200F045F80346FB81FC897B6903F107
:1072E000F0053B69184622F0E0F903461A462946A4
:1072F000204600F0A9F80346FB81F8897B69F0334A
:10730000BA69194621F0CCFF134B186807F1100237
:107310007B6800934323B9690AF0C4FEB86904F09E
:10732000B5FC0E4B0D4A0D49786804F023F903E0D3
:107330000021F86921F09AFFFB691B79002B08D026
:10734000FFF74AF9FB6900221A7102E000BF00E072
:1073500000BF2037BD46B0BD706D0020F0A60360B1
:1073600080B582B000AF396011461A460346FB80F3
:107370000B467B7113463B71FA883B791344023309
:10738000442B02D90B4816F081FAFB885A1CFA806C
:107390001A463B6813447A791A70FB885A1CFA80A3
:1073A0001A463B6813443A791A70FB881846083726
:1073B000BD4680BDBC9F036080B582B000AF034670
:1073C0003960FB8013467B71FB88432B02D9084848
:1073D00016F05CFAFB885A1CFA801A463B68134484
:1073E0007A791A70FB8818460837BD4680BD00BF01
:1073F00000A0036080B582B000AF03463960FB8017
:107400001346BB80FB880233442B02D90D4816F08B
:107410003DFABB881B0A9AB2FB88591CF9801946B1
:107420003B680B44D2B21A70FB885A1CFA801A4689
:107430003B681344BA88D2B21A70FB8818460837E2
:10744000BD4680BD38A0036080B584B000AF034660
:10745000B9607A60FB81FB890433442B02D9174859
:1074600016F014FA7B681A0EFB89591CF98119462B
:10747000BB680B44D2B21A707B681A0CFB89591C8A
:10748000F9811946BB680B44D2B21A707B681A0A9C
:10749000FB89591CF9811946BB680B44D2B21A709A
:1074A000FB895A1CFA811A46BB6813447A68D2B227
:1074B0001A70FB8918461037BD4680BD74A0036062
:1074C00080B592B000AF7860396000233B63002341
:1074D000FB6208220021B7482BF053F97B685B89D7
:1074E0002B2B02D86FF0010355E27B685B68FB61D0
:1074F000F023BB877B681B897B877B687B63BB8FA3
:107500007B830CE07B6B5B89BA8FD31ABB877B6B69
:107510005B897A8FD31A7B877B6B1B687B637B6B62
:10752000002B04D07B6B5B89BA8F9A42EAD27B6BCB
:10753000002B02D16FF001032DE2BB8FA7F846307C
:107540007B8FFB877B6B5B683B64E2E1B7F846307F
:107550003A6C13441B787B76002387F82A304FF06F
:10756000FF337B62B7F8463002337B847A8CB7F8FE
:1075700046309A4202D26FF001030CE2B7F846306F
:1075800001337A6B5289934208DAB7F846300133F7
:107590003A6C13441B7887F82B300BE07B6B1B682D
:1075A000002B04D07B6B1B685B681B7800E000231A
:1075B00087F82B3097F82B3087F82A307B7E3B2BCF
:1075C00000F2DF8001A252F823F000BFBD76006018
:1075D000CD76006083770060E1760060837700609D
:1075E0008377006083770060837700608377006033
:1075F0008377006083770060837700608377006023
:107600008377006083770060837700608377006012
:107610008377006083770060837700608377006002
:1076200083770060837700608377006083770060F2
:1076300083770060837700608377006083770060E2
:1076400083770060837700608377006083770060D2
:1076500083770060837700608377006083770060C2
:1076600083770060837700608377006083770060B2
:1076700083770060837700608377006083770060A2
:107680008377006083770060837700608377006092
:107690008377006083770060FF7600601377006077
:1076A00033770060477700608377006083770060FE
:1076B000837700605B7700606F770060002387F856
:1076C0002B3097F82B3087F82A305EE097F82B3074
:1076D000042B02D06FF005035DE106237B6254E0CA
:1076E000042387F82A3097F82B2097F82A309A42FB
:1076F00002D26FF005034EE107237B6245E097F865
:107700002B30042B02D06FF0050344E103237B628E
:107710003BE097F82B30012B02D06FF005033AE1E4
:107720007B8BF02B02D06FF0050334E100237B62EA
:107730002BE097F82B30012B02D06FF005032AE1E4
:1077400001237B6221E097F82B30042B02D06FF0ED
:10775000050320E102237B6217E097F82B30042B0E
:1077600002D06FF0050316E104237B620DE097F869
:107770002B30042B02D06FF005030CE105237B6254
:1077800003E0002387F82A3000BF7B7E002B05D161
:10779000B7F846300133A7F8463093E0B7F84620F3
:1077A00097F82B3013444FF6FD72934204DD6FF0CF
:1077B0000103F0E0686D002097F82B309AB2B7F81B
:1077C000463013449BB20233A7F8463097F82A306C
:1077D000002B77D00023FB607B6A002B02DB7B6AE7
:1077E000072B02DD6E4816F051F86E4A7B6A13448F
:1077F0001B78002B66D197F82A30042B28BF04236E
:10780000DBB2FB827B8CFA8A07F10C01786B04F007
:107810003BFC03461A46FB8A934202D06FF00103F9
:10782000B9E097F82A30042B2CD997F82A3003F0C6
:107830000303DBB2002B02D06FF00503ABE0594A23
:107840007B6A134401221A70FB68184621F02DFF51
