:0200000460009A
:10000000464346420004015600000000010303007D
:1000100000000000000000000000000000000000E0
:1000200000000000000000000000000000000000D0
:1000300000000000000000000000000000000000C0
:1000400000000000000406000000000000000000A6
:100050000000800000000000000000000000000020
:100060000000000000000000000000000000000090
:100070000000000000000000000000000000000080
:10008000EB04180A063204260000000000000000FD
:100090000000000000000000000000000000000060
:1000A0000000000000000000000000000000000050
:1000B0000000000000000000000000000000000040
:1000C0000000000000000000000000000000000030
:1000D0000000000000000000000000000000000020
:1000E0000000000000000000000000000000000010
:1000F0000000000000000000000000000000000000
:1001000000000000000000000000000000000000EF
:1001100000000000000000000000000000000000DF
:1001200000000000000000000000000000000000CF
:1001300000000000000000000000000000000000BF
:1001400000000000000000000000000000000000AF
:10015000000000000000000000000000000000009F
:10016000000000000000000000000000000000008F
:10017000000000000000000000000000000000007F
:10018000000000000000000000000000000000006F
:10019000000000000000000000000000000000005F
:1001A000000000000000000000000000000000004F
:1001B000000000000000000000000000000000003F
:1001C000000100000010000000000000000000001E
:1001D000000001000000000000000000000000001E
:1001E000000000000000000000000000000000000F
:1001F00000000000000000000000000000000000FF
:10020000FFFFFFFFFFFFFFFFFFFFFFFFFFFFFFFFFE
:10021000FFFFFFFFFFFFFFFFFFFFFFFFFFFFFFFFEE
:10100000D10020410020006000000000000000002E
:1010100020100060001000600000000000000000D0
:10102000000000600000800000000000FFFFFFFFE4
:10103000FFFFFFFFFFFFFFFFFFFFFFFFFFFFFFFFC0
:10104000FFFFFFFFFFFFFFFFFFFFFFFFFFFFFFFFB0
:10105000FFFFFFFFFFFFFFFFFFFFFFFFFFFFFFFFA0
:10106000FFFFFFFFFFFFFFFFFFFFFFFFFFFFFFFF90
:1020000000000220092300608D230060BD4B0060AA
:10201000912300609323006095230060000000007E
:102020000000000000000000000000009723006096
:1020300099230060000000009B23006011250060D0
:10204000CD460060D5460060DD460060E546006094
:10205000ED460060F5460060FD4600600547006003
:102060000D470060154700601D4700602547006070
:102070002D470060354700603D47006045470060E0
:102080004D470060554700605D4700606547006050
:102090006D470060754700607D47006085470060C0
:1020A0008D470060954700609D470060A547006030
:1020B000AD470060B5470060BD470060C5470060A0
:1020C000CD470060D5470060DD470060E547006010
:1020D000ED470060F5470060FD470060054800607F
:1020E0000D480060154800601D48006025480060EC
:1020F0002D480060354800603D480060454800605C
:102100004D480060554800605D48006065480060CB
:102110006D480060754800607D480060854800603B
:102120008D480060954800609D480060A5480060AB
:10213000AD480060B5480060BD480060C54800601B
:10214000CD480060D5480060DD480060E54800608B
:10215000ED480060F5480060FD48006005490060FA
:102160000D490060154900601D4900602549006067
:102170002D490060354900603D49006045490060D7
:102180004D490060554900605D4900606549006047
:102190006D490060754900607D49006085490060B7
:1021A0008D490060954900609D490060A549006027
:1021B000AD490060B5490060BD490060C549006097
:1021C000CD490060D5490060DD490060E549006007
:1021D000ED490060F5490060FD490060054A006076
:1021E0000D4A0060154A00601D4A0060254A0060E3
:1021F0002D4A0060354A00603D4A0060454A006053
:102200004D4A0060554A00605D4A0060654A0060C2
:102210006D4A0060754A00607D4A0060854A006032
:102220008D4A0060954A00609D4A0060A54A0060A2
:10223000AD4A0060B54A0060BD4A0060C54A006012
:10224000CD4A0060D54A0060DD4A0060E54A006082
:10225000ED4A0060F54A0060FD4A0060054B0060F1
:102260000D4B0060154B00601D4B0060254B00605E
:102270002D4B0060354B00603D4B0060454B0060CE
:102280004D4B0060554B00605D4B0060654B00603E
:102290006D4B0060754B00607D4B0060854B0060AE
:1022A0008D4B0060954B00609D4B0060A54B00601E
:1022B000AD4B0060B54B00603C5700600000002053
:1022C000040000003C570060000000000000000017
:1022D0003C57006000002020000000003C570060D8
:1022E0000000E08100000000040000201401000054
:1022F000000000000000000000002020000000009E
:102300000000E0810000000072B6104B83F30888E3
:1023100000F0BCFC0E4B07E003F10C049A6859680E
:10232000186800F01BF823460A4A9342F4D306E0EB
:102330001C46596854F8080B00F01FF82346064A5B
:102340009342F5D362B602F0FCFDFEE700000220E6
:10235000B8220060E8220060082300600023934256
:102360000AD210B450F8044B41F8044B04339342A2
:10237000F8D35DF8044B70477047002303E0002258
:1023800040F8042B04338B42F9D37047FEE7FEE795
:10239000FEE7FEE7FEE7FEE7FEE7FEE7FEE7FEE715
:1023A00080B582B000AF78607968024801F065FEC0
:1023B00000BEFDE7B853006080B584B000AF786020
:1023C00039607B68002BFCD03B68002B01D10023D7
:1023D00013E00C4B1B68002B01D100230DE03A6881
:1023E0007968094802F08DFC0346FB81FB89002BCC
:1023F00001D13B6801E04FF0FF3318461037BD466E
:1024000080BD00BF240000201C00002080B5A4B0C7
:1024100000AF786039600023C7F888300023C7F820
:102420008C300023BB6007F10C037C22002118468E
:1024300002F090FD0E4B1B68002B12D007F1080232
:102440000C4B3968786801F0EBFFC7F88800D7F8C3
:10245000882007F1080311461846FFF7ADFFC7F8BB
:102460008C00D7F88C3018469037BD4680BD00BF31
:10247000240000201540006080B483B000AF034604
:102480003960FB80B7F90630002B0ADB3B68DAB213
:102490000C49B7F906301201D2B20B4483F800237D
:1024A0000AE03B68DAB20849FB8803F00F03043BFB
:1024B0001201D2B20B441A7600BF0C37BD465DF84C
:1024C000047B704700E100E000ED00E080B582B0E1
:1024D00000AF78607B68013BB3F1807F01D30123BB
:1024E0000FE00A4A7B68013B53600F214FF0FF3039
:1024F000FFF7C2FF054B00229A60044B07221A60C7
:10250000002318460837BD4680BD00BF10E000E03C
:1025100080B400AF064B1B68002B04D0044B1B6833
:10252000013B034A136000BFBD465DF8047B704762
:102530002800002080B483B000AF7860074A7B6831
:10254000136000BF054B1B68002BFBD100BF00BF11
:102550000C37BD465DF8047B704700BF28000020A3
:1025600080B500AF00F0AAFD02F0E5FC02F089FCA6
:1025700000F02EFC134B1B68134AA2FB03239B099C
:102580001846FFF7A3FF0346002B00D0FEE74FF4E9
:102590007A70FFF7CFFF0D4B1B78DBB2002B08D012
:1025A000002203210A4800F0FBF9084B00221A70B0
:1025B000EDE701220321064800F0F2F9034B012266
:1025C0001A70E4E700000020D34D621014010020CF
:1025D00000C01B4080B582B000AF0346FB71FB79A1
:1025E00083F00103DBB2002B02D11348FFF7D8FEC2
:1025F000124B4FF08042C3F8582100BF0F4BD3F865
:10260000703203F48033002BF8D00C4B4FF480323F
:10261000C3F8542100BF094BD3F8503103F40043F1
:10262000002BF8D0054B4FF48032C3F8582100BF7F
:102630000837BD4680BD00BFCC53006000800D4010
:1026400080B483B000AF0346FB71FB79002B04D14B
:10265000074B1022C3F8742203E0054B1022C3F885
:10266000782200BF0C37BD465DF8047B704700BF81
:1026700000800D4080B400AF064BD3F87032054A9D
:1026800043F00103C2F8703200BFBD465DF8047B21
:10269000704700BF00800D4080B483B000AF786009
:1026A000154B1B6823F4E0327B681B799B039BB2BC
:1026B0001343114A43F4803313600F4B1A680F4BD6
:1026C00013407A68126802F07F0213430A4A43F407
:1026D0000053136000BF084B1B68002BFBDA064B4E
:1026E0001B68054A23F48033136000BF0C37BD46D6
:1026F0005DF8047B704700BF00800D4080CFFFFF76
:1027000080B483B000AF7860224B1B6B23F4E032BF
:102710007B681B7B9B039BB213431E4A43F48033AD
:1027200013631C4B1A6B1C4B13407A68127802F02F
:1027300001021343174A43F4005313637B685B6839
:10274000144A23F0404313657B689B68114A23F0C9
:10275000404313667B685B8AC3F30E027B681B7C75
:10276000DB039BB21A437B68DB891B0409491343D3
:102770000B6400BF074B1B6B002BFBDA054B1B6B7D
:10278000044A23F48033136300BF0C37BD465DF861
:10279000047B704700800D40FECFFFFF80B400AF88
:1027A000034B00221A6200BFBD465DF8047B7047F0
:1027B00000800D4080B400AF044B4FF480521A6784
:1027C00000BFBD465DF8047B704700BF00800D4030
:1027D00080B400AF044B4FF48052C3F8E02000BF38
:1027E000BD465DF8047B704700800D4080B485B025
:1027F00000AF03460A46FB711346BB71FB79FB60D1
:10280000124BD3F80021FB68DB00BF2101FA03F370
:10281000DB431340BB60FB68DB0080229A400B491E
:10282000BB681343C1F80031BB7903F03F02FB687A
:10283000DB009A400549BB681343C1F8003100BF73
:102840001437BD465DF8047B704700BF00800D4023
:1028500080B586B000AF03460A46FB8013467B7105
:10286000B7F906301B0A7B61FB8803F01F033B614D
:102870007B69072B02D90C48FFF792FD7B699A0010
:102880000A4B1344FB6003223B6902FA03F17A7995
:102890003B6902FA03F31A46F86802F0A5F900BF93
:1028A0001837BD4680BD00BFF053006068C00F40C0
:1028B00080B584B000AF78600023FB6009E00D4A6A
:1028C000FB6852F823307A689A4206D0FB680133DD
:1028D000FB60FB68092BF2D900E000BFFB68092B05
:1028E00002D90548FFF75CFDFB6818461037BD4666
:1028F00080BD00BF105400604454006080B586B0B5
:1029000000AFF860B9607A60F868FFF7D1FF7861CE
:102910007B69052B0DD8214A7B6932F91330B3F15D
:10292000FF3F06D01D4A7B6932F91330184602F08A
:1029300083F9FB685A690121BB6801FA03F3DB43A1
:102940001A40FB685A617B681B78002B0AD1FB6830
:102950005A680121BB6801FA03F3DB431A40FB68A4
:102960005A600FE07B685B781A46B968F86800F037
:1029700017F8FB685A680121BB6801FA03F31A4390
:10298000FB685A607B689B781A46B968F86802F061
:1029900062F900BF1837BD4680BD00BF38540060E3
:1029A00080B584B000AFF860B9601346FB71BB68B6
:1029B0001F2B02D90B48FFF7F3FCFB79002B06D144
:1029C0000122BB689A40FB68C3F8882005E0012219
:1029D000BB689A40FB68C3F8842000BF1037BD462F
:1029E00080BD00BF7854006080B487B000AFF8604D
:1029F000B9601346FB71BB683B61FB68DA69012172
:102A0000BB6801FA03F3DB431A40FB68DA61BB6879
:102A10000F2B03D8FB680C337B6105E0FB68103398
:102A20007B613B69103B3B61FB79013B042B52D836
:102A300001A252F823F000BF4D2A0060652A006011
:102A4000892A0060AD2A0060C32A00607B691A6889
:102A50003B695B00032101FA03F3DB431A407B6906
:102A60001A6039E07B691A683B695B00032101FA4F
:102A700003F3DB431A403B695B00012101FA03F3D6
:102A80001A437B691A6027E07B691A683B695B001F
:102A9000032101FA03F3DB431A403B695B00022187
:102AA00001FA03F31A437B691A6015E07B691A681F
:102AB0003B695B00032101FA03F31A437B691A6047
:102AC0000AE0FB68DA690121BB6801FA03F31A43E3
:102AD000FB68DA6100E000BF00BF1C37BD465DF84F
:102AE000047B704780B586B000AFF860B9607A604B
:102AF000BB68002B02D11448FFF752FCBB687B6116
:102B00007B683B6111E000BFFB685B6903F4000375
:102B1000002BF9D07B691B781A46FB68DA617B6968
:102B200001337B613B69013B3B613B69002BEAD18F
:102B300000BFFB685B6903F48003002BF9D000231E
:102B400018461837BD4680BD9454006080B500AF6C
:102B5000054B1B68054A5268114605489847BFF364
:102B60004F8F00BF00BF80BD580000203400002000
:102B70000040184080B500AF054B1B68054A9268BD
:102B8000114605489847BFF34F8F00BF00BF80BD77
:102B900058000020340000200080184080B500AFAD
:102BA000054B1B68054AD268114605489847BFF394
:102BB0004F8F00BF00BF80BD5800002034000020B0
:102BC00000C0184080B500AF054B1B68054A12696C
:102BD000114605489847BFF34F8F00BF00BF80BD27
:102BE00058000020340000200000194080B500AFDC
:102BF000054B1B68054A5269114605489847BFF3C3
:102C00004F8F00BF00BF80BD58000020340000205F
:102C10000040194080B500AF054B1B68054A92691A
:102C2000114605489847BFF34F8F00BF00BF80BDD6
:102C300058000020340000200080194080B500AF0B
:102C4000054B1B68054AD269114605489847BFF3F2
:102C50004F8F00BF00BF80BD58000020340000200F
:102C600000C0194080B500AF054B1B68054A126AC9
:102C7000114605489847BFF34F8F00BF00BF80BD86
:102C8000580000203400002000001A4080B500AF3A
:102C9000484BD3F88830474A43F47003C2F8883071
:102CA000444B454A9A60454B1B899BB2434A23F0EB
:102CB00001039BB21381424B1B899BB2404A23F014
:102CC00001039BB213813D4B1B889BB203F00403AD
:102CD000002B07D0394B1B889BB2384A23F00403E2
:102CE0009BB21380364B1B889BB203F00403002B6E
:102CF00007D0334B1B889BB2314A23F004039BB2AD
:102D00001380304B1B6803F40053002B03D02D4B72
:102D10002D4A5A6007E02B4B4CF220525A60294B47
:102D20004DF628125A60274B4FF6FF729A60254BDA
:102D30001B6823F0A003234A43F020031360234BB6
:102D40001B6803F00103002B05D0204B1B681F4AB2
:102D500023F001031360174B5B6903F40033B3F5F1
:102D6000003F22D0134B5B6903F40033002B1BD1CF
:102D7000BFF34F8F00BFBFF36F8F00BF0D4B00221B
:102D8000C3F85022BFF34F8F00BFBFF36F8F00BF58
:102D9000084B5B69074A43F400335361BFF34F8F1D
:102DA00000BFBFF36F8F00E000BF01F065FF00BF01
:102DB00080BD00BF00ED00E00020006000800B40FF
:102DC00000000D4000C00B4020C528D910E000E0F5
:102DD0002DE9F04385B000AF7C4E766906F00076B1
:102DE000002E49D0794B9B6903F44053B3F5005F43
:102DF00028D0B3F5005F31D8002B03D0B3F5805F46
:102E00001DD02BE0724B1B6903F48033002B0BD0D9
:102E10006F4B1B699B0B03F00303002B01D16D4B20
:102E200000E00023FB601CE0694B1B6903F0020318
:102E3000002B01D0684B00E0684BFB6011E0654B54
:102E4000FB600EE0624B1B6B9B0B03F00303002B3C
:102E500001D1604B00E00023FB6002E00023FB6037
:102E600000BF5A4B5B69DB0E03F007030133FA68BE
:102E7000B2FBF3F3FB6099E0554E366806F48036FA
:102E8000002E0BD0524E3668B60B06F00306002E0D
:102E900001D1504E00E00026BE6008E04C4E36687E
:102EA00006F07F064B4C04FB06F67608BE60484EE3
:102EB000366B06F48036002E0BD0454E366BB60BC3
:102EC00006F00306002E01D1424E00E000267E608F
:102ED00009E03F4E366B06F00106002E01D03E4E53
:102EE00000E03E4E7E603A4E366D4FF0000C3246AA
:102EF0006346384E06FB03FC002602FB06F66644DA
:102F0000344CA2FB040173181946314B1B6E00228E
:102F10009846914642464B4602F04CF902460B4613
:102F20007B6813447B60294B9B6903F44023B3F512
:102F3000402F2ED0B3F5402F35D8B3F5002F1AD03F
:102F4000B3F5002F2FD8002B03D0B3F5802F03D07B
:102F500029E07B68FB6029E01D4BD3F800311B0C96
:102F600003F03F037A68B2FBF3F21346DB0013442D
:102F70005B00FB601AE0164BD3F8003103F03F030F
:102F80007A68B2FBF3F21346DB0013445B00FB608C
:102F90000CE00E4B1B6903F007030133BA68B2FB68
:102FA000F3F3FB6002E00023FB6000BF074B5B69AB
:102FB0009B0A03F007030133FA68B2FBF3F3084AF4
:102FC000136000BF1437BD46BDE8F08300C00F405A
:102FD00000800D4000366E0100A4781F00389C1C54
:102FE0000000002080B586B000AFF860B9607A605C
:102FF000FB68002B02D11048FFF7D2F9BB68002B09
:1030000002D10E48FFF7CCF97B68002B02D10C48A7
:10301000FFF7C6F9FB687B617B691B781A46094B91
:1030200053F822307A68B9681846FFF75BFD002331
:1030300018461837BD4680BDD8540060045500605E
:103040002C550060B454006080B483B000AF786049
:103050000B4A7B6843F0010353600A4B5B6A094AE1
:1030600043F480335362BFF34F8F00BFBFF36F8FC2
:1030700000BF00BF0C37BD465DF8047B704700BF42
:1030800090ED00E000ED00E080B400AFBFF35F8F93
:1030900000BF084B5B6A074A23F480335362064B38
:1030A0005B68054A23F00103536000BFBD465DF82D
:1030B000047B704700ED00E090ED00E080B58AB041
:1030C00000AFA14B7B62A14A7B6AD31A3B6200230B
:1030D0003B619F4B5B6903F40033B3F5003F16D1AE
:1030E000BFF34F8F00BFBFF36F8F00BF984B5B697B
:1030F000974A23F400335361954B0022C3F85022C2
:10310000BFF34F8F00BFBFF36F8F00BF00BF904B67
:103110005B6903F48033B3F5803F4DD18C4B0022C3
:10312000C3F88420BFF34F8F00BF894B5B69884A87
:1031300023F480335361BFF34F8F00BF844A07F1FC
:103140000803C2F87032824A3B1DC2F87032804ACE
:1031500007F10C03C2F87032BFF34F8F00BFBFF30B
:103160006F8F00BF7A4BD3F88030FB60FB685B0B3E
:10317000C3F30E03BB60FB68DB08C3F309037B608A
:10318000BB685A0143F6E07313407A6892077049AE
:103190001343C1F874327B685A1E7A60002BEFD15A
:1031A000BB685A1EBA60002BE5D1BFF34F8F00BF3A
:1031B000BFF36F8F00BF00BFFFF766FF654B1022A4
:1031C000DA60644B644A1A61624B644ADA60614BAC
:1031D000634A1A615F4B634ADA605E4B604A1A6168
:1031E0005C4B614ADA605B4B604A1A61594B1422AE
:1031F000DA60584B5E4A1A61564B1522DA60554B1D
:103200005C4A1A61534B5C4ADA60524B594A1A6164
:10321000504B5A4ADA604F4B594A1A614D4B594A42
:10322000DA604C4B584A1A614A4B584ADA60494BAB
:10323000574A1A6102E03B6901333B613B693A6AD4
:1032400022FA03F3012BF6D83B69002B2DD07B6AC1
:103250003A6AB3FBF2F2396A01FB02F29B1A002BC5
:1032600002D04C48FFF79CF83B69012202FA03F3B5
:103270001A463B6A934202D04748FFF791F83B69F0
:10328000042B02D84548FFF78BF87B6A23F01F0315
:10329000304A43F01A03D3603B69013B5B0003F003
:1032A0003E022C493E4B13430B612A4B3D4ADA60E8
:1032B000284B3D4A1A61274B3C4ADA60254B3C4A71
:1032C0001A610420FFF7C0FE214B5B6903F48033D1
:1032D000002B6FD11E4B0022C3F88420BFF34F8F09
:1032E00000BF1B4BD3F88030FB61FB695B0BC3F362
:1032F0000E03BB61FB69DB08C3F309037B61BB6998
:103300005A0143F6E07313407A6992071049134358
:10331000C1F860327B695A1E7A61002BEFD1BB691C
:103320005A1EBA61002BE5D1BFF34F8F00BF084B87
:103330005B69074A43F480335361BFF34F8F00BF8B
:10334000BFF36F8F37E000BF0000E0810000008214
:1033500000ED00E090ED00E03F0000101100008063
:103360003900100312000060130000602D000306F6
:103370003B0010032100030316000020170020204B
:1033800025000303180028202300030319000080F0
:1033900031000303545500607C550060A85500605F
:1033A000010008031B0000402B0010031C0000421A
:1033B0002700100300BF134B5B6903F40033002B9D
:1033C0001BD1BFF34F8F00BFBFF36F8F00BF0D4BFB
:1033D0000022C3F85022BFF34F8F00BFBFF36F8F9F
:1033E00000BF084B5B69074A43F400335361BFF3E6
:1033F0004F8F00BFBFF36F8F00E000BF00BF2837C3
:10340000BD4680BD00ED00E080B584B000AF7860BF
:1034100039607B689B0EFB607B68DAB21F4B1344FC
:103420001A687B685B0BC3F30C017B681B0A03F013
:103430001F0301FA03F3DB4302EA03017B681B0A63
:1034400003F01F033A689A407B685B0BC3F30C00E0
:103450007B681B0A03F01F0300FA03F31A407B6822
:10346000D8B20E4B0344184641EA02030360FB68DE
:10347000202B02D90A48FEF793FFFB68202B09D0C6
:1034800000BF064B9A6CFB6822FA03F303F00103BA
:10349000002BF6D100BF1037BD4680BD00C00F40E5
:1034A000C055006080B584B000AF786039607B683B
:1034B0009B0EFB607B68DAB21F4B13441A687B6873
:1034C0005B0BC3F30C017B681B0A03F01F0301FABB
:1034D00003F3DB4302EA03017B681B0A03F01F03CB
:1034E0003A689A407B685B0BC3F30C007B681B0A4D
:1034F00003F01F0300FA03F31A407B68D8B20E4BA7
:103500000344184641EA02030360FB68202B02D9FA
:103510000A48FEF745FFFB68202B09D000BF064B89
:103520009A6C0121FB6801FA03F31340002BF6D1DA
:1035300000BF1037BD4680BD00C00F403856006048
:1035400080B586B000AF03460A46FB8013467B7108
:10355000B7F906301B0A7B61FB8803F01F033B6150
:103560007B69072B02D90C48FEF71AFF7B699A008A
:103570000A4B1344FB6003223B6902FA03F17A7998
:103580003B6902FA03F31A46F86801F0E6FB00BF54
:103590001837BD4680BD00BFB056006068C00F4000
:1035A00080B483B000AF7860044A7B68136000BFCA
:1035B0000C37BD465DF8047B704700BF2C0000202F
:1035C00080B483B000AF7860044A7B68136000BFAA
:1035D0000C37BD465DF8047B704700BF300000200B
:1035E00080B485B000AF78600B46FB701346BB70AB
:1035F0007B689A680A4B1340FB60FB789B0603F0DC
:103600008062FB681A43BB781B0403F47F031A43F0
:103610007B689A6000BF1437BD465DF8047B704735
:10362000FFFF00FB80B582B000AF4FF40040FFF712
:10363000C7FFDC4BD3F8C032DA4A43F48033C2F818
:10364000C032D84BD3F8C032D64A23F40033C2F884
:10365000C032D548FFF7A4FF0020FEF7BBFFFFF7FD
:1036600009F80120FEF7ECFFD04B1B6823F0FF03A5
:10367000CE4A43F07F0313600121CD48FFF7C4FE1B
:103680000121CC48FFF7C0FECB4BDB6823F01F03C2
:10369000C94A43F01303D36000BFC74B1B6803F054
:1036A0000043B3F1004FF8D10021C448FFF7FAFE00
:1036B0004FF4887001F079FB4FF4847001F075FBD2
:1036C00040F2162001F071FB4FF4067001F06DFB23
:1036D00040F20E2001F069FB0321B948FFF7E2FE3A
:1036E0000121B848FFF7DEFE0021B748FFF7DAFEF8
:1036F0004FF48A7001F059FB4FF48B7001F055FBC9
:10370000182001F052FB1A2001F04FFB4FF4867095
:1037100001F04BFB0121AD48FFF7C4FE40F202600F
:1037200001F043FB0121AA48FFF7BCFE0021A94894
:10373000FFF76AFE40F2046001F037FB0121A64862
:10374000FFF7B0FE0021A548FFF75EFE4FF4417081
:1037500001F02BFB07214FF21400FFF7A3FE00211D
:103760009F48FFF751FE00219E48FFF74DFE40F2B3
:10377000027001F01AFB01219B48FFF793FE012123
:103780009A48FFF741FE40F2022001F00EFB0121B2
:103790009748FFF787FE00219648FFF735FE4FF464
:1037A000807001F002FB4FF4817001F0FEFA4FF4DB
:1037B000827001F0FAFA4FF4837001F0F6FA0421F6
:1037C0008D48FFF76FFE02218C48FFF71DFE162083
:1037D00001F0EBFA03218A48FFF764FE00218948D3
:1037E000FFF712FE40F2125001F0DFFA0321864883
:1037F000FFF758FE01218548FFF754FE0021844859
:10380000FFF702FE40F2145001F0CFFA0321814885
:10381000FFF748FE01218048FFF744FE00217F4862
:10382000FFF7F2FD40F2165001F0BFFA03217C4889
:10383000FFF738FE01217B48FFF734FE00217A486C
:10384000FFF7E2FD40F2062001F0AFFA4FF40270FC
:1038500001F0ABFA40F20A2001F0A7FA0021734808
:10386000FFF720FE00217248FFF7CEFD0E2001F089
:103870009CFA122001F099FA40F2067001F095FAD4
:10388000102001F092FA142001F08FFA4FF4E16059
:1038900001F08BFA01216748FFF704FE0221664818
:1038A000FFF7B2FD4FF4A36001F07FFA1C2001F096
:1038B0007CFA0C2001F079FA4FF48C7001F075FA63
:1038C00040F2023001F071FA40F2063001F06DFA78
:1038D00040F21A5001F069FA40F20E6001F065FA08
:1038E00000215648FFF7DEFD00215548FFF78CFD0B
:1038F00040F20A3001F059FA01215248FFF7D2FD97
:1039000003215148FFF7CEFD05215048FFF77CFD0C
:1039100040F20E5001F049FA01214D48FFF7C2FD77
:1039200007214C48FFF7BEFD03214B48FFF76CFD14
:1039300040F2025001F039FA01214848FFF7B2FD88
:1039400007214748FFF7AEFD03214648FFF75CFD1E
:103950004FF4407001F029FA01214348FFF7A2FD1E
:1039600007214248FFF79EFD03214148FFF74CFD28
:1039700000214048FFF748FD3F48FEF78DFE3F48D5
:10398000FEF7BEFE1B210020FEF730FF10210120B4
:10399000FEF72CFF18210220FEF728FF102103203C
:1039A0006EE000BF00800D4000366E0100C00F4089
:1039B000186C0080143900140000084014EA000458
:1039C0001468008010E0004014FB00801CE00780B9
:1039D00024EB00801C30008024F000801C3100802B
:1039E000142700801426008018FD008018680080CD
:1039F0003CEB00803C69008018FA0080186400806D
:103A000024790080186E008028E6008028E0078076
:103A10001C6A00802CE600802CE007801C6C008073
:103A200028F6008028F007801C6E008038F307809D
:103A30003832008020E207802068008024E0078080
:103A40002426008038EC008018F7008038EF0080D2
:103A500030F9008030F600803074008030EC008057
:103A600030E900803067008028E9008028F9008074
:103A7000207300800C2000801857006020570060E1
:103A8000FEF7B4FEFEF796FE01228C498C4801F049
:103A90009BF98B4BD3F87031894A23F40043C2F869
:103AA0007031874BD3F87031854A23F40003C2F894
:103AB0007031834B1B6F824A43F400531367804B72
:103AC000D3F8A0307E4A23F40053C2F8A0307C4BD8
:103AD000D3F8A03023F4E033794A43F48033C2F8BA
:103AE000A030774B0022C3F8B020754B0122C3F8F9
:103AF000C020734BD3F8A030724A1A4042F21F0321
:103B000013437B607B6843F400237B606C4BD3F8EA
:103B100070316B4A43F04043C2F87031684A7B68A9
:103B2000C2F8A03000BF664BD3F8A030002BFADA01
:103B300000226549624801F047F9FEF749FE01227B
:103B400062495F4801F040F95D4BD3F8E03023F063
:103B500003035B4A43F00103C2F8E030584BD3F84B
:103B6000E030574A43F40053C2F8E030544BD3F8E6
:103B7000E030534A23F00C03C2F8E030504BD3F846
:103B8000E0304F4A43F48013C2F8E0304C4BD3F896
:103B9000E0304B4A43F40013C2F8E030FEF7FEFD7C
:103BA00001224B49464801F00FF9454B1B6A444A34
:103BB00043F40053136203214648FFF725FC00211C
:103BC0004548FFF721FC00214448FFF71DFC002178
:103BD0004348FFF719FC3A4BD3F86031384A23F0D9
:103BE0001F03C2F860313F4B1B6E3E4A23F0700347
:103BF00013663C4B1B6E23F00F033A4A43F001035C
:103C00001366384B1B6E374A23F460031366354B3B
:103C10001B6E23F4F813334A43F490131366314BAD
:103C20001B6E304A23F4807313662E4B1B6E2D4A95
:103C300023F0800313662B4B1B6E2A4A23F08073FC
:103C4000136600220021284801F0E5F80022032134
:103C5000254801F0E0F800220621234801F0DBF8B6
:103C600000220821204801F0D6F800220A211E482F
:103C700001F0D1F8002200211B48FFF7B1FC1A4BDC
:103C80005B68194A23F400335360174B5B68164A8C
:103C900023F480235360144B5B69134A23F0805351
:103CA0005361114B5B69104A23F0005353610F4B72
:103CB0000F4A1A6000BF0837BD4680BD0D00700076
:103CC00000800D4080CFFFFF0D00A0000D00E00040
:103CD0000D0020001872008014390014186C008048
:103CE0001C26008000C00F4000C00A4000000020D9
:103CF0000046C32380B586B000AF03460A46FB806A
:103D000013467B71B7F906301B0A7B61FB8803F011
:103D10001F033B617B69072B02D90C48FEF740FB70
:103D20007B699A000A4B1344FB6003223B6902FA49
:103D300003F17A793B6902FA03F31A46F86801F055
:103D4000A6F800BF1837BD4680BD00BFB056006062
:103D500068C00F4080B584B002AF40F2024001F06D
:103D6000BEF801233B7100237B710023BB713B1D17
:103D70001A4603210B48FEF7C1FD002301930A4BAD
:103D80000093002300220521084801F0B7F8084BF2
:103D9000DB6E074A23F00803D36600BF0837BD4631
:103DA00080BD00BF00C01B4038831F4048811F40BA
:103DB00000C00A4010B5174A0020174901F047F922
:103DC0004FF480734FF480620021124801F0DCF858
:103DD000124A1349012001F03AF94FF480734FF46D
:103DE000806200210D4801F0CFF80E4B1B68022BBA
:103DF0000EDD0D4A02200A4901F029F94FF48073C3
:103E00004FF4806200210848BDE8104001F0BCB8C2
:103E100010BD00BF60000020385700609C000020EB
:103E20003A57006034570060D80000202DE9F04177
:103E3000D56880460E461446EB02576905D545F015
:103E40001005384601F0A7FAA061124B2B408BB148
:103E5000A169384601F0A8FA002806DAE3684FF0B5
:103E6000FF3043F08003E36011E025F4003525F0D6
:103E70001005E56032464146384601F09BFA20F0D5
:103E80000041761AA1690E44A6610028E6D1BDE87A
:103E9000F08100BF10000200F8B5044638B90B4BA2
:103EA00005460B4E1F68A74205DC2846F8BDBDE855
:103EB000F84001F05FB93046013401F05BF90028A9
:103EC00006F13C0618BF4FF0FF35ECE734570060B1
:103ED000600000202DE9F843C66804463B4B0D46C0
:103EE000904633401BB902273846BDE8F883D0F826
:103EF0001490484601F052FA07460028F3D1B8F171
:103F0000010F2CD0B8F1020F2ED0B8F1000FEAD17A
:103F1000002DE8DBB00404D52368E26A9A4238BF7A
:103F2000E362A169A9420EDC2368E26A934238BFCA
:103F3000134622695818801AA84204DB206B01EB53
:103F4000000CAC4531DC002346F02006A562C4E934
:103F5000013326F4032626F04006E660C4E7204637
:103F600000F036F80544D3E7484601F014FAB0F102
:103F7000000CE26804DA42F080020127E260B3E755
:103F80002168A369E06A81422CBF5B181B18216974
:103F90009206A3EB010303D5A26A9342B8BF13466E
:103FA0006345ACBFED186544B2E76D1AB10744BF75
:103FB000281AA060F10726F0200644BF9B1AEB1ACE
:103FC000154448BF63602560C3E700BF03001000CD
:103FD000C3689A0705D10E4B21224FF0FF301A60BB
:103FE000704703F020021B0309D512B1806A013823
:103FF00070470368826900691344181AF7E70AB129
:10400000806A70470368826900691344181A704710
:104010005C00002080B586B000AFF860B9603B60FE
:104020001346FB7100237B6100237B611CE0BB68AE
:104030001B6801337F2B08D9BB681B681946F868D9
:10404000FEF7BAF9BB6800221A60BB681B681A4603
:10405000FB681344FA791A70BB681B685A1CBB686A
:104060001A607B6901337B617A693B689A42DEDBC7
:1040700000BF00BF1837BD4680BD0FB480B582B009
:1040800000AF00237B6007F114033B603968386997
:10409000FEF7BCF978607B6818460837BD46BDE876
:1040A000804004B0704780B485B000AF786039605C
:1040B0000023FB600023FB7220E07B681B685A1C16
:1040C0007B681A607B681B681B78BB72BB7A2F2BDE
:1040D0000DD9BB7A392B0AD8FA6813469B001344D2
:1040E0005B001A46BB7A1344303BFB6006E07B68FA
:1040F0001B685A1E7B681A600123FB72FB7A002B37
:10410000DBD0FB6818461437BD465DF8047B70476A
:1041100080B489B000AFF860B9607A60FB681B6852
:10412000FB610623BB610023FB75FB690133FB6167
:10413000FB691B782E2B24D10023BB610023FB7568
:104140001BE0FB690133FB61FB691B78BB75BB7D21
:104150002F2B0DD9BB7D392B0AD8BA6913469B008A
:1041600013445B001A46BB7D1344303BBB6104E043
:10417000FB69013BFB610123FB75FB7D002BE0D05C
:1041800002E0FB69013BFB61FB68FA691A60BB69ED
:1041900018462437BD465DF8047B704780B485B06F
:1041A00000AF0346FB710023FB60FB796F2B08D047
:1041B000FB79622B05D0FB79702B02D0FB79752B34
:1041C00001D10123FB60FB6818461437BD465DF83A
:1041D000047B704780B485B000AF0346FB710023B9
:1041E000FB60FB79642B02D0FB79692B01D10123A1
:1041F000FB60FB6818461437BD465DF8047B7047CA
:1042000090B585B000AFF860B9607A60FB70BA68AD
:104210007B68D31A7C6A2022F96AB86AA04708E052
:104220003B6A5A1E3A621A787C6A0123F96AB86AB4
:10423000A0473B6A1B78002BF2D100BF00BF1437A8
:10424000BD4690BD90B585B000AFF860B9607A60AA
:10425000FB70BA687B68D31A7C6A2022F96AB86A54
:10426000A04708E03B6A5A1E3A621A787C6A01232A
:10427000F96AB86AA0473B6A1B78002BF2D100BFED
:1042800000BF1437BD4690BD80B485B000AF034673
:10429000FB710023FB60FB79662B02D0FB79462B78
:1042A00001D10123FB60FB6818461437BD465DF859
:1042B000047B704780B485B000AF0346FB710023D8
:1042C000FB60FB79782B02D0FB79582B01D10123BD
:1042D000FB60FB6818461437BD465DF8047B7047E9
:1042E00080B485B000AF78607B681B68FB60FB68BA
:1042F0000133FB60FB681B78FB72FB7A682BF6D0FE
:10430000FB7A6C2BF3D0FB68013BFB607B68FA689F
:104310001A6000BF1437BD465DF8047B704780B457
:1043200085B000AF0346FB71FB796F2B02D10823E8
:10433000FB730DE0FB79622B02D10223FB7307E0D4
:10434000FB79702B02D11023FB7301E00A23FB736E
:10435000FB7B18461437BD465DF8047B704780B47C
:104360008FB000AFF860B9607A603B600023FB62F9
:10437000FB68BB62BB6A5A1CBA6200221A70002337
:104380007B6000237B6200233B620023FB610023F0
:104390007B630023BB6100233B6300237B61BB681D
:1043A0001B687B637B6B002B30D1BB6A30221A7099
:1043B000FB6A0133FB62FB6A2CE07A6B3B68B2FB61
:1043C000F3F3BB61BB693A6802FB03F37A6BD31A60
:1043D0003B633B6B092B03D83B6B30333B630AE0F9
:1043E00097F84030002B01D0412200E061223B6B66
:1043F00013440A3B3B63BB697B63BB6A5A1CBA62CA
:104400003A6BD2B21A70FB6A0133FB627B6B002BF2
:10441000D3D1FB6A18463C37BD465DF8047B704734
:1044200090B5A1B004AFF860B9607A603B6000233A
:104430007B6600233B6600233B620023FB65002371
:10444000BB61FB68BB64BB6C1B78002B00F0388140
:10445000BB6C1B7887F85B3097F85B30252B0BD053
:1044600097F85B2007F120013C6801237868A0479A
:10447000BB6C0133BB6422E1012387F86B3007F189
:10448000080207F1480311461846FFF70CFE78654D
:1044900007F1080107F1480300221846FFF738FE2C
:1044A000386507F148031846FFF71AFFBB6C013364
:1044B000BB64BB6C1B7887F85B3097F85B301846A1
:1044C000FFF788FE0346012B25D1BB681A1DBA6091
:1044D0001B68FB6107F11C0107F1240097F86B30A2
:1044E00000930A230122FFF73AFF386607F12402FE
:1044F0003B6E13447B663A6E07F1200303937B689F
:1045000002933B6801937B6E00930023796D00203A
:10451000FFF776FED0E097F85B301846FFF7B4FE61
:104520000346012B06D1BB68073323F0070308338A
:10453000BB60C1E097F85B301846FFF7BBFE03464F
:10454000012B2ED197F85B30782B02D1002387F80E
:104550006B30BB681A1DBA601B68BB6107F118019C
:1045600007F1240097F86B30009310230022FFF727
:10457000F6FE386607F124023B6E13447B663A6E02
:1045800097F86B1007F1200303937B6802933B6855
:1045900001937B6E00930B46796D0020FFF752FE6E
:1045A0008AE097F85B301846FFF7F8FD0346012BC9
:1045B0003ED197F85B30702B0DD1BB681A1DBA60E5
:1045C0001B687B6107F1140107F1180304221846E8
:1045D00000F0BEFC04E0BB681A1DBA601B68BB613A
:1045E00097F85B301846FFF79AFE0346FB6507F124
:1045F000180107F1240097F86B300093FB6D00223F
:10460000FFF7ADFE386607F124023B6E13447B666C
:104610003A6E07F1200303937B6802933B68019392
:104620007B6E00930023796D0020FFF7E9FD43E0E6
:1046300097F85B30632B0DD1BB681A1DBA601B68FD
:10464000FB64FB6CDAB207F120013C680123786857
:10465000A04731E097F85B30732B25D1BB681A1D5A
:10466000BA601B68FB66FB6E002B25D0F86E00F06D
:10467000AAFC03463B667A6D3B6ED31A07F1200114
:104680003C6820227868A04709E0FB6E5A1CFA6655
:104690001A7807F120013C6801237868A047FB6E77
:1046A0001B78002BF1D107E097F85B2007F1200180
:1046B0003C6801237868A047BB6C0133BB64C2E649
:1046C00000BF3B6A18467437BD4690BD08B5FDF77C
:1046D00066FE08BD08B5FDF762FE08BD08B5FDF72A
:1046E0005EFE08BD08B5FDF75AFE08BD08B5FDF72A
:1046F00056FE08BD08B5FDF752FE08BD08B5FDF72A
:104700004EFE08BD08B5FDF74AFE08BD08B5FDF729
:1047100046FE08BD08B5FDF742FE08BD08B5FDF729
:104720003EFE08BD08B5FDF73AFE08BD08B5FDF729
:1047300036FE08BD08B5FDF732FE08BD08B5FDF729
:104740002EFE08BD08B5FDF72AFE08BD08B5FDF729
:1047500026FE08BD08B5FDF722FE08BD08B5FDF729
:104760001EFE08BD08B5FDF71AFE08BD08B5FEF728
:10477000EDF908BD08B5FEF7FDF908BD08B5FEF76F
:104780000DFA08BD08B5FEF71DFA08BD08B5FEF71D
:104790002DFA08BD08B5FEF73DFA08BD08B5FEF7CD
:1047A0004DFA08BD08B5FEF75DFA08BD08B5FDF77E
:1047B000F6FD08BD08B5FDF7F2FD08BD08B5FDF72B
:1047C000EEFD08BD08B5FDF7EAFD08BD08B5FDF72B
:1047D000E6FD08BD08B5FDF7E2FD08BD08B5FDF72B
:1047E000DEFD08BD08B5FDF7DAFD08BD08B5FDF72B
:1047F000D6FD08BD08B5FDF7D2FD08BD08B5FDF72B
:10480000CEFD08BD08B5FDF7CAFD08BD08B5FDF72A
:10481000C6FD08BD08B5FDF7C2FD08BD08B5FDF72A
:10482000BEFD08BD08B5FDF7BAFD08BD08B5FDF72A
:10483000B6FD08BD08B5FDF7B2FD08BD08B5FDF72A
:10484000AEFD08BD08B5FDF7AAFD08BD08B5FDF72A
:10485000A6FD08BD08B5FDF7A2FD08BD08B5FDF72A
:104860009EFD08BD08B5FDF79AFD08BD08B5FDF72A
:1048700096FD08BD08B5FDF792FD08BD08B5FDF72A
:104880008EFD08BD08B5FDF78AFD08BD08B5FDF72A
:1048900086FD08BD08B5FDF782FD08BD08B5FDF72A
:1048A0007EFD08BD08B5FDF77AFD08BD08B5FDF72A
:1048B00076FD08BD08B5FDF772FD08BD08B5FDF72A
:1048C0006EFD08BD08B5FDF76AFD08BD08B5FDF72A
:1048D00066FD08BD08B5FDF762FD08BD08B5FDF72A
:1048E0005EFD08BD08B5FDF75AFD08BD08B5FDF72A
:1048F00056FD08BD08B5FDF752FD08BD08B5FDF72A
:104900004EFD08BD08B5FDF74AFD08BD08B5FDF729
:1049100046FD08BD08B5FDF742FD08BD08B5FDF729
:104920003EFD08BD08B5FDF73AFD08BD08B5FDF729
:1049300036FD08BD08B5FDF732FD08BD08B5FDF729
:104940002EFD08BD08B5FDF72AFD08BD08B5FDF729
:1049500026FD08BD08B5FDF722FD08BD08B5FDF729
:104960001EFD08BD08B5FDF71AFD08BD08B5FDF729
:1049700016FD08BD08B5FDF712FD08BD08B5FDF729
:104980000EFD08BD08B5FDF70AFD08BD08B5FDF729
:1049900006FD08BD08B5FDF702FD08BD08B5FDF729
:1049A000FEFC08BD08B5FDF7FAFC08BD08B5FDF72B
:1049B000F6FC08BD08B5FDF7F2FC08BD08B5FDF72B
:1049C000EEFC08BD08B5FDF7EAFC08BD08B5FDF72B
:1049D000E6FC08BD08B5FDF7E2FC08BD08B5FDF72B
:1049E000DEFC08BD08B5FDF7DAFC08BD08B5FDF72B
:1049F000D6FC08BD08B5FDF7D2FC08BD08B5FDF72B
:104A0000CEFC08BD08B5FDF7CAFC08BD08B5FDF72A
:104A1000C6FC08BD08B5FDF7C2FC08BD08B5FDF72A
:104A2000BEFC08BD08B5FDF7BAFC08BD08B5FDF72A
:104A3000B6FC08BD08B5FDF7B2FC08BD08B5FDF72A
:104A4000AEFC08BD08B5FDF7AAFC08BD08B5FDF72A
:104A5000A6FC08BD08B5FDF7A2FC08BD08B5FDF72A
:104A60009EFC08BD08B5FDF79AFC08BD08B5FDF72A
:104A700096FC08BD08B5FDF792FC08BD08B5FDF72A
:104A80008EFC08BD08B5FDF78AFC08BD08B5FDF72A
:104A900086FC08BD08B5FDF782FC08BD08B5FDF72A
:104AA0007EFC08BD08B5FDF77AFC08BD08B5FDF72A
:104AB00076FC08BD08B5FDF772FC08BD08B5FDF72A
:104AC0006EFC08BD08B5FDF76AFC08BD08B5FDF72A
:104AD00066FC08BD08B5FDF762FC08BD08B5FDF72A
:104AE0005EFC08BD08B5FDF75AFC08BD08B5FDF72A
:104AF00056FC08BD08B5FDF752FC08BD08B5FDF72A
:104B00004EFC08BD08B5FDF74AFC08BD08B5FDF729
:104B100046FC08BD08B5FDF742FC08BD08B5FDF729
:104B20003EFC08BD08B5FDF73AFC08BD08B5FDF729
:104B300036FC08BD08B5FDF732FC08BD08B5FDF729
:104B40002EFC08BD08B5FDF72AFC08BD08B5FDF729
:104B500026FC08BD08B5FDF722FC08BD08B5FDF729
:104B60001EFC08BD08B5FDF71AFC08BD08B5FDF729
:104B700016FC08BD08B5FDF712FC08BD08B5FDF729
:104B80000EFC08BD08B5FDF70AFC08BD08B5FDF729
:104B900006FC08BD08B5FDF702FC08BD08B5FDF729
:104BA000FEFB08BD08B5FDF7FAFB08BD08B5FDF72B
:104BB000F6FB08BD08B5FDF7F2FB08BD0420714601
:104BC000084202D0EFF3098001E0EFF30880816929
:104BD0000A884BF6AB639A4200D0FEE7023181614E
:104BE00020210160704700BF80B48BB000AFF86037
:104BF000B9607A60FB687B617B6953E8003F3B6189
:104C00003B697B62BB68DA437B6A13407A68134373
:104C10007B627B6A3B62FB68FB61F9693A6A41E847
:104C20000023BB61BB69002BE4D100BF00BF2C3760
:104C3000BD465DF8047B704780B582B000AF034687
:104C4000FB80B7F9063003211846FDF701FE00BFCF
:104C50000837BD4680BD80B584B000AFF860B9604C
:104C60001346FB71FB791A46B968F868FDF7BCFE7C
:104C700000BF1037BD4680BD80B400AF00BFBD4649
:104C80005DF8047B704780B586B000AFF860B9600E
:104C90007A603B6043F22153FB82FB681B78012B57
:104CA00008D1FB680C333A687968184600F039F887
:104CB0000346FB82FB8A18461837BD4680BD80B587
:104CC00086B000AFF860B9607A60FB68002BFCD05A
:104CD000BB68002BFCD07B68002BFCD0FB687B61A1
:104CE0007B691B683B613B69002BFCD07B68BA6821
:104CF00079693869FFF7C7FF034618461837BD467C
:104D000080BD80B584B000AFF860B9607A607A6821
:104D1000B968F868FFF7D3FF034618461037BD4659
:104D200080BD80B586B000AFF860B9607A60FB687E
:104D3000002BFCD0BB68002BFCD07B68002BFCD088
:104D4000FB687B617B697A68B9681846FEF74AF9A7
:104D5000034618461837BD4680BD80B48BB000AFFF
:104D6000F860B9607A60FB687B617B6953E8003F5B
:104D70003B613B697B62BB68DA437B6A13407A68BC
:104D800013437B627B6A3B62FB68FB61F9693A6AA9
:104D900041E80023BB61BB69002BE4D100BF00BF29
:104DA0002C37BD465DF8047B704780B582B000AFFC
:104DB0000346FB80B7F9063000211846FEF7C0FB1A
:104DC00000BF0837BD4680BD80B485B000AFF86035
:104DD000B9601346FB71FB79002B0BD0BB681B0C31
:104DE000C3F30B02FB68134404331A464FF48033B9
:104DF00013600AE0BB681B0CC3F30B02FB6813448F
:104E000008331A464FF48033136000BF1437BD4691
:104E10005DF8047B704780B485B000AF78600B46C6
:104E2000FB701346BB70FB78032B12D97B685A6862
:104E3000FB78032101FA03F3DB431340FB60BB78EB
:104E400003F00302FB789A40FB681A437B685A60C0
:104E500011E07B685A68FB78072101FA03F3DB4312
:104E60001340FB60BB7803F00702FB789A40FB68B5
:104E70001A437B685A6000BF1437BD465DF8047B57
:104E8000704780B500AFFEF7CDFB00BF80BD80B49A
:104E90008BB000AFF860B9607A60FB687B617B69BA
:104EA00053E8003F3B613B697B62BB68DA437B6A46
:104EB00013407A6813437B627B6A3B62FB68FB6149
:104EC000F9693A6A41E80023BB61BB69002BE4D170
:104ED00000BF00BF2C37BD465DF8047B704780B52E
:104EE00082B000AF0346FB80B7F9063003211846B5
:104EF000FEF700FF00BF0837BD4680BD80B485B017
:104F000000AFF860B9607A603B60BB6803F00F01E6
:104F1000FB691B0103F01002FB680A431A607B68FF
:104F2000002B02D07B683A681A6000BF1437BD4678
:104F30005DF8047B704780B500AFFEF70BFF00BF44
:104F400080BD08B5FEF736FFBDE80840FDF708BB99
:104F500000F0EBB900F003BAA8B14FF0805340F86D
:104F60000C3C50F8042C72B11368B3F1805F0AD185
:104F700050F8083C516803330B4440F8083C9368F0
:104F800040F8043CEDE7704770B5C468A50708D049
:104F9000B2F5007F11D0B2F5806F04D0B2F5807FFA
:104FA0000BD0012008E000F124010123224301611C
:104FB0000160C361C260002070BD5E1E6FF07F455E
:104FC000AE42F3D3EDE7431C10B58207044614D17B
:104FD000204654F8042BA2F1013121EA020111F01C
:104FE000803FF5D0D1B281B112F47F4F0BD012F4D3
:104FF0007F0F14BF2046033003E010F8012B002A76
:10500000E3D1C01A10BD0230FBE70130F9E7C368F5
:10501000826923F0200310B5C3600446836A9A4274
:105020000ED000F048F8E36823F4405323F0100357
:1050300043F01003E360A36AA3612369E362236082
:10504000E36823F4804323F04003E36010BD70B5B0
:105050000D4606461046144600F056F82B78722B83
:1050600017D0772B18D0612B23D1082348F20202E6
:1050700015F8011F2B2912D0622915D01B07E260F9
:10508000666104D5022200212046FEF723FF204658
:1050900070BD00230122EBE704230222E8E742F07F
:1050A000030243F00203E3E742F0040243F001038A
:1050B000DEE70024EBE738B5016804460569C36AFA
:1050C000C06820F40022E26000F08202022A02D0CE
:1050D0004FF0FF3038BD10F48030FBD0994238BF1C
:1050E00019468D4208D1E3680020E56223F480333D
:1050F0002560A060E360EDE72246491B2846FEF7E5
:1051000095FE0028EFD0E3E7F0B5C46889B0054606
:10511000A10722D0220718D4D0E90467FEF7BCFE0D
:10512000384600F035F9230502D53046FFF714FF65
:10513000A40DA40514F1A54F07D12022296A6846C1
:1051400000F035F9684600F00BF83C2200212846B3
:10515000FFF700FF002009B0F0BD4FF0FF30FAE785
:1051600010B50446FFF72FFF01462046BDE810406A
:1051700000F017B9C36870B513F00306044611D0E8
:105180009B0611D5856AFFF742FFE368204623F4AA
:105190004053E360FFF78FFF002206462946204672
:1051A000FEF798FE304670BD816905680D440169BF
:1051B0006D1AEAE75FF0000C30B51C0022D1120036
:1051C0006FD0914206D305460846002100F06FF8E3
:1051D0000446284600F06BF80A462146BDE83040F8
:1051E0001CF0404F08BF704703D54942404261F16F
:1051F00000015FEA8C0C38BF70475B42524263F19A
:105200000003704742D41C0C04BF1B040CF1100CAB
:1052100013F07F4F04BF1B020CF1080C13F0704F0A
:1052200004BF1B010CF1040C13F0404F04BF0CF140
:10523000020C5FEA83035CBF0CF1010C5B00CCF154
:10524000200E22FA0EF4234302FA0CF200FA0CF5B7
:1052500020FA0EF001FA0CF4204321FA0EF1144664
:105260001A4600F024F8A4FB0023AA1A71EB0303EA
:105270003CBF1B190138CCF1200E22FA0CF203FAC4
:105280000EF4224323FA0CF30021A7E7821A71EBF4
:1052900003033CBF02460B464FF0000141F1000002
:1052A0009CE700200021BDE8304000F03DB8042319
:1052B000B1EB122F09D2090241EA10610002013B51
:1052C00008BF7047B1EB122FF5D30018494134BF26
:1052D0009142891A4041494134BF9142891A404163
:1052E000494134BF9142891A4041494134BF9142FA
:1052F000891A4041494134BF9142891A404149418C
:1053000034BF9142891A4041494134BF9142891AC0
:105310004041494134BF9142891A4041A3F1010300
:1053200013F00F0FD2D17047704740EA0103DB073B
:1053300003460CD40346043A22BF51F804CB43F889
:1053400004CBB2F10402F7D2043208BF7047013A2D
:1053500024BF11F801CB03F801CBF8D870470346FE
:1053600013F0030F0ED101F0FF0141EA012141EAE0
:105370000141043A24BF43F8041BB2F10402F9D2FC
:1053800002F10402013A24BF03F8011BFAE7704757
:105390004FF0FF3070474FF0FF3070474FF0FF3055
:1053A00070474FF0FF3070474FF0FF3070474FF0BD
:1053B000FF307047104670474153534552542045C3
:1053C00052524F522022202573200A0066736C5FD0
:1053D000636C6F636B2E633A313933203A2021625C
:1053E00079706173735874616C4F736300FFFFFFD2
:1053F00066736C5F636C6F636B2E683A3135303265
:10540000203A20696E646578203C3D2037554C0079
:105410000000000000801B4000C01B4000001C403A
:1054200000401C4000000C400000004200400042D0
:105430000080004200C00042FFFF1A011E001A0255
:105440000C031E0166736C5F6770696F2E633A35DB
:1054500037203A20696E7374616E6365203C204189
:10546000525241595F53495A4528735F6770696FBB
:1054700042617365732900FF66736C5F6770696FC3
:105480002E633A313133203A2070696E203C20334C
:10549000325500FF66736C5F6C70756172742E63B9
:1054A0003A393138203A204E554C4C20213D206469
:1054B0006174610000000000004018400080184046
:1054C00000C01840000019400040194000801940F9
:1054D00000C0194000001A4066736C5F616461701F
:1054E0007465725F6C70756172742E633A36333214
:1054F000203A204E554C4C20213D2068616E646C52
:105500006500000066736C5F616461707465725F52
:105510006C70756172742E633A363333203A204EC4
:10552000554C4C20213D20646174610066736C5FB2
:10553000616461707465725F6C70756172742E6302
:105540003A363334203A206C656E677468203E200A
:10555000305500FF626F6172642E633A3337392031
:105560003A2021286E6F6E436163686553746172DF
:105570007420252073697A6529000000626F6172CA
:10558000642E633A333830203A2073697A65203DBF
:105590003D202875696E7433325F74292831203CB0
:1055A0003C20692900000000626F6172642E633A3A
:1055B000333831203A2069203E3D203500FFFFFF7F
:1055C000433A5C4372616E65536F66745C44657602
:1055D000656C6F705C4769744875625C5465656E94
:1055E00073795870726573736F5C7465656E7379E7
:1055F0005F696C65645F626C696E6B795C6472692B
:10560000766572732F66736C5F636C6F636B2E6865
:105610003A31343136203A206275737953686966BD
:1056200074203C3D2043434D5F4E4F5F42555359DC
:105630005F5741495400FFFF433A5C4372616E6516
:10564000536F66745C446576656C6F705C47697413
:105650004875625C5465656E7379587072657373D2
:105660006F5C7465656E73795F696C65645F626CAD
:10567000696E6B795C647269766572732F66736CA0
:105680005F636C6F636B2E683A31343638203A2092
:10569000627573795368696674203C3D2043434DBD
:1056A0005F4E4F5F425553595F5741495400FFFFCA
:1056B000433A5C4372616E65536F66745C44657611
:1056C000656C6F705C4769744875625C5465656EA3
:1056D00073795870726573736F5C7465656E7379F6
:1056E0005F696C65645F626C696E6B795C6472693A
:1056F000766572732F66736C5F636C6F636B2E6875
:105700003A31353032203A20696E646578203C3D6C
:105710002037554C00FFFFFF640000000000000030
:105720000100000000000000010000000000000077
:0C57300000000000030000007200770081
:04573C0000A4781F2E
:04000005600023096B
:00000001FF
